{
  "_format": "hh-sol-artifact-1",
  "contractName": "GovernanceContract",
  "sourceName": "contracts/GovernanceContract.sol",
  "abi": [
    {
      "inputs": [
        {
          "internalType": "contract IVotes",
          "name": "_token",
          "type": "address"
        }
      ],
      "stateMutability": "nonpayable",
      "type": "constructor"
    },
    {
      "inputs": [],
      "name": "CheckpointUnorderedInsertion",
      "type": "error"
    },
    {
      "inputs": [],
      "name": "FailedInnerCall",
      "type": "error"
    },
    {
      "inputs": [
        {
          "internalType": "address",
          "name": "voter",
          "type": "address"
        }
      ],
      "name": "GovernorAlreadyCastVote",
      "type": "error"
    },
    {
      "inputs": [
        {
          "internalType": "uint256",
          "name": "proposalId",
          "type": "uint256"
        }
      ],
      "name": "GovernorAlreadyQueuedProposal",
      "type": "error"
    },
    {
      "inputs": [],
      "name": "GovernorDisabledDeposit",
      "type": "error"
    },
    {
      "inputs": [
        {
          "internalType": "address",
          "name": "proposer",
          "type": "address"
        },
        {
          "internalType": "uint256",
          "name": "votes",
          "type": "uint256"
        },
        {
          "internalType": "uint256",
          "name": "threshold",
          "type": "uint256"
        }
      ],
      "name": "GovernorInsufficientProposerVotes",
      "type": "error"
    },
    {
      "inputs": [
        {
          "internalType": "uint256",
          "name": "targets",
          "type": "uint256"
        },
        {
          "internalType": "uint256",
          "name": "calldatas",
          "type": "uint256"
        },
        {
          "internalType": "uint256",
          "name": "values",
          "type": "uint256"
        }
      ],
      "name": "GovernorInvalidProposalLength",
      "type": "error"
    },
    {
      "inputs": [
        {
          "internalType": "uint256",
          "name": "quorumNumerator",
          "type": "uint256"
        },
        {
          "internalType": "uint256",
          "name": "quorumDenominator",
          "type": "uint256"
        }
      ],
      "name": "GovernorInvalidQuorumFraction",
      "type": "error"
    },
    {
      "inputs": [
        {
          "internalType": "address",
          "name": "voter",
          "type": "address"
        }
      ],
      "name": "GovernorInvalidSignature",
      "type": "error"
    },
    {
      "inputs": [],
      "name": "GovernorInvalidVoteType",
      "type": "error"
    },
    {
      "inputs": [
        {
          "internalType": "uint256",
          "name": "votingPeriod",
          "type": "uint256"
        }
      ],
      "name": "GovernorInvalidVotingPeriod",
      "type": "error"
    },
    {
      "inputs": [
        {
          "internalType": "uint256",
          "name": "proposalId",
          "type": "uint256"
        }
      ],
      "name": "GovernorNonexistentProposal",
      "type": "error"
    },
    {
      "inputs": [
        {
          "internalType": "uint256",
          "name": "proposalId",
          "type": "uint256"
        }
      ],
      "name": "GovernorNotQueuedProposal",
      "type": "error"
    },
    {
      "inputs": [
        {
          "internalType": "address",
          "name": "account",
          "type": "address"
        }
      ],
      "name": "GovernorOnlyExecutor",
      "type": "error"
    },
    {
      "inputs": [
        {
          "internalType": "address",
          "name": "account",
          "type": "address"
        }
      ],
      "name": "GovernorOnlyProposer",
      "type": "error"
    },
    {
      "inputs": [],
      "name": "GovernorQueueNotImplemented",
      "type": "error"
    },
    {
      "inputs": [
        {
          "internalType": "address",
          "name": "proposer",
          "type": "address"
        }
      ],
      "name": "GovernorRestrictedProposer",
      "type": "error"
    },
    {
      "inputs": [
        {
          "internalType": "uint256",
          "name": "proposalId",
          "type": "uint256"
        },
        {
          "internalType": "enum IGovernor.ProposalState",
          "name": "current",
          "type": "uint8"
        },
        {
          "internalType": "bytes32",
          "name": "expectedStates",
          "type": "bytes32"
        }
      ],
      "name": "GovernorUnexpectedProposalState",
      "type": "error"
    },
    {
      "inputs": [
        {
          "internalType": "address",
          "name": "account",
          "type": "address"
        },
        {
          "internalType": "uint256",
          "name": "currentNonce",
          "type": "uint256"
        }
      ],
      "name": "InvalidAccountNonce",
      "type": "error"
    },
    {
      "inputs": [],
      "name": "InvalidShortString",
      "type": "error"
    },
    {
      "inputs": [],
      "name": "QueueEmpty",
      "type": "error"
    },
    {
      "inputs": [],
      "name": "QueueFull",
      "type": "error"
    },
    {
      "inputs": [
        {
          "internalType": "uint8",
          "name": "bits",
          "type": "uint8"
        },
        {
          "internalType": "uint256",
          "name": "value",
          "type": "uint256"
        }
      ],
      "name": "SafeCastOverflowedUintDowncast",
      "type": "error"
    },
    {
      "inputs": [
        {
          "internalType": "string",
          "name": "str",
          "type": "string"
        }
      ],
      "name": "StringTooLong",
      "type": "error"
    },
    {
      "anonymous": false,
      "inputs": [],
      "name": "EIP712DomainChanged",
      "type": "event"
    },
    {
      "anonymous": false,
      "inputs": [
        {
          "indexed": false,
          "internalType": "uint256",
          "name": "proposalId",
          "type": "uint256"
        }
      ],
      "name": "ProposalCanceled",
      "type": "event"
    },
    {
      "anonymous": false,
      "inputs": [
        {
          "indexed": false,
          "internalType": "uint256",
          "name": "proposalId",
          "type": "uint256"
        },
        {
          "indexed": false,
          "internalType": "address",
          "name": "proposer",
          "type": "address"
        },
        {
          "indexed": false,
          "internalType": "address[]",
          "name": "targets",
          "type": "address[]"
        },
        {
          "indexed": false,
          "internalType": "uint256[]",
          "name": "values",
          "type": "uint256[]"
        },
        {
          "indexed": false,
          "internalType": "string[]",
          "name": "signatures",
          "type": "string[]"
        },
        {
          "indexed": false,
          "internalType": "bytes[]",
          "name": "calldatas",
          "type": "bytes[]"
        },
        {
          "indexed": false,
          "internalType": "uint256",
          "name": "voteStart",
          "type": "uint256"
        },
        {
          "indexed": false,
          "internalType": "uint256",
          "name": "voteEnd",
          "type": "uint256"
        },
        {
          "indexed": false,
          "internalType": "string",
          "name": "description",
          "type": "string"
        }
      ],
      "name": "ProposalCreated",
      "type": "event"
    },
    {
      "anonymous": false,
      "inputs": [
        {
          "indexed": false,
          "internalType": "uint256",
          "name": "proposalId",
          "type": "uint256"
        }
      ],
      "name": "ProposalExecuted",
      "type": "event"
    },
    {
      "anonymous": false,
      "inputs": [
        {
          "indexed": false,
          "internalType": "uint256",
          "name": "proposalId",
          "type": "uint256"
        },
        {
          "indexed": false,
          "internalType": "uint256",
          "name": "etaSeconds",
          "type": "uint256"
        }
      ],
      "name": "ProposalQueued",
      "type": "event"
    },
    {
      "anonymous": false,
      "inputs": [
        {
          "indexed": false,
          "internalType": "uint256",
          "name": "oldProposalThreshold",
          "type": "uint256"
        },
        {
          "indexed": false,
          "internalType": "uint256",
          "name": "newProposalThreshold",
          "type": "uint256"
        }
      ],
      "name": "ProposalThresholdSet",
      "type": "event"
    },
    {
      "anonymous": false,
      "inputs": [
        {
          "indexed": false,
          "internalType": "uint256",
          "name": "oldQuorumNumerator",
          "type": "uint256"
        },
        {
          "indexed": false,
          "internalType": "uint256",
          "name": "newQuorumNumerator",
          "type": "uint256"
        }
      ],
      "name": "QuorumNumeratorUpdated",
      "type": "event"
    },
    {
      "anonymous": false,
      "inputs": [
        {
          "indexed": true,
          "internalType": "address",
          "name": "voter",
          "type": "address"
        },
        {
          "indexed": false,
          "internalType": "uint256",
          "name": "proposalId",
          "type": "uint256"
        },
        {
          "indexed": false,
          "internalType": "uint8",
          "name": "support",
          "type": "uint8"
        },
        {
          "indexed": false,
          "internalType": "uint256",
          "name": "weight",
          "type": "uint256"
        },
        {
          "indexed": false,
          "internalType": "string",
          "name": "reason",
          "type": "string"
        }
      ],
      "name": "VoteCast",
      "type": "event"
    },
    {
      "anonymous": false,
      "inputs": [
        {
          "indexed": true,
          "internalType": "address",
          "name": "voter",
          "type": "address"
        },
        {
          "indexed": false,
          "internalType": "uint256",
          "name": "proposalId",
          "type": "uint256"
        },
        {
          "indexed": false,
          "internalType": "uint8",
          "name": "support",
          "type": "uint8"
        },
        {
          "indexed": false,
          "internalType": "uint256",
          "name": "weight",
          "type": "uint256"
        },
        {
          "indexed": false,
          "internalType": "string",
          "name": "reason",
          "type": "string"
        },
        {
          "indexed": false,
          "internalType": "bytes",
          "name": "params",
          "type": "bytes"
        }
      ],
      "name": "VoteCastWithParams",
      "type": "event"
    },
    {
      "anonymous": false,
      "inputs": [
        {
          "indexed": false,
          "internalType": "uint256",
          "name": "oldVotingDelay",
          "type": "uint256"
        },
        {
          "indexed": false,
          "internalType": "uint256",
          "name": "newVotingDelay",
          "type": "uint256"
        }
      ],
      "name": "VotingDelaySet",
      "type": "event"
    },
    {
      "anonymous": false,
      "inputs": [
        {
          "indexed": false,
          "internalType": "uint256",
          "name": "oldVotingPeriod",
          "type": "uint256"
        },
        {
          "indexed": false,
          "internalType": "uint256",
          "name": "newVotingPeriod",
          "type": "uint256"
        }
      ],
      "name": "VotingPeriodSet",
      "type": "event"
    },
    {
      "inputs": [],
      "name": "BALLOT_TYPEHASH",
      "outputs": [
        {
          "internalType": "bytes32",
          "name": "",
          "type": "bytes32"
        }
      ],
      "stateMutability": "view",
      "type": "function"
    },
    {
      "inputs": [],
      "name": "CLOCK_MODE",
      "outputs": [
        {
          "internalType": "string",
          "name": "",
          "type": "string"
        }
      ],
      "stateMutability": "view",
      "type": "function"
    },
    {
      "inputs": [],
      "name": "COUNTING_MODE",
      "outputs": [
        {
          "internalType": "string",
          "name": "",
          "type": "string"
        }
      ],
      "stateMutability": "pure",
      "type": "function"
    },
    {
      "inputs": [],
      "name": "EXTENDED_BALLOT_TYPEHASH",
      "outputs": [
        {
          "internalType": "bytes32",
          "name": "",
          "type": "bytes32"
        }
      ],
      "stateMutability": "view",
      "type": "function"
    },
    {
      "inputs": [
        {
          "internalType": "address[]",
          "name": "targets",
          "type": "address[]"
        },
        {
          "internalType": "uint256[]",
          "name": "values",
          "type": "uint256[]"
        },
        {
          "internalType": "bytes[]",
          "name": "calldatas",
          "type": "bytes[]"
        },
        {
          "internalType": "bytes32",
          "name": "descriptionHash",
          "type": "bytes32"
        }
      ],
      "name": "cancel",
      "outputs": [
        {
          "internalType": "uint256",
          "name": "",
          "type": "uint256"
        }
      ],
      "stateMutability": "nonpayable",
      "type": "function"
    },
    {
      "inputs": [
        {
          "internalType": "uint256",
          "name": "proposalId",
          "type": "uint256"
        },
        {
          "internalType": "uint8",
          "name": "support",
          "type": "uint8"
        }
      ],
      "name": "castVote",
      "outputs": [
        {
          "internalType": "uint256",
          "name": "",
          "type": "uint256"
        }
      ],
      "stateMutability": "nonpayable",
      "type": "function"
    },
    {
      "inputs": [
        {
          "internalType": "uint256",
          "name": "proposalId",
          "type": "uint256"
        },
        {
          "internalType": "uint8",
          "name": "support",
          "type": "uint8"
        },
        {
          "internalType": "address",
          "name": "voter",
          "type": "address"
        },
        {
          "internalType": "bytes",
          "name": "signature",
          "type": "bytes"
        }
      ],
      "name": "castVoteBySig",
      "outputs": [
        {
          "internalType": "uint256",
          "name": "",
          "type": "uint256"
        }
      ],
      "stateMutability": "nonpayable",
      "type": "function"
    },
    {
      "inputs": [
        {
          "internalType": "uint256",
          "name": "proposalId",
          "type": "uint256"
        },
        {
          "internalType": "uint8",
          "name": "support",
          "type": "uint8"
        },
        {
          "internalType": "string",
          "name": "reason",
          "type": "string"
        }
      ],
      "name": "castVoteWithReason",
      "outputs": [
        {
          "internalType": "uint256",
          "name": "",
          "type": "uint256"
        }
      ],
      "stateMutability": "nonpayable",
      "type": "function"
    },
    {
      "inputs": [
        {
          "internalType": "uint256",
          "name": "proposalId",
          "type": "uint256"
        },
        {
          "internalType": "uint8",
          "name": "support",
          "type": "uint8"
        },
        {
          "internalType": "string",
          "name": "reason",
          "type": "string"
        },
        {
          "internalType": "bytes",
          "name": "params",
          "type": "bytes"
        }
      ],
      "name": "castVoteWithReasonAndParams",
      "outputs": [
        {
          "internalType": "uint256",
          "name": "",
          "type": "uint256"
        }
      ],
      "stateMutability": "nonpayable",
      "type": "function"
    },
    {
      "inputs": [
        {
          "internalType": "uint256",
          "name": "proposalId",
          "type": "uint256"
        },
        {
          "internalType": "uint8",
          "name": "support",
          "type": "uint8"
        },
        {
          "internalType": "address",
          "name": "voter",
          "type": "address"
        },
        {
          "internalType": "string",
          "name": "reason",
          "type": "string"
        },
        {
          "internalType": "bytes",
          "name": "params",
          "type": "bytes"
        },
        {
          "internalType": "bytes",
          "name": "signature",
          "type": "bytes"
        }
      ],
      "name": "castVoteWithReasonAndParamsBySig",
      "outputs": [
        {
          "internalType": "uint256",
          "name": "",
          "type": "uint256"
        }
      ],
      "stateMutability": "nonpayable",
      "type": "function"
    },
    {
      "inputs": [],
      "name": "clock",
      "outputs": [
        {
          "internalType": "uint48",
          "name": "",
          "type": "uint48"
        }
      ],
      "stateMutability": "view",
      "type": "function"
    },
    {
      "inputs": [],
      "name": "eip712Domain",
      "outputs": [
        {
          "internalType": "bytes1",
          "name": "fields",
          "type": "bytes1"
        },
        {
          "internalType": "string",
          "name": "name",
          "type": "string"
        },
        {
          "internalType": "string",
          "name": "version",
          "type": "string"
        },
        {
          "internalType": "uint256",
          "name": "chainId",
          "type": "uint256"
        },
        {
          "internalType": "address",
          "name": "verifyingContract",
          "type": "address"
        },
        {
          "internalType": "bytes32",
          "name": "salt",
          "type": "bytes32"
        },
        {
          "internalType": "uint256[]",
          "name": "extensions",
          "type": "uint256[]"
        }
      ],
      "stateMutability": "view",
      "type": "function"
    },
    {
      "inputs": [
        {
          "internalType": "address[]",
          "name": "targets",
          "type": "address[]"
        },
        {
          "internalType": "uint256[]",
          "name": "values",
          "type": "uint256[]"
        },
        {
          "internalType": "bytes[]",
          "name": "calldatas",
          "type": "bytes[]"
        },
        {
          "internalType": "bytes32",
          "name": "descriptionHash",
          "type": "bytes32"
        }
      ],
      "name": "execute",
      "outputs": [
        {
          "internalType": "uint256",
          "name": "",
          "type": "uint256"
        }
      ],
      "stateMutability": "payable",
      "type": "function"
    },
    {
      "inputs": [
        {
          "internalType": "address",
          "name": "account",
          "type": "address"
        },
        {
          "internalType": "uint256",
          "name": "timepoint",
          "type": "uint256"
        }
      ],
      "name": "getVotes",
      "outputs": [
        {
          "internalType": "uint256",
          "name": "",
          "type": "uint256"
        }
      ],
      "stateMutability": "view",
      "type": "function"
    },
    {
      "inputs": [
        {
          "internalType": "address",
          "name": "account",
          "type": "address"
        },
        {
          "internalType": "uint256",
          "name": "timepoint",
          "type": "uint256"
        },
        {
          "internalType": "bytes",
          "name": "params",
          "type": "bytes"
        }
      ],
      "name": "getVotesWithParams",
      "outputs": [
        {
          "internalType": "uint256",
          "name": "",
          "type": "uint256"
        }
      ],
      "stateMutability": "view",
      "type": "function"
    },
    {
      "inputs": [
        {
          "internalType": "uint256",
          "name": "proposalId",
          "type": "uint256"
        },
        {
          "internalType": "address",
          "name": "account",
          "type": "address"
        }
      ],
      "name": "hasVoted",
      "outputs": [
        {
          "internalType": "bool",
          "name": "",
          "type": "bool"
        }
      ],
      "stateMutability": "view",
      "type": "function"
    },
    {
      "inputs": [
        {
          "internalType": "address[]",
          "name": "targets",
          "type": "address[]"
        },
        {
          "internalType": "uint256[]",
          "name": "values",
          "type": "uint256[]"
        },
        {
          "internalType": "bytes[]",
          "name": "calldatas",
          "type": "bytes[]"
        },
        {
          "internalType": "bytes32",
          "name": "descriptionHash",
          "type": "bytes32"
        }
      ],
      "name": "hashProposal",
      "outputs": [
        {
          "internalType": "uint256",
          "name": "",
          "type": "uint256"
        }
      ],
      "stateMutability": "pure",
      "type": "function"
    },
    {
      "inputs": [],
      "name": "name",
      "outputs": [
        {
          "internalType": "string",
          "name": "",
          "type": "string"
        }
      ],
      "stateMutability": "view",
      "type": "function"
    },
    {
      "inputs": [
        {
          "internalType": "address",
          "name": "owner",
          "type": "address"
        }
      ],
      "name": "nonces",
      "outputs": [
        {
          "internalType": "uint256",
          "name": "",
          "type": "uint256"
        }
      ],
      "stateMutability": "view",
      "type": "function"
    },
    {
      "inputs": [
        {
          "internalType": "address",
          "name": "",
          "type": "address"
        },
        {
          "internalType": "address",
          "name": "",
          "type": "address"
        },
        {
          "internalType": "uint256[]",
          "name": "",
          "type": "uint256[]"
        },
        {
          "internalType": "uint256[]",
          "name": "",
          "type": "uint256[]"
        },
        {
          "internalType": "bytes",
          "name": "",
          "type": "bytes"
        }
      ],
      "name": "onERC1155BatchReceived",
      "outputs": [
        {
          "internalType": "bytes4",
          "name": "",
          "type": "bytes4"
        }
      ],
      "stateMutability": "nonpayable",
      "type": "function"
    },
    {
      "inputs": [
        {
          "internalType": "address",
          "name": "",
          "type": "address"
        },
        {
          "internalType": "address",
          "name": "",
          "type": "address"
        },
        {
          "internalType": "uint256",
          "name": "",
          "type": "uint256"
        },
        {
          "internalType": "uint256",
          "name": "",
          "type": "uint256"
        },
        {
          "internalType": "bytes",
          "name": "",
          "type": "bytes"
        }
      ],
      "name": "onERC1155Received",
      "outputs": [
        {
          "internalType": "bytes4",
          "name": "",
          "type": "bytes4"
        }
      ],
      "stateMutability": "nonpayable",
      "type": "function"
    },
    {
      "inputs": [
        {
          "internalType": "address",
          "name": "",
          "type": "address"
        },
        {
          "internalType": "address",
          "name": "",
          "type": "address"
        },
        {
          "internalType": "uint256",
          "name": "",
          "type": "uint256"
        },
        {
          "internalType": "bytes",
          "name": "",
          "type": "bytes"
        }
      ],
      "name": "onERC721Received",
      "outputs": [
        {
          "internalType": "bytes4",
          "name": "",
          "type": "bytes4"
        }
      ],
      "stateMutability": "nonpayable",
      "type": "function"
    },
    {
      "inputs": [
        {
          "internalType": "uint256",
          "name": "proposalId",
          "type": "uint256"
        }
      ],
      "name": "proposalDeadline",
      "outputs": [
        {
          "internalType": "uint256",
          "name": "",
          "type": "uint256"
        }
      ],
      "stateMutability": "view",
      "type": "function"
    },
    {
      "inputs": [
        {
          "internalType": "uint256",
          "name": "proposalId",
          "type": "uint256"
        }
      ],
      "name": "proposalEta",
      "outputs": [
        {
          "internalType": "uint256",
          "name": "",
          "type": "uint256"
        }
      ],
      "stateMutability": "view",
      "type": "function"
    },
    {
      "inputs": [
        {
          "internalType": "uint256",
          "name": "",
          "type": "uint256"
        }
      ],
      "name": "proposalNeedsQueuing",
      "outputs": [
        {
          "internalType": "bool",
          "name": "",
          "type": "bool"
        }
      ],
      "stateMutability": "view",
      "type": "function"
    },
    {
      "inputs": [
        {
          "internalType": "uint256",
          "name": "proposalId",
          "type": "uint256"
        }
      ],
      "name": "proposalProposer",
      "outputs": [
        {
          "internalType": "address",
          "name": "",
          "type": "address"
        }
      ],
      "stateMutability": "view",
      "type": "function"
    },
    {
      "inputs": [
        {
          "internalType": "uint256",
          "name": "proposalId",
          "type": "uint256"
        }
      ],
      "name": "proposalSnapshot",
      "outputs": [
        {
          "internalType": "uint256",
          "name": "",
          "type": "uint256"
        }
      ],
      "stateMutability": "view",
      "type": "function"
    },
    {
      "inputs": [],
      "name": "proposalThreshold",
      "outputs": [
        {
          "internalType": "uint256",
          "name": "",
          "type": "uint256"
        }
      ],
      "stateMutability": "view",
      "type": "function"
    },
    {
      "inputs": [
        {
          "internalType": "uint256",
          "name": "proposalId",
          "type": "uint256"
        }
      ],
      "name": "proposalVotes",
      "outputs": [
        {
          "internalType": "uint256",
          "name": "againstVotes",
          "type": "uint256"
        },
        {
          "internalType": "uint256",
          "name": "forVotes",
          "type": "uint256"
        },
        {
          "internalType": "uint256",
          "name": "abstainVotes",
          "type": "uint256"
        }
      ],
      "stateMutability": "view",
      "type": "function"
    },
    {
      "inputs": [
        {
          "internalType": "address[]",
          "name": "targets",
          "type": "address[]"
        },
        {
          "internalType": "uint256[]",
          "name": "values",
          "type": "uint256[]"
        },
        {
          "internalType": "bytes[]",
          "name": "calldatas",
          "type": "bytes[]"
        },
        {
          "internalType": "string",
          "name": "description",
          "type": "string"
        }
      ],
      "name": "propose",
      "outputs": [
        {
          "internalType": "uint256",
          "name": "",
          "type": "uint256"
        }
      ],
      "stateMutability": "nonpayable",
      "type": "function"
    },
    {
      "inputs": [
        {
          "internalType": "address[]",
          "name": "targets",
          "type": "address[]"
        },
        {
          "internalType": "uint256[]",
          "name": "values",
          "type": "uint256[]"
        },
        {
          "internalType": "bytes[]",
          "name": "calldatas",
          "type": "bytes[]"
        },
        {
          "internalType": "bytes32",
          "name": "descriptionHash",
          "type": "bytes32"
        }
      ],
      "name": "queue",
      "outputs": [
        {
          "internalType": "uint256",
          "name": "",
          "type": "uint256"
        }
      ],
      "stateMutability": "nonpayable",
      "type": "function"
    },
    {
      "inputs": [
        {
          "internalType": "uint256",
          "name": "blockNumber",
          "type": "uint256"
        }
      ],
      "name": "quorum",
      "outputs": [
        {
          "internalType": "uint256",
          "name": "",
          "type": "uint256"
        }
      ],
      "stateMutability": "view",
      "type": "function"
    },
    {
      "inputs": [],
      "name": "quorumDenominator",
      "outputs": [
        {
          "internalType": "uint256",
          "name": "",
          "type": "uint256"
        }
      ],
      "stateMutability": "view",
      "type": "function"
    },
    {
      "inputs": [
        {
          "internalType": "uint256",
          "name": "timepoint",
          "type": "uint256"
        }
      ],
      "name": "quorumNumerator",
      "outputs": [
        {
          "internalType": "uint256",
          "name": "",
          "type": "uint256"
        }
      ],
      "stateMutability": "view",
      "type": "function"
    },
    {
      "inputs": [],
      "name": "quorumNumerator",
      "outputs": [
        {
          "internalType": "uint256",
          "name": "",
          "type": "uint256"
        }
      ],
      "stateMutability": "view",
      "type": "function"
    },
    {
      "inputs": [
        {
          "internalType": "address",
          "name": "target",
          "type": "address"
        },
        {
          "internalType": "uint256",
          "name": "value",
          "type": "uint256"
        },
        {
          "internalType": "bytes",
          "name": "data",
          "type": "bytes"
        }
      ],
      "name": "relay",
      "outputs": [],
      "stateMutability": "payable",
      "type": "function"
    },
    {
      "inputs": [
        {
          "internalType": "uint256",
          "name": "newProposalThreshold",
          "type": "uint256"
        }
      ],
      "name": "setProposalThreshold",
      "outputs": [],
      "stateMutability": "nonpayable",
      "type": "function"
    },
    {
      "inputs": [
        {
          "internalType": "uint48",
          "name": "newVotingDelay",
          "type": "uint48"
        }
      ],
      "name": "setVotingDelay",
      "outputs": [],
      "stateMutability": "nonpayable",
      "type": "function"
    },
    {
      "inputs": [
        {
          "internalType": "uint32",
          "name": "newVotingPeriod",
          "type": "uint32"
        }
      ],
      "name": "setVotingPeriod",
      "outputs": [],
      "stateMutability": "nonpayable",
      "type": "function"
    },
    {
      "inputs": [
        {
          "internalType": "uint256",
          "name": "proposalId",
          "type": "uint256"
        }
      ],
      "name": "state",
      "outputs": [
        {
          "internalType": "enum IGovernor.ProposalState",
          "name": "",
          "type": "uint8"
        }
      ],
      "stateMutability": "view",
      "type": "function"
    },
    {
      "inputs": [
        {
          "internalType": "bytes4",
          "name": "interfaceId",
          "type": "bytes4"
        }
      ],
      "name": "supportsInterface",
      "outputs": [
        {
          "internalType": "bool",
          "name": "",
          "type": "bool"
        }
      ],
      "stateMutability": "view",
      "type": "function"
    },
    {
      "inputs": [],
      "name": "token",
      "outputs": [
        {
          "internalType": "contract IERC5805",
          "name": "",
          "type": "address"
        }
      ],
      "stateMutability": "view",
      "type": "function"
    },
    {
      "inputs": [
        {
          "internalType": "uint256",
          "name": "newQuorumNumerator",
          "type": "uint256"
        }
      ],
      "name": "updateQuorumNumerator",
      "outputs": [],
      "stateMutability": "nonpayable",
      "type": "function"
    },
    {
      "inputs": [],
      "name": "version",
      "outputs": [
        {
          "internalType": "string",
          "name": "",
          "type": "string"
        }
      ],
      "stateMutability": "view",
      "type": "function"
    },
    {
      "inputs": [],
      "name": "votingDelay",
      "outputs": [
        {
          "internalType": "uint256",
          "name": "",
          "type": "uint256"
        }
      ],
      "stateMutability": "view",
      "type": "function"
    },
    {
      "inputs": [],
      "name": "votingPeriod",
      "outputs": [
        {
          "internalType": "uint256",
          "name": "",
          "type": "uint256"
        }
      ],
      "stateMutability": "view",
      "type": "function"
    },
    {
      "stateMutability": "payable",
      "type": "receive"
    }
  ],
  "bytecode": "0x6101806040523480156200001257600080fd5b5060405162007c9338038062007c93833981810160405281019062000038919062000c38565b6001816001603260006040518060400160405280601281526020017f476f7665726e616e6365436f6e747261637400000000000000000000000000008152508062000088620001d060201b60201c565b6200009e6000836200020d60201b90919060201c565b6101208181525050620000bc6001826200020d60201b90919060201c565b6101408181525050818051906020012060e08181525050808051906020012061010081815250504660a08181525050620000fb6200026560201b60201c565b608081815250503073ffffffffffffffffffffffffffffffffffffffff1660c08173ffffffffffffffffffffffffffffffffffffffff16815250505050806003908162000149919062000ee4565b50506200015c83620002c260201b60201c565b6200016d826200033960201b60201c565b6200017e81620003f960201b60201c565b5050508073ffffffffffffffffffffffffffffffffffffffff166101608173ffffffffffffffffffffffffffffffffffffffff168152505050620001c8816200044060201b60201c565b5050620014ef565b60606040518060400160405280600181526020017f3100000000000000000000000000000000000000000000000000000000000000815250905090565b600060208351101562000233576200022b836200052b60201b60201c565b90506200025f565b8262000245836200059860201b60201c565b600001908162000256919062000ee4565b5060ff60001b90505b92915050565b60007f8b73c3c69bb8fe3d512ecc4cf759cc79239f7b179b0ffacaa9a75d522b39400f60e051610100514630604051602001620002a795949392919062001008565b60405160208183030381529060405280519060200120905090565b7fc565b045403dc03c2eea82b81a0465edad9e2e7fc4d97e11421c209da93d7a93600860009054906101000a900465ffffffffffff168260405162000309929190620010b0565b60405180910390a180600860006101000a81548165ffffffffffff021916908365ffffffffffff16021790555050565b60008163ffffffff1603620003885760006040517ff1cfbf050000000000000000000000000000000000000000000000000000000081526004016200037f919062001120565b60405180910390fd5b7f7e3f7f0708a84de9203036abaa450dccc85ad5ff52f78c170f3edb55cf5e8828600860069054906101000a900463ffffffff1682604051620003cd92919062001186565b60405180910390a180600860066101000a81548163ffffffff021916908363ffffffff16021790555050565b7fccb45da8d5717e6c4544694297c4ba5cf151d455c9bb0ed4fc7a38411bc05461600754826040516200042e929190620011b3565b60405180910390a18060078190555050565b600062000452620005a260201b60201c565b9050808211156200049e5781816040517f243e544500000000000000000000000000000000000000000000000000000000815260040162000495929190620011b3565b60405180910390fd5b6000620004b0620005ab60201b60201c565b9050620004e9620004c6620005e060201b60201c565b620004d7856200068160201b60201c565b600a620006f260201b9092919060201c565b50507f0553476bf02ef2726e8ce5ced78d63e26e602e4a2257b1f559418e24b463399781846040516200051e929190620011b3565b60405180910390a1505050565b600080829050601f815111156200057b57826040517f305a27a90000000000000000000000000000000000000000000000000000000081526004016200057291906200126f565b60405180910390fd5b8051816200058990620012c5565b60001c1760001b915050919050565b6000819050919050565b60006064905090565b6000620005bf600a6200071760201b60201c565b79ffffffffffffffffffffffffffffffffffffffffffffffffffff16905090565b6000620005f26200078b60201b60201c565b73ffffffffffffffffffffffffffffffffffffffff166391ddadf46040518163ffffffff1660e01b8152600401602060405180830381865afa9250505080156200065c57506040513d601f19601f8201168201806040525081019062000659919062001366565b60015b6200067957620006716200079660201b60201c565b90506200067e565b809150505b90565b600079ffffffffffffffffffffffffffffffffffffffffffffffffffff8016821115620006ea5760d0826040517f6dfcc650000000000000000000000000000000000000000000000000000000008152600401620006e1929190620013e8565b60405180910390fd5b819050919050565b6000806200070b856000018585620007ae60201b60201c565b91509150935093915050565b60008082600001805490509050600081146200078057620007508360000160018362000744919062001444565b62000b4860201b60201c565b60000160069054906101000a900479ffffffffffffffffffffffffffffffffffffffffffffffffffff1662000783565b60005b915050919050565b600061016051905090565b6000620007a94362000b5d60201b60201c565b905090565b600080600085805490509050600081111562000a58576000620007e687600184620007da919062001444565b62000b4860201b60201c565b6040518060400160405290816000820160009054906101000a900465ffffffffffff1665ffffffffffff1665ffffffffffff1681526020016000820160069054906101000a900479ffffffffffffffffffffffffffffffffffffffffffffffffffff1679ffffffffffffffffffffffffffffffffffffffffffffffffffff1679ffffffffffffffffffffffffffffffffffffffffffffffffffff168152505090508565ffffffffffff16816000015165ffffffffffff161115620008d6576040517f2520601d00000000000000000000000000000000000000000000000000000000815260040160405180910390fd5b8565ffffffffffff16816000015165ffffffffffff1603620009665784620009138860018562000907919062001444565b62000b4860201b60201c565b60000160066101000a81548179ffffffffffffffffffffffffffffffffffffffffffffffffffff021916908379ffffffffffffffffffffffffffffffffffffffffffffffffffff16021790555062000a46565b8660405180604001604052808865ffffffffffff1681526020018779ffffffffffffffffffffffffffffffffffffffffffffffffffff168152509080600181540180825580915050600190039060005260206000200160009091909190915060008201518160000160006101000a81548165ffffffffffff021916908365ffffffffffff16021790555060208201518160000160066101000a81548179ffffffffffffffffffffffffffffffffffffffffffffffffffff021916908379ffffffffffffffffffffffffffffffffffffffffffffffffffff16021790555050505b80602001518593509350505062000b40565b8560405180604001604052808765ffffffffffff1681526020018679ffffffffffffffffffffffffffffffffffffffffffffffffffff168152509080600181540180825580915050600190039060005260206000200160009091909190915060008201518160000160006101000a81548165ffffffffffff021916908365ffffffffffff16021790555060208201518160000160066101000a81548179ffffffffffffffffffffffffffffffffffffffffffffffffffff021916908379ffffffffffffffffffffffffffffffffffffffffffffffffffff160217905550505060008492509250505b935093915050565b60008260005281602060002001905092915050565b600065ffffffffffff801682111562000bb2576030826040517f6dfcc65000000000000000000000000000000000000000000000000000000000815260040162000ba9929190620014c2565b60405180910390fd5b819050919050565b600080fd5b600073ffffffffffffffffffffffffffffffffffffffff82169050919050565b600062000bec8262000bbf565b9050919050565b600062000c008262000bdf565b9050919050565b62000c128162000bf3565b811462000c1e57600080fd5b50565b60008151905062000c328162000c07565b92915050565b60006020828403121562000c515762000c5062000bba565b5b600062000c618482850162000c21565b91505092915050565b600081519050919050565b7f4e487b7100000000000000000000000000000000000000000000000000000000600052604160045260246000fd5b7f4e487b7100000000000000000000000000000000000000000000000000000000600052602260045260246000fd5b6000600282049050600182168062000cec57607f821691505b60208210810362000d025762000d0162000ca4565b5b50919050565b60008190508160005260206000209050919050565b60006020601f8301049050919050565b600082821b905092915050565b60006008830262000d6c7fffffffffffffffffffffffffffffffffffffffffffffffffffffffffffffffff8262000d2d565b62000d78868362000d2d565b95508019841693508086168417925050509392505050565b6000819050919050565b6000819050919050565b600062000dc562000dbf62000db98462000d90565b62000d9a565b62000d90565b9050919050565b6000819050919050565b62000de18362000da4565b62000df962000df08262000dcc565b84845462000d3a565b825550505050565b600090565b62000e1062000e01565b62000e1d81848462000dd6565b505050565b5b8181101562000e455762000e3960008262000e06565b60018101905062000e23565b5050565b601f82111562000e945762000e5e8162000d08565b62000e698462000d1d565b8101602085101562000e79578190505b62000e9162000e888562000d1d565b83018262000e22565b50505b505050565b600082821c905092915050565b600062000eb96000198460080262000e99565b1980831691505092915050565b600062000ed4838362000ea6565b9150826002028217905092915050565b62000eef8262000c6a565b67ffffffffffffffff81111562000f0b5762000f0a62000c75565b5b62000f17825462000cd3565b62000f2482828562000e49565b600060209050601f83116001811462000f5c576000841562000f47578287015190505b62000f53858262000ec6565b86555062000fc3565b601f19841662000f6c8662000d08565b60005b8281101562000f965784890151825560018201915060208501945060208101905062000f6f565b8683101562000fb6578489015162000fb2601f89168262000ea6565b8355505b6001600288020188555050505b505050505050565b6000819050919050565b62000fe08162000fcb565b82525050565b62000ff18162000d90565b82525050565b620010028162000bdf565b82525050565b600060a0820190506200101f600083018862000fd5565b6200102e602083018762000fd5565b6200103d604083018662000fd5565b6200104c606083018562000fe6565b6200105b608083018462000ff7565b9695505050505050565b600065ffffffffffff82169050919050565b600062001098620010926200108c8462001065565b62000d9a565b62000d90565b9050919050565b620010aa8162001077565b82525050565b6000604082019050620010c760008301856200109f565b620010d660208301846200109f565b9392505050565b6000819050919050565b60006200110862001102620010fc84620010dd565b62000d9a565b62000d90565b9050919050565b6200111a81620010e7565b82525050565b60006020820190506200113760008301846200110f565b92915050565b600063ffffffff82169050919050565b60006200116e6200116862001162846200113d565b62000d9a565b62000d90565b9050919050565b62001180816200114d565b82525050565b60006040820190506200119d600083018562001175565b620011ac602083018462001175565b9392505050565b6000604082019050620011ca600083018562000fe6565b620011d9602083018462000fe6565b9392505050565b600082825260208201905092915050565b60005b8381101562001211578082015181840152602081019050620011f4565b60008484015250505050565b6000601f19601f8301169050919050565b60006200123b8262000c6a565b620012478185620011e0565b935062001259818560208601620011f1565b62001264816200121d565b840191505092915050565b600060208201905081810360008301526200128b81846200122e565b905092915050565b600081519050919050565b6000819050602082019050919050565b6000620012bc825162000fcb565b80915050919050565b6000620012d28262001293565b82620012de846200129e565b9050620012eb81620012ae565b925060208210156200132e57620013297fffffffffffffffffffffffffffffffffffffffffffffffffffffffffffffffff8360200360080262000d2d565b831692505b5050919050565b620013408162001065565b81146200134c57600080fd5b50565b600081519050620013608162001335565b92915050565b6000602082840312156200137f576200137e62000bba565b5b60006200138f848285016200134f565b91505092915050565b6000819050919050565b600060ff82169050919050565b6000620013d0620013ca620013c48462001398565b62000d9a565b620013a2565b9050919050565b620013e281620013af565b82525050565b6000604082019050620013ff6000830185620013d7565b6200140e602083018462000fe6565b9392505050565b7f4e487b7100000000000000000000000000000000000000000000000000000000600052601160045260246000fd5b6000620014518262000d90565b91506200145e8362000d90565b925082820390508181111562001479576200147862001415565b5b92915050565b6000819050919050565b6000620014aa620014a46200149e846200147f565b62000d9a565b620013a2565b9050919050565b620014bc8162001489565b82525050565b6000604082019050620014d96000830185620014b1565b620014e8602083018462000fe6565b9392505050565b60805160a05160c05160e0516101005161012051610140516101605161673e62001555600039600061200d01526000612fa201526000612f67015260006140700152600061404f015260006134ca0152600061352001526000613549015261673e6000f3fe6080604052600436106102815760003560e01c80637d5e81e21161014f578063bc197c81116100c1578063e540d01d1161007a578063e540d01d14610b49578063eb9019d414610b72578063ece40cc114610baf578063f23a6e6114610bd8578063f8ce560a14610c15578063fc0c546a14610c52576102f4565b8063bc197c8114610a20578063c01f9e3714610a5d578063c28bc2fa14610a9a578063c59057e414610ab6578063dd4e2ba514610af3578063deaaa7cc14610b1e576102f4565b806397c3d3341161011357806397c3d334146108e85780639a802a6d14610913578063a7713a7014610950578063a9a952941461097b578063ab58fb8e146109b8578063b58131b0146109f5576102f4565b80637d5e81e2146107d55780637ecebe001461081257806384b0196e1461084f5780638ff262e31461088057806391ddadf4146108bd576102f4565b80633e4f49e6116101f357806356781388116101ac578063567813881461067b5780635b8d0e0d146106b85780635f398a14146106f557806360c4247f14610732578063790518871461076f5780637b3c71d314610798576102f4565b80633e4f49e61461052f578063438596321461056c578063452115d6146105a95780634bf5d7e9146105e6578063544ffc9c1461061157806354fd4d5014610650576102f4565b8063150b7a0211610245578063150b7a02146103f2578063160cbed71461042f5780632656227d1461046c5780632d63f6931461049c5780632fe3e261146104d95780633932abb114610504576102f4565b806301ffc9a7146102f957806302a251a31461033657806306f3f9e61461036157806306fdde031461038a578063143489d0146103b5576102f4565b366102f4573073ffffffffffffffffffffffffffffffffffffffff166102a5610c7d565b73ffffffffffffffffffffffffffffffffffffffff16146102f2576040517fe90a651e00000000000000000000000000000000000000000000000000000000815260040160405180910390fd5b005b600080fd5b34801561030557600080fd5b50610320600480360381019061031b9190614404565b610c85565b60405161032d919061444c565b60405180910390f35b34801561034257600080fd5b5061034b610d67565b6040516103589190614480565b60405180910390f35b34801561036d57600080fd5b50610388600480360381019061038391906144c7565b610d76565b005b34801561039657600080fd5b5061039f610d8a565b6040516103ac9190614584565b60405180910390f35b3480156103c157600080fd5b506103dc60048036038101906103d791906144c7565b610e1c565b6040516103e991906145e7565b60405180910390f35b3480156103fe57600080fd5b5061041960048036038101906104149190614763565b610e5c565b60405161042691906147f5565b60405180910390f35b34801561043b57600080fd5b5061045660048036038101906104519190614ab2565b610edc565b6040516104639190614480565b60405180910390f35b61048660048036038101906104819190614ab2565b610fd8565b6040516104939190614480565b60405180910390f35b3480156104a857600080fd5b506104c360048036038101906104be91906144c7565b6111b7565b6040516104d09190614480565b60405180910390f35b3480156104e557600080fd5b506104ee6111f1565b6040516104fb9190614b7c565b60405180910390f35b34801561051057600080fd5b50610519611215565b6040516105269190614480565b60405180910390f35b34801561053b57600080fd5b50610556600480360381019061055191906144c7565b611224565b6040516105639190614c0e565b60405180910390f35b34801561057857600080fd5b50610593600480360381019061058e9190614c29565b611388565b6040516105a0919061444c565b60405180910390f35b3480156105b557600080fd5b506105d060048036038101906105cb9190614ab2565b6113f3565b6040516105dd9190614480565b60405180910390f35b3480156105f257600080fd5b506105fb6114b5565b6040516106089190614584565b60405180910390f35b34801561061d57600080fd5b50610638600480360381019061063391906144c7565b611574565b60405161064793929190614c69565b60405180910390f35b34801561065c57600080fd5b506106656115ac565b6040516106729190614584565b60405180910390f35b34801561068757600080fd5b506106a2600480360381019061069d9190614cd9565b6115e9565b6040516106af9190614480565b60405180910390f35b3480156106c457600080fd5b506106df60048036038101906106da9190614d74565b61161a565b6040516106ec9190614480565b60405180910390f35b34801561070157600080fd5b5061071c60048036038101906107179190614e5b565b61174b565b6040516107299190614480565b60405180910390f35b34801561073e57600080fd5b50610759600480360381019061075491906144c7565b6117b5565b6040516107669190614480565b60405180910390f35b34801561077b57600080fd5b5061079660048036038101906107919190614f3d565b6118b9565b005b3480156107a457600080fd5b506107bf60048036038101906107ba9190614f6a565b6118cd565b6040516107cc9190614480565b60405180910390f35b3480156107e157600080fd5b506107fc60048036038101906107f7919061507f565b611935565b6040516108099190614480565b60405180910390f35b34801561081e57600080fd5b5061083960048036038101906108349190615156565b611a25565b6040516108469190614480565b60405180910390f35b34801561085b57600080fd5b50610864611a6e565b604051610877979695949392919061527c565b60405180910390f35b34801561088c57600080fd5b506108a760048036038101906108a29190615300565b611b18565b6040516108b49190614480565b60405180910390f35b3480156108c957600080fd5b506108d2611bee565b6040516108df9190615392565b60405180910390f35b3480156108f457600080fd5b506108fd611c7a565b60405161090a9190614480565b60405180910390f35b34801561091f57600080fd5b5061093a600480360381019061093591906153ad565b611c83565b6040516109479190614480565b60405180910390f35b34801561095c57600080fd5b50610965611c99565b6040516109729190614480565b60405180910390f35b34801561098757600080fd5b506109a2600480360381019061099d91906144c7565b611cc6565b6040516109af919061444c565b60405180910390f35b3480156109c457600080fd5b506109df60048036038101906109da91906144c7565b611ccd565b6040516109ec9190614480565b60405180910390f35b348015610a0157600080fd5b50610a0a611d07565b604051610a179190614480565b60405180910390f35b348015610a2c57600080fd5b50610a476004803603810190610a42919061541c565b611d16565b604051610a5491906147f5565b60405180910390f35b348015610a6957600080fd5b50610a846004803603810190610a7f91906144c7565b611d97565b604051610a919190614480565b60405180910390f35b610ab46004803603810190610aaf9190615541565b611e08565b005b348015610ac257600080fd5b50610add6004803603810190610ad89190614ab2565b611e95565b604051610aea9190614480565b60405180910390f35b348015610aff57600080fd5b50610b08611ed1565b604051610b159190614584565b60405180910390f35b348015610b2a57600080fd5b50610b33611f0e565b604051610b409190614b7c565b60405180910390f35b348015610b5557600080fd5b50610b706004803603810190610b6b91906155f1565b611f32565b005b348015610b7e57600080fd5b50610b996004803603810190610b94919061561e565b611f46565b604051610ba69190614480565b60405180910390f35b348015610bbb57600080fd5b50610bd66004803603810190610bd191906144c7565b611f62565b005b348015610be457600080fd5b50610bff6004803603810190610bfa919061565e565b611f76565b604051610c0c91906147f5565b60405180910390f35b348015610c2157600080fd5b50610c3c6004803603810190610c3791906144c7565b611ff7565b604051610c499190614480565b60405180910390f35b348015610c5e57600080fd5b50610c67612009565b604051610c749190615754565b60405180910390f35b600030905090565b60007f65455a86000000000000000000000000000000000000000000000000000000007bffffffffffffffffffffffffffffffffffffffffffffffffffffffff1916827bffffffffffffffffffffffffffffffffffffffffffffffffffffffff19161480610d5057507f4e2312e0000000000000000000000000000000000000000000000000000000007bffffffffffffffffffffffffffffffffffffffffffffffffffffffff1916827bffffffffffffffffffffffffffffffffffffffffffffffffffffffff1916145b80610d605750610d5f82612031565b5b9050919050565b6000610d7161209b565b905090565b610d7e6120bb565b610d87816121b1565b50565b606060038054610d999061579e565b80601f0160208091040260200160405190810160405280929190818152602001828054610dc59061579e565b8015610e125780601f10610de757610100808354040283529160200191610e12565b820191906000526020600020905b815481529060010190602001808311610df557829003601f168201915b5050505050905090565b60006004600083815260200190815260200160002060000160009054906101000a900473ffffffffffffffffffffffffffffffffffffffff169050919050565b60003073ffffffffffffffffffffffffffffffffffffffff16610e7d610c7d565b73ffffffffffffffffffffffffffffffffffffffff1614610eca576040517fe90a651e00000000000000000000000000000000000000000000000000000000815260040160405180910390fd5b63150b7a0260e01b9050949350505050565b600080610eeb86868686611e95565b9050610f0081610efb6004612275565b61229b565b506000610f108288888888612308565b905060008165ffffffffffff1614610f9957806004600084815260200190815260200160002060010160006101000a81548165ffffffffffff021916908365ffffffffffff1602179055507f9a2e42fd6722813d69113e7d0079d3d940171428df7373df9c7f7617cfda28928282604051610f8c929190615800565b60405180910390a1610fcb565b6040517f90884a4600000000000000000000000000000000000000000000000000000000815260040160405180910390fd5b8192505050949350505050565b600080610fe786868686611e95565b905061100781610ff76005612275565b6110016004612275565b1761229b565b50600160046000838152602001908152602001600020600001601e6101000a81548160ff0219169083151502179055503073ffffffffffffffffffffffffffffffffffffffff16611056610c7d565b73ffffffffffffffffffffffffffffffffffffffff161461110d5760005b865181101561110b573073ffffffffffffffffffffffffffffffffffffffff168782815181106110a7576110a6615829565b5b602002602001015173ffffffffffffffffffffffffffffffffffffffff1603611100576110ff8582815181106110e0576110df615829565b5b602002602001015180519060200120600561231390919063ffffffff16565b5b806001019050611074565b505b61111a8187878787612439565b3073ffffffffffffffffffffffffffffffffffffffff16611139610c7d565b73ffffffffffffffffffffffffffffffffffffffff161415801561116457506111626005612523565b155b15611174576111736005612593565b5b7f712ae1383f79ac853f8d882153778e0260ef8f03b504e2866e0593e04d2b291f816040516111a39190614480565b60405180910390a180915050949350505050565b60006004600083815260200190815260200160002060000160149054906101000a900465ffffffffffff1665ffffffffffff169050919050565b7f3e83946653575f9a39005e1545185629e92736b7528ab20ca3816f315424a81181565b600061121f61260e565b905090565b600080600460008481526020019081526020016000209050600081600001601e9054906101000a900460ff169050600082600001601f9054906101000a900460ff169050811561127a5760079350505050611383565b801561128c5760029350505050611383565b6000611297866111b7565b9050600081036112de57856040517f6ad060750000000000000000000000000000000000000000000000000000000081526004016112d59190614480565b60405180910390fd5b60006112e8611bee565b65ffffffffffff16905080821061130757600095505050505050611383565b600061131288611d97565b905081811061132a5760019650505050505050611383565b61133388612632565b1580611345575061134388612679565b155b156113595760039650505050505050611383565b600061136489611ccd565b036113785760049650505050505050611383565b600596505050505050505b919050565b60006009600084815260200190815260200160002060030160008373ffffffffffffffffffffffffffffffffffffffff1673ffffffffffffffffffffffffffffffffffffffff16815260200190815260200160002060009054906101000a900460ff16905092915050565b60008061140286868686611e95565b9050611417816114126000612275565b61229b565b5061142181610e1c565b73ffffffffffffffffffffffffffffffffffffffff1661143f6126a4565b73ffffffffffffffffffffffffffffffffffffffff161461149e576114626126a4565b6040517f233d98e300000000000000000000000000000000000000000000000000000000815260040161149591906145e7565b60405180910390fd5b6114aa868686866126ac565b915050949350505050565b60606114bf612009565b73ffffffffffffffffffffffffffffffffffffffff16634bf5d7e96040518163ffffffff1660e01b8152600401600060405180830381865afa92505050801561152b57506040513d6000823e3d601f19601f8201168201806040525081019061152891906158c8565b60015b61156c576040518060400160405280601d81526020017f6d6f64653d626c6f636b6e756d6265722666726f6d3d64656661756c740000008152509050611571565b809150505b90565b600080600080600960008681526020019081526020016000209050806000015481600101548260020154935093509350509193909250565b60606040518060400160405280600181526020017f3100000000000000000000000000000000000000000000000000000000000000815250905090565b6000806115f46126a4565b905061161184828560405180602001604052806000815250612793565b91505092915050565b6000806116a8876116a27f3e83946653575f9a39005e1545185629e92736b7528ab20ca3816f315424a8118c8c8c6116518e6127b3565b8d8d604051611661929190615941565b60405180910390208c805190602001206040516020016116879796959493929190615969565b6040516020818303038152906040528051906020012061280a565b85612824565b9050806116ec57866040517f94ab6c070000000000000000000000000000000000000000000000000000000081526004016116e391906145e7565b60405180910390fd5b61173d89888a89898080601f016020809104026020016040519081016040528093929190818152602001838380828437600081840152601f19601f82011690508083019250505050505050886128b4565b915050979650505050505050565b6000806117566126a4565b90506117a987828888888080601f016020809104026020016040519081016040528093929190818152602001838380828437600081840152601f19601f82011690508083019250505050505050876128b4565b91505095945050505050565b600080600a6000018054905090506000600a6000016001836117d79190615a07565b815481106117e8576117e7615829565b5b90600052602060002001905060008160000160009054906101000a900465ffffffffffff16905060008260000160069054906101000a900479ffffffffffffffffffffffffffffffffffffffffffffffffffff169050858265ffffffffffff1611611875578079ffffffffffffffffffffffffffffffffffffffffffffffffffff169450505050506118b4565b611891611881876129b4565b600a612a0e90919063ffffffff16565b79ffffffffffffffffffffffffffffffffffffffffffffffffffff169450505050505b919050565b6118c16120bb565b6118ca81612b08565b50565b6000806118d86126a4565b905061192a86828787878080601f016020809104026020016040519081016040528093929190818152602001838380828437600081840152601f19601f82011690508083019250505050505050612793565b915050949350505050565b6000806119406126a4565b905061194c8184612b7d565b61198d57806040517fd9b3955700000000000000000000000000000000000000000000000000000000815260040161198491906145e7565b60405180910390fd5b60006119b482600161199d611bee565b6119a79190615a3b565b65ffffffffffff16611f46565b905060006119c0611d07565b905080821015611a0b578282826040517fc242ee16000000000000000000000000000000000000000000000000000000008152600401611a0293929190615a75565b60405180910390fd5b611a188888888887612cc9565b9350505050949350505050565b6000600260008373ffffffffffffffffffffffffffffffffffffffff1673ffffffffffffffffffffffffffffffffffffffff168152602001908152602001600020549050919050565b600060608060008060006060611a82612f5e565b611a8a612f99565b46306000801b600067ffffffffffffffff811115611aab57611aaa614638565b5b604051908082528060200260200182016040528015611ad95781602001602082028036833780820191505090505b507f0f00000000000000000000000000000000000000000000000000000000000000959493929190965096509650965096509650965090919293949596565b600080611b8484611b7e7ff2aad550cf55f045cb27e9c559f9889fdfb6e6cdaa032301d6ea397784ae51d7898989611b4f8b6127b3565b604051602001611b63959493929190615aac565b6040516020818303038152906040528051906020012061280a565b85612824565b905080611bc857836040517f94ab6c07000000000000000000000000000000000000000000000000000000008152600401611bbf91906145e7565b60405180910390fd5b611be386858760405180602001604052806000815250612793565b915050949350505050565b6000611bf8612009565b73ffffffffffffffffffffffffffffffffffffffff166391ddadf46040518163ffffffff1660e01b8152600401602060405180830381865afa925050508015611c5f57506040513d601f19601f82011682018060405250810190611c5c9190615b14565b60015b611c7257611c6b612fd4565b9050611c77565b809150505b90565b60006064905090565b6000611c90848484612fe4565b90509392505050565b6000611ca5600a613072565b79ffffffffffffffffffffffffffffffffffffffffffffffffffff16905090565b6000919050565b60006004600083815260200190815260200160002060010160009054906101000a900465ffffffffffff1665ffffffffffff169050919050565b6000611d116130da565b905090565b60003073ffffffffffffffffffffffffffffffffffffffff16611d37610c7d565b73ffffffffffffffffffffffffffffffffffffffff1614611d84576040517fe90a651e00000000000000000000000000000000000000000000000000000000815260040160405180910390fd5b63bc197c8160e01b905095945050505050565b600060046000838152602001908152602001600020600001601a9054906101000a900463ffffffff1663ffffffff166004600084815260200190815260200160002060000160149054906101000a900465ffffffffffff16611df99190615b41565b65ffffffffffff169050919050565b611e106120bb565b6000808573ffffffffffffffffffffffffffffffffffffffff16858585604051611e3b929190615941565b60006040518083038185875af1925050503d8060008114611e78576040519150601f19603f3d011682016040523d82523d6000602084013e611e7d565b606091505b5091509150611e8c82826130e4565b50505050505050565b600084848484604051602001611eae9493929190615d50565b6040516020818303038152906040528051906020012060001c9050949350505050565b60606040518060400160405280602081526020017f737570706f72743d627261766f2671756f72756d3d666f722c6162737461696e815250905090565b7ff2aad550cf55f045cb27e9c559f9889fdfb6e6cdaa032301d6ea397784ae51d781565b611f3a6120bb565b611f4381613108565b50565b6000611f5a8383611f556131c3565b612fe4565b905092915050565b611f6a6120bb565b611f73816131da565b50565b60003073ffffffffffffffffffffffffffffffffffffffff16611f97610c7d565b73ffffffffffffffffffffffffffffffffffffffff1614611fe4576040517fe90a651e00000000000000000000000000000000000000000000000000000000815260040160405180910390fd5b63f23a6e6160e01b905095945050505050565b60006120028261321f565b9050919050565b60007f0000000000000000000000000000000000000000000000000000000000000000905090565b60007f01ffc9a7000000000000000000000000000000000000000000000000000000007bffffffffffffffffffffffffffffffffffffffffffffffffffffffff1916827bffffffffffffffffffffffffffffffffffffffffffffffffffffffff1916149050919050565b6000600860069054906101000a900463ffffffff1663ffffffff16905090565b6120c36126a4565b73ffffffffffffffffffffffffffffffffffffffff166120e1610c7d565b73ffffffffffffffffffffffffffffffffffffffff1614612140576121046126a4565b6040517f47096e4700000000000000000000000000000000000000000000000000000000815260040161213791906145e7565b60405180910390fd5b3073ffffffffffffffffffffffffffffffffffffffff1661215f610c7d565b73ffffffffffffffffffffffffffffffffffffffff16146121af5760006121846132ce565b604051612192929190615941565b604051809103902090505b806121a860056132db565b0361219d57505b565b60006121bb611c7a565b9050808211156122045781816040517f243e54450000000000000000000000000000000000000000000000000000000081526004016121fb929190615daa565b60405180910390fd5b600061220e611c99565b905061223561221b611bee565b6122248561343b565b600a6134a99092919063ffffffff16565b50507f0553476bf02ef2726e8ce5ced78d63e26e602e4a2257b1f559418e24b46339978184604051612268929190615daa565b60405180910390a1505050565b600081600781111561228a57612289614b97565b5b60ff166001901b60001b9050919050565b6000806122a784611224565b90506000801b836122b783612275565b16036122fe578381846040517f31b75e4d0000000000000000000000000000000000000000000000000000000081526004016122f593929190615dd3565b60405180910390fd5b8091505092915050565b600095945050505050565b60008260000160109054906101000a90046fffffffffffffffffffffffffffffffff1690508260000160009054906101000a90046fffffffffffffffffffffffffffffffff166fffffffffffffffffffffffffffffffff16600182016fffffffffffffffffffffffffffffffff16036123b8576040517f8acb5f2700000000000000000000000000000000000000000000000000000000815260040160405180910390fd5b81836001016000836fffffffffffffffffffffffffffffffff166fffffffffffffffffffffffffffffffff16815260200190815260200160002081905550600181018360000160106101000a8154816fffffffffffffffffffffffffffffffff02191690836fffffffffffffffffffffffffffffffff160217905550505050565b60005b845181101561251b5760008086838151811061245b5761245a615829565b5b602002602001015173ffffffffffffffffffffffffffffffffffffffff1686848151811061248c5761248b615829565b5b60200260200101518685815181106124a7576124a6615829565b5b60200260200101516040516124bc9190615e3b565b60006040518083038185875af1925050503d80600081146124f9576040519150601f19603f3d011682016040523d82523d6000602084013e6124fe565b606091505b509150915061250d82826130e4565b50505080600101905061243c565b505050505050565b60008160000160009054906101000a90046fffffffffffffffffffffffffffffffff166fffffffffffffffffffffffffffffffff168260000160109054906101000a90046fffffffffffffffffffffffffffffffff166fffffffffffffffffffffffffffffffff16149050919050565b60008160000160006101000a8154816fffffffffffffffffffffffffffffffff02191690836fffffffffffffffffffffffffffffffff16021790555060008160000160106101000a8154816fffffffffffffffffffffffffffffffff02191690836fffffffffffffffffffffffffffffffff16021790555050565b6000600860009054906101000a900465ffffffffffff1665ffffffffffff16905090565b6000806009600084815260200190815260200160002090508060020154816001015461265e9190615e52565b61266f61266a856111b7565b611ff7565b1115915050919050565b6000806009600084815260200190815260200160002090508060000154816001015411915050919050565b600033905090565b6000806126bb86868686611e95565b9050612720816126cb6007612275565b6126d56006612275565b6126df6002612275565b6001806007808111156126f5576126f4614b97565b5b6126ff9190615e86565b600261270b9190615fee565b6127159190615a07565b60001b18181861229b565b50600160046000838152602001908152602001600020600001601f6101000a81548160ff0219169083151502179055507f789cf55be980739dad1d0699b93b58e806b51c9d96619bfa8fe0a28abaa7b30c8160405161277f9190614480565b60405180910390a180915050949350505050565b60006127a9858585856127a46131c3565b6128b4565b9050949350505050565b6000600260008373ffffffffffffffffffffffffffffffffffffffff1673ffffffffffffffffffffffffffffffffffffffff1681526020019081526020016000206000815480929190600101919050559050919050565b600061281d6128176134c6565b8361357d565b9050919050565b600080600061283385856135be565b50915091506000600381111561284c5761284b614b97565b5b81600381111561285f5761285e614b97565b5b14801561289757508573ffffffffffffffffffffffffffffffffffffffff168273ffffffffffffffffffffffffffffffffffffffff16145b806128a957506128a886868661361a565b5b925050509392505050565b60006128c9866128c46001612275565b61229b565b5060006128df866128d9896111b7565b85612fe4565b90506128ee878787848761373e565b6000835103612950578573ffffffffffffffffffffffffffffffffffffffff167fb8e138887d0aa13bab447e82de9d5c1777041ecd21ca36ba824ff1e6c07ddda4888784886040516129439493929190616039565b60405180910390a26129a7565b8573ffffffffffffffffffffffffffffffffffffffff167fe2babfbac5889a709b63bb7f598b324e08bc5a4fb9ec647fb3cbc9ec07eb8712888784888860405161299e9594939291906160cf565b60405180910390a25b8091505095945050505050565b600065ffffffffffff8016821115612a06576030826040517f6dfcc6500000000000000000000000000000000000000000000000000000000081526004016129fd92919061616b565b60405180910390fd5b819050919050565b600080836000018054905090506000808290506005831115612a96576000612a358461393b565b84612a409190615a07565b9050612a4f8760000182613a34565b60000160009054906101000a900465ffffffffffff1665ffffffffffff168665ffffffffffff161015612a8457809150612a94565b600181612a919190615e52565b92505b505b6000612aa787600001878585613a49565b905060008114612af957612aca87600001600183612ac59190615a07565b613a34565b60000160069054906101000a900479ffffffffffffffffffffffffffffffffffffffffffffffffffff16612afc565b60005b94505050505092915050565b7fc565b045403dc03c2eea82b81a0465edad9e2e7fc4d97e11421c209da93d7a93600860009054906101000a900465ffffffffffff1682604051612b4d929190616194565b60405180910390a180600860006101000a81548165ffffffffffff021916908365ffffffffffff16021790555050565b600080825190506034811015612b97576001915050612cc3565b60006014820384015190507f2370726f706f7365723d3078000000000000000000000000000000000000000073ffffffffffffffffffffffffffffffffffffffff19168173ffffffffffffffffffffffffffffffffffffffff191614612c0257600192505050612cc3565b600080602884612c129190615a07565b90505b83811015612c8d57600080612c46888481518110612c3657612c35615829565b5b602001015160f81c60f81b613ac2565b9150915081612c5e5760019650505050505050612cc3565b8060ff1660048573ffffffffffffffffffffffffffffffffffffffff16901b1793505050806001019050612c15565b508573ffffffffffffffffffffffffffffffffffffffff168173ffffffffffffffffffffffffffffffffffffffff161493505050505b92915050565b6000612cde8686868680519060200120611e95565b905084518651141580612cf357508351865114155b80612cff575060008651145b15612d48578551845186516040517f447b05d0000000000000000000000000000000000000000000000000000000008152600401612d3f93929190614c69565b60405180910390fd5b60006004600083815260200190815260200160002060000160149054906101000a900465ffffffffffff1665ffffffffffff1614612dcc5780612d8a82611224565b6000801b6040517f31b75e4d000000000000000000000000000000000000000000000000000000008152600401612dc393929190615dd3565b60405180910390fd5b6000612dd6611215565b612dde611bee565b65ffffffffffff16612df09190615e52565b90506000612dfc610d67565b90506000600460008581526020019081526020016000209050848160000160006101000a81548173ffffffffffffffffffffffffffffffffffffffff021916908373ffffffffffffffffffffffffffffffffffffffff160217905550612e61836129b4565b8160000160146101000a81548165ffffffffffff021916908365ffffffffffff160217905550612e9082613b5c565b81600001601a6101000a81548163ffffffff021916908363ffffffff1602179055507f7d84a6263ae0d98d3329bd7b46bb4e8d6f98cd35a7adb45c274c8b7fd5ebd5e084868b8b8d5167ffffffffffffffff811115612ef257612ef1614638565b5b604051908082528060200260200182016040528015612f2557816020015b6060815260200190600190039081612f105790505b508c89898b612f349190615e52565b8e604051612f4a999897969594939291906162c9565b60405180910390a150505095945050505050565b6060612f9460007f0000000000000000000000000000000000000000000000000000000000000000613bb490919063ffffffff16565b905090565b6060612fcf60017f0000000000000000000000000000000000000000000000000000000000000000613bb490919063ffffffff16565b905090565b6000612fdf436129b4565b905090565b6000612fee612009565b73ffffffffffffffffffffffffffffffffffffffff16633a46b1a885856040518363ffffffff1660e01b8152600401613028929190616379565b602060405180830381865afa158015613045573d6000803e3d6000fd5b505050506040513d601f19601f8201168201806040525081019061306991906163b7565b90509392505050565b60008082600001805490509050600081146130cf576130a08360000160018361309b9190615a07565b613a34565b60000160069054906101000a900479ffffffffffffffffffffffffffffffffffffffffffffffffffff166130d2565b60005b915050919050565b6000600754905090565b6060826130f9576130f482613c64565b613101565b819050613102565b5b92915050565b60008163ffffffff16036131545760006040517ff1cfbf0500000000000000000000000000000000000000000000000000000000815260040161314b919061641f565b60405180910390fd5b7f7e3f7f0708a84de9203036abaa450dccc85ad5ff52f78c170f3edb55cf5e8828600860069054906101000a900463ffffffff168260405161319792919061646b565b60405180910390a180600860066101000a81548163ffffffff021916908363ffffffff16021790555050565b606060405180602001604052806000815250905090565b7fccb45da8d5717e6c4544694297c4ba5cf151d455c9bb0ed4fc7a38411bc054616007548260405161320d929190615daa565b60405180910390a18060078190555050565b6000613229611c7a565b613232836117b5565b61323a612009565b73ffffffffffffffffffffffffffffffffffffffff16638e539e8c856040518263ffffffff1660e01b81526004016132729190614480565b602060405180830381865afa15801561328f573d6000803e3d6000fd5b505050506040513d601f19601f820116820180604052508101906132b391906163b7565b6132bd9190616494565b6132c79190616505565b9050919050565b3660008036915091509091565b6000808260000160009054906101000a90046fffffffffffffffffffffffffffffffff1690508260000160109054906101000a90046fffffffffffffffffffffffffffffffff166fffffffffffffffffffffffffffffffff16816fffffffffffffffffffffffffffffffff160361337e576040517f75e52f4f00000000000000000000000000000000000000000000000000000000815260040160405180910390fd5b826001016000826fffffffffffffffffffffffffffffffff166fffffffffffffffffffffffffffffffff168152602001908152602001600020549150826001016000826fffffffffffffffffffffffffffffffff166fffffffffffffffffffffffffffffffff16815260200190815260200160002060009055600181018360000160006101000a8154816fffffffffffffffffffffffffffffffff02191690836fffffffffffffffffffffffffffffffff16021790555050919050565b600079ffffffffffffffffffffffffffffffffffffffffffffffffffff80168211156134a15760d0826040517f6dfcc650000000000000000000000000000000000000000000000000000000008152600401613498929190616571565b60405180910390fd5b819050919050565b6000806134ba856000018585613ca9565b91509150935093915050565b60007f000000000000000000000000000000000000000000000000000000000000000073ffffffffffffffffffffffffffffffffffffffff163073ffffffffffffffffffffffffffffffffffffffff1614801561354257507f000000000000000000000000000000000000000000000000000000000000000046145b1561356f577f0000000000000000000000000000000000000000000000000000000000000000905061357a565b61357761402a565b90505b90565b60006040517f190100000000000000000000000000000000000000000000000000000000000081528360028201528260228201526042812091505092915050565b600080600060418451036136035760008060006020870151925060408701519150606087015160001a90506135f5888285856140c0565b955095509550505050613613565b60006002855160001b9250925092505b9250925092565b60008060008573ffffffffffffffffffffffffffffffffffffffff16858560405160240161364992919061659a565b604051602081830303815290604052631626ba7e60e01b6020820180517bffffffffffffffffffffffffffffffffffffffffffffffffffffffff838183161783525050505060405161369b9190615e3b565b600060405180830381855afa9150503d80600081146136d6576040519150601f19603f3d011682016040523d82523d6000602084013e6136db565b606091505b50915091508180156136ef57506020815110155b80156137335750631626ba7e60e01b7bffffffffffffffffffffffffffffffffffffffffffffffffffffffff19168180602001905181019061373191906165df565b145b925050509392505050565b60006009600087815260200190815260200160002090508060030160008673ffffffffffffffffffffffffffffffffffffffff1673ffffffffffffffffffffffffffffffffffffffff16815260200190815260200160002060009054906101000a900460ff16156137e657846040517f71c6af490000000000000000000000000000000000000000000000000000000081526004016137dd91906145e7565b60405180910390fd5b60018160030160008773ffffffffffffffffffffffffffffffffffffffff1673ffffffffffffffffffffffffffffffffffffffff16815260200190815260200160002060006101000a81548160ff0219169083151502179055506000600281111561385457613853614b97565b5b60ff168460ff160361388057828160000160008282546138749190615e52565b92505081905550613933565b6001600281111561389457613893614b97565b5b60ff168460ff16036138c057828160010160008282546138b49190615e52565b92505081905550613932565b6002808111156138d3576138d2614b97565b5b60ff168460ff16036138ff57828160020160008282546138f39190615e52565b92505081905550613931565b6040517f06b337c200000000000000000000000000000000000000000000000000000000815260040160405180910390fd5b5b5b505050505050565b600080820361394d5760009050613a2f565b6000600161395a846141b4565b901c6001901b90506001818481613974576139736164d6565b5b048201901c9050600181848161398d5761398c6164d6565b5b048201901c905060018184816139a6576139a56164d6565b5b048201901c905060018184816139bf576139be6164d6565b5b048201901c905060018184816139d8576139d76164d6565b5b048201901c905060018184816139f1576139f06164d6565b5b048201901c90506001818481613a0a57613a096164d6565b5b048201901c9050613a2b81828581613a2557613a246164d6565b5b04614295565b9150505b919050565b60008260005281602060002001905092915050565b60005b81831015613ab7576000613a6084846142ae565b90508465ffffffffffff16613a758783613a34565b60000160009054906101000a900465ffffffffffff1665ffffffffffff161115613aa157809250613ab1565b600181613aae9190615e52565b93505b50613a4c565b819050949350505050565b60008060008360f81c90508060ff16602f108015613ae35750603a8160ff16105b15613af8576001603082039250925050613b57565b8060ff166040108015613b0e575060478160ff16105b15613b23576001603782039250925050613b57565b8060ff166060108015613b39575060678160ff16105b15613b4e576001605782039250925050613b57565b60008092509250505b915091565b600063ffffffff8016821115613bac576020826040517f6dfcc650000000000000000000000000000000000000000000000000000000008152600401613ba3929190616647565b60405180910390fd5b819050919050565b606060ff60001b8314613bd157613bca836142d4565b9050613c5e565b818054613bdd9061579e565b80601f0160208091040260200160405190810160405280929190818152602001828054613c099061579e565b8015613c565780601f10613c2b57610100808354040283529160200191613c56565b820191906000526020600020905b815481529060010190602001808311613c3957829003601f168201915b505050505090505b92915050565b600081511115613c775780518082602001fd5b6040517f1425ea4200000000000000000000000000000000000000000000000000000000815260040160405180910390fd5b6000806000858054905090506000811115613f3a576000613cd687600184613cd19190615a07565b613a34565b6040518060400160405290816000820160009054906101000a900465ffffffffffff1665ffffffffffff1665ffffffffffff1681526020016000820160069054906101000a900479ffffffffffffffffffffffffffffffffffffffffffffffffffff1679ffffffffffffffffffffffffffffffffffffffffffffffffffff1679ffffffffffffffffffffffffffffffffffffffffffffffffffff168152505090508565ffffffffffff16816000015165ffffffffffff161115613dc5576040517f2520601d00000000000000000000000000000000000000000000000000000000815260040160405180910390fd5b8565ffffffffffff16816000015165ffffffffffff1603613e495784613df788600185613df29190615a07565b613a34565b60000160066101000a81548179ffffffffffffffffffffffffffffffffffffffffffffffffffff021916908379ffffffffffffffffffffffffffffffffffffffffffffffffffff160217905550613f29565b8660405180604001604052808865ffffffffffff1681526020018779ffffffffffffffffffffffffffffffffffffffffffffffffffff168152509080600181540180825580915050600190039060005260206000200160009091909190915060008201518160000160006101000a81548165ffffffffffff021916908365ffffffffffff16021790555060208201518160000160066101000a81548179ffffffffffffffffffffffffffffffffffffffffffffffffffff021916908379ffffffffffffffffffffffffffffffffffffffffffffffffffff16021790555050505b806020015185935093505050614022565b8560405180604001604052808765ffffffffffff1681526020018679ffffffffffffffffffffffffffffffffffffffffffffffffffff168152509080600181540180825580915050600190039060005260206000200160009091909190915060008201518160000160006101000a81548165ffffffffffff021916908365ffffffffffff16021790555060208201518160000160066101000a81548179ffffffffffffffffffffffffffffffffffffffffffffffffffff021916908379ffffffffffffffffffffffffffffffffffffffffffffffffffff160217905550505060008492509250505b935093915050565b60007f8b73c3c69bb8fe3d512ecc4cf759cc79239f7b179b0ffacaa9a75d522b39400f7f00000000000000000000000000000000000000000000000000000000000000007f000000000000000000000000000000000000000000000000000000000000000046306040516020016140a5959493929190616670565b60405160208183030381529060405280519060200120905090565b60008060007f7fffffffffffffffffffffffffffffff5d576e7357a4501ddfe92f46681b20a08460001c11156141005760006003859250925092506141aa565b60006001888888886040516000815260200160405260405161412594939291906166c3565b6020604051602081039080840390855afa158015614147573d6000803e3d6000fd5b505050602060405103519050600073ffffffffffffffffffffffffffffffffffffffff168173ffffffffffffffffffffffffffffffffffffffff160361419b57600060016000801b935093509350506141aa565b8060008060001b935093509350505b9450945094915050565b600080600090506000608084901c11156141d657608083901c92506080810190505b6000604084901c11156141f157604083901c92506040810190505b6000602084901c111561420c57602083901c92506020810190505b6000601084901c111561422757601083901c92506010810190505b6000600884901c111561424257600883901c92506008810190505b6000600484901c111561425d57600483901c92506004810190505b6000600284901c111561427857600283901c92506002810190505b6000600184901c111561428c576001810190505b80915050919050565b60008183106142a457816142a6565b825b905092915050565b600060028284186142bf9190616505565b8284166142cc9190615e52565b905092915050565b606060006142e183614348565b90506000602067ffffffffffffffff811115614300576142ff614638565b5b6040519080825280601f01601f1916602001820160405280156143325781602001600182028036833780820191505090505b5090508181528360208201528092505050919050565b60008060ff8360001c169050601f81111561438f576040517fb3512b0c00000000000000000000000000000000000000000000000000000000815260040160405180910390fd5b80915050919050565b6000604051905090565b600080fd5b600080fd5b60007fffffffff0000000000000000000000000000000000000000000000000000000082169050919050565b6143e1816143ac565b81146143ec57600080fd5b50565b6000813590506143fe816143d8565b92915050565b60006020828403121561441a576144196143a2565b5b6000614428848285016143ef565b91505092915050565b60008115159050919050565b61444681614431565b82525050565b6000602082019050614461600083018461443d565b92915050565b6000819050919050565b61447a81614467565b82525050565b60006020820190506144956000830184614471565b92915050565b6144a481614467565b81146144af57600080fd5b50565b6000813590506144c18161449b565b92915050565b6000602082840312156144dd576144dc6143a2565b5b60006144eb848285016144b2565b91505092915050565b600081519050919050565b600082825260208201905092915050565b60005b8381101561452e578082015181840152602081019050614513565b60008484015250505050565b6000601f19601f8301169050919050565b6000614556826144f4565b61456081856144ff565b9350614570818560208601614510565b6145798161453a565b840191505092915050565b6000602082019050818103600083015261459e818461454b565b905092915050565b600073ffffffffffffffffffffffffffffffffffffffff82169050919050565b60006145d1826145a6565b9050919050565b6145e1816145c6565b82525050565b60006020820190506145fc60008301846145d8565b92915050565b61460b816145c6565b811461461657600080fd5b50565b60008135905061462881614602565b92915050565b600080fd5b600080fd5b7f4e487b7100000000000000000000000000000000000000000000000000000000600052604160045260246000fd5b6146708261453a565b810181811067ffffffffffffffff8211171561468f5761468e614638565b5b80604052505050565b60006146a2614398565b90506146ae8282614667565b919050565b600067ffffffffffffffff8211156146ce576146cd614638565b5b6146d78261453a565b9050602081019050919050565b82818337600083830152505050565b6000614706614701846146b3565b614698565b90508281526020810184848401111561472257614721614633565b5b61472d8482856146e4565b509392505050565b600082601f83011261474a5761474961462e565b5b813561475a8482602086016146f3565b91505092915050565b6000806000806080858703121561477d5761477c6143a2565b5b600061478b87828801614619565b945050602061479c87828801614619565b93505060406147ad878288016144b2565b925050606085013567ffffffffffffffff8111156147ce576147cd6143a7565b5b6147da87828801614735565b91505092959194509250565b6147ef816143ac565b82525050565b600060208201905061480a60008301846147e6565b92915050565b600067ffffffffffffffff82111561482b5761482a614638565b5b602082029050602081019050919050565b600080fd5b600061485461484f84614810565b614698565b905080838252602082019050602084028301858111156148775761487661483c565b5b835b818110156148a0578061488c8882614619565b845260208401935050602081019050614879565b5050509392505050565b600082601f8301126148bf576148be61462e565b5b81356148cf848260208601614841565b91505092915050565b600067ffffffffffffffff8211156148f3576148f2614638565b5b602082029050602081019050919050565b6000614917614912846148d8565b614698565b9050808382526020820190506020840283018581111561493a5761493961483c565b5b835b81811015614963578061494f88826144b2565b84526020840193505060208101905061493c565b5050509392505050565b600082601f8301126149825761498161462e565b5b8135614992848260208601614904565b91505092915050565b600067ffffffffffffffff8211156149b6576149b5614638565b5b602082029050602081019050919050565b60006149da6149d58461499b565b614698565b905080838252602082019050602084028301858111156149fd576149fc61483c565b5b835b81811015614a4457803567ffffffffffffffff811115614a2257614a2161462e565b5b808601614a2f8982614735565b855260208501945050506020810190506149ff565b5050509392505050565b600082601f830112614a6357614a6261462e565b5b8135614a738482602086016149c7565b91505092915050565b6000819050919050565b614a8f81614a7c565b8114614a9a57600080fd5b50565b600081359050614aac81614a86565b92915050565b60008060008060808587031215614acc57614acb6143a2565b5b600085013567ffffffffffffffff811115614aea57614ae96143a7565b5b614af6878288016148aa565b945050602085013567ffffffffffffffff811115614b1757614b166143a7565b5b614b238782880161496d565b935050604085013567ffffffffffffffff811115614b4457614b436143a7565b5b614b5087828801614a4e565b9250506060614b6187828801614a9d565b91505092959194509250565b614b7681614a7c565b82525050565b6000602082019050614b916000830184614b6d565b92915050565b7f4e487b7100000000000000000000000000000000000000000000000000000000600052602160045260246000fd5b60088110614bd757614bd6614b97565b5b50565b6000819050614be882614bc6565b919050565b6000614bf882614bda565b9050919050565b614c0881614bed565b82525050565b6000602082019050614c236000830184614bff565b92915050565b60008060408385031215614c4057614c3f6143a2565b5b6000614c4e858286016144b2565b9250506020614c5f85828601614619565b9150509250929050565b6000606082019050614c7e6000830186614471565b614c8b6020830185614471565b614c986040830184614471565b949350505050565b600060ff82169050919050565b614cb681614ca0565b8114614cc157600080fd5b50565b600081359050614cd381614cad565b92915050565b60008060408385031215614cf057614cef6143a2565b5b6000614cfe858286016144b2565b9250506020614d0f85828601614cc4565b9150509250929050565b600080fd5b60008083601f840112614d3457614d3361462e565b5b8235905067ffffffffffffffff811115614d5157614d50614d19565b5b602083019150836001820283011115614d6d57614d6c61483c565b5b9250929050565b600080600080600080600060c0888a031215614d9357614d926143a2565b5b6000614da18a828b016144b2565b9750506020614db28a828b01614cc4565b9650506040614dc38a828b01614619565b955050606088013567ffffffffffffffff811115614de457614de36143a7565b5b614df08a828b01614d1e565b9450945050608088013567ffffffffffffffff811115614e1357614e126143a7565b5b614e1f8a828b01614735565b92505060a088013567ffffffffffffffff811115614e4057614e3f6143a7565b5b614e4c8a828b01614735565b91505092959891949750929550565b600080600080600060808688031215614e7757614e766143a2565b5b6000614e85888289016144b2565b9550506020614e9688828901614cc4565b945050604086013567ffffffffffffffff811115614eb757614eb66143a7565b5b614ec388828901614d1e565b9350935050606086013567ffffffffffffffff811115614ee657614ee56143a7565b5b614ef288828901614735565b9150509295509295909350565b600065ffffffffffff82169050919050565b614f1a81614eff565b8114614f2557600080fd5b50565b600081359050614f3781614f11565b92915050565b600060208284031215614f5357614f526143a2565b5b6000614f6184828501614f28565b91505092915050565b60008060008060608587031215614f8457614f836143a2565b5b6000614f92878288016144b2565b9450506020614fa387828801614cc4565b935050604085013567ffffffffffffffff811115614fc457614fc36143a7565b5b614fd087828801614d1e565b925092505092959194509250565b600067ffffffffffffffff821115614ff957614ff8614638565b5b6150028261453a565b9050602081019050919050565b600061502261501d84614fde565b614698565b90508281526020810184848401111561503e5761503d614633565b5b6150498482856146e4565b509392505050565b600082601f8301126150665761506561462e565b5b813561507684826020860161500f565b91505092915050565b60008060008060808587031215615099576150986143a2565b5b600085013567ffffffffffffffff8111156150b7576150b66143a7565b5b6150c3878288016148aa565b945050602085013567ffffffffffffffff8111156150e4576150e36143a7565b5b6150f08782880161496d565b935050604085013567ffffffffffffffff811115615111576151106143a7565b5b61511d87828801614a4e565b925050606085013567ffffffffffffffff81111561513e5761513d6143a7565b5b61514a87828801615051565b91505092959194509250565b60006020828403121561516c5761516b6143a2565b5b600061517a84828501614619565b91505092915050565b60007fff0000000000000000000000000000000000000000000000000000000000000082169050919050565b6151b881615183565b82525050565b600081519050919050565b600082825260208201905092915050565b6000819050602082019050919050565b6151f381614467565b82525050565b600061520583836151ea565b60208301905092915050565b6000602082019050919050565b6000615229826151be565b61523381856151c9565b935061523e836151da565b8060005b8381101561526f57815161525688826151f9565b975061526183615211565b925050600181019050615242565b5085935050505092915050565b600060e082019050615291600083018a6151af565b81810360208301526152a3818961454b565b905081810360408301526152b7818861454b565b90506152c66060830187614471565b6152d360808301866145d8565b6152e060a0830185614b6d565b81810360c08301526152f2818461521e565b905098975050505050505050565b6000806000806080858703121561531a576153196143a2565b5b6000615328878288016144b2565b945050602061533987828801614cc4565b935050604061534a87828801614619565b925050606085013567ffffffffffffffff81111561536b5761536a6143a7565b5b61537787828801614735565b91505092959194509250565b61538c81614eff565b82525050565b60006020820190506153a76000830184615383565b92915050565b6000806000606084860312156153c6576153c56143a2565b5b60006153d486828701614619565b93505060206153e5868287016144b2565b925050604084013567ffffffffffffffff811115615406576154056143a7565b5b61541286828701614735565b9150509250925092565b600080600080600060a08688031215615438576154376143a2565b5b600061544688828901614619565b955050602061545788828901614619565b945050604086013567ffffffffffffffff811115615478576154776143a7565b5b6154848882890161496d565b935050606086013567ffffffffffffffff8111156154a5576154a46143a7565b5b6154b18882890161496d565b925050608086013567ffffffffffffffff8111156154d2576154d16143a7565b5b6154de88828901614735565b9150509295509295909350565b60008083601f8401126155015761550061462e565b5b8235905067ffffffffffffffff81111561551e5761551d614d19565b5b60208301915083600182028301111561553a5761553961483c565b5b9250929050565b6000806000806060858703121561555b5761555a6143a2565b5b600061556987828801614619565b945050602061557a878288016144b2565b935050604085013567ffffffffffffffff81111561559b5761559a6143a7565b5b6155a7878288016154eb565b925092505092959194509250565b600063ffffffff82169050919050565b6155ce816155b5565b81146155d957600080fd5b50565b6000813590506155eb816155c5565b92915050565b600060208284031215615607576156066143a2565b5b6000615615848285016155dc565b91505092915050565b60008060408385031215615635576156346143a2565b5b600061564385828601614619565b9250506020615654858286016144b2565b9150509250929050565b600080600080600060a0868803121561567a576156796143a2565b5b600061568888828901614619565b955050602061569988828901614619565b94505060406156aa888289016144b2565b93505060606156bb888289016144b2565b925050608086013567ffffffffffffffff8111156156dc576156db6143a7565b5b6156e888828901614735565b9150509295509295909350565b6000819050919050565b600061571a615715615710846145a6565b6156f5565b6145a6565b9050919050565b600061572c826156ff565b9050919050565b600061573e82615721565b9050919050565b61574e81615733565b82525050565b60006020820190506157696000830184615745565b92915050565b7f4e487b7100000000000000000000000000000000000000000000000000000000600052602260045260246000fd5b600060028204905060018216806157b657607f821691505b6020821081036157c9576157c861576f565b5b50919050565b60006157ea6157e56157e084614eff565b6156f5565b614467565b9050919050565b6157fa816157cf565b82525050565b60006040820190506158156000830185614471565b61582260208301846157f1565b9392505050565b7f4e487b7100000000000000000000000000000000000000000000000000000000600052603260045260246000fd5b600061586b61586684614fde565b614698565b90508281526020810184848401111561588757615886614633565b5b615892848285614510565b509392505050565b600082601f8301126158af576158ae61462e565b5b81516158bf848260208601615858565b91505092915050565b6000602082840312156158de576158dd6143a2565b5b600082015167ffffffffffffffff8111156158fc576158fb6143a7565b5b6159088482850161589a565b91505092915050565b600081905092915050565b60006159288385615911565b93506159358385846146e4565b82840190509392505050565b600061594e82848661591c565b91508190509392505050565b61596381614ca0565b82525050565b600060e08201905061597e600083018a614b6d565b61598b6020830189614471565b615998604083018861595a565b6159a560608301876145d8565b6159b26080830186614471565b6159bf60a0830185614b6d565b6159cc60c0830184614b6d565b98975050505050505050565b7f4e487b7100000000000000000000000000000000000000000000000000000000600052601160045260246000fd5b6000615a1282614467565b9150615a1d83614467565b9250828203905081811115615a3557615a346159d8565b5b92915050565b6000615a4682614eff565b9150615a5183614eff565b9250828203905065ffffffffffff811115615a6f57615a6e6159d8565b5b92915050565b6000606082019050615a8a60008301866145d8565b615a976020830185614471565b615aa46040830184614471565b949350505050565b600060a082019050615ac16000830188614b6d565b615ace6020830187614471565b615adb604083018661595a565b615ae860608301856145d8565b615af56080830184614471565b9695505050505050565b600081519050615b0e81614f11565b92915050565b600060208284031215615b2a57615b296143a2565b5b6000615b3884828501615aff565b91505092915050565b6000615b4c82614eff565b9150615b5783614eff565b9250828201905065ffffffffffff811115615b7557615b746159d8565b5b92915050565b600081519050919050565b600082825260208201905092915050565b6000819050602082019050919050565b615bb0816145c6565b82525050565b6000615bc28383615ba7565b60208301905092915050565b6000602082019050919050565b6000615be682615b7b565b615bf08185615b86565b9350615bfb83615b97565b8060005b83811015615c2c578151615c138882615bb6565b9750615c1e83615bce565b925050600181019050615bff565b5085935050505092915050565b600081519050919050565b600082825260208201905092915050565b6000819050602082019050919050565b600081519050919050565b600082825260208201905092915050565b6000615c8c82615c65565b615c968185615c70565b9350615ca6818560208601614510565b615caf8161453a565b840191505092915050565b6000615cc68383615c81565b905092915050565b6000602082019050919050565b6000615ce682615c39565b615cf08185615c44565b935083602082028501615d0285615c55565b8060005b85811015615d3e5784840389528151615d1f8582615cba565b9450615d2a83615cce565b925060208a01995050600181019050615d06565b50829750879550505050505092915050565b60006080820190508181036000830152615d6a8187615bdb565b90508181036020830152615d7e818661521e565b90508181036040830152615d928185615cdb565b9050615da16060830184614b6d565b95945050505050565b6000604082019050615dbf6000830185614471565b615dcc6020830184614471565b9392505050565b6000606082019050615de86000830186614471565b615df56020830185614bff565b615e026040830184614b6d565b949350505050565b6000615e1582615c65565b615e1f8185615911565b9350615e2f818560208601614510565b80840191505092915050565b6000615e478284615e0a565b915081905092915050565b6000615e5d82614467565b9150615e6883614467565b9250828201905080821115615e8057615e7f6159d8565b5b92915050565b6000615e9182614ca0565b9150615e9c83614ca0565b9250828201905060ff811115615eb557615eb46159d8565b5b92915050565b60008160011c9050919050565b6000808291508390505b6001851115615f1257808604811115615eee57615eed6159d8565b5b6001851615615efd5780820291505b8081029050615f0b85615ebb565b9450615ed2565b94509492505050565b600082615f2b5760019050615fe7565b81615f395760009050615fe7565b8160018114615f4f5760028114615f5957615f88565b6001915050615fe7565b60ff841115615f6b57615f6a6159d8565b5b8360020a915084821115615f8257615f816159d8565b5b50615fe7565b5060208310610133831016604e8410600b8410161715615fbd5782820a905083811115615fb857615fb76159d8565b5b615fe7565b615fca8484846001615ec8565b92509050818404811115615fe157615fe06159d8565b5b81810290505b9392505050565b6000615ff982614467565b915061600483614ca0565b92506160317fffffffffffffffffffffffffffffffffffffffffffffffffffffffffffffffff8484615f1b565b905092915050565b600060808201905061604e6000830187614471565b61605b602083018661595a565b6160686040830185614471565b818103606083015261607a818461454b565b905095945050505050565b600082825260208201905092915050565b60006160a182615c65565b6160ab8185616085565b93506160bb818560208601614510565b6160c48161453a565b840191505092915050565b600060a0820190506160e46000830188614471565b6160f1602083018761595a565b6160fe6040830186614471565b8181036060830152616110818561454b565b905081810360808301526161248184616096565b90509695505050505050565b6000819050919050565b600061615561615061614b84616130565b6156f5565b614ca0565b9050919050565b6161658161613a565b82525050565b6000604082019050616180600083018561615c565b61618d6020830184614471565b9392505050565b60006040820190506161a960008301856157f1565b6161b660208301846157f1565b9392505050565b600081519050919050565b600082825260208201905092915050565b6000819050602082019050919050565b600082825260208201905092915050565b6000616205826144f4565b61620f81856161e9565b935061621f818560208601614510565b6162288161453a565b840191505092915050565b600061623f83836161fa565b905092915050565b6000602082019050919050565b600061625f826161bd565b61626981856161c8565b93508360208202850161627b856161d9565b8060005b858110156162b757848403895281516162988582616233565b94506162a383616247565b925060208a0199505060018101905061627f565b50829750879550505050505092915050565b6000610120820190506162df600083018c614471565b6162ec602083018b6145d8565b81810360408301526162fe818a615bdb565b90508181036060830152616312818961521e565b905081810360808301526163268188616254565b905081810360a083015261633a8187615cdb565b905061634960c0830186614471565b61635660e0830185614471565b818103610100830152616369818461454b565b90509a9950505050505050505050565b600060408201905061638e60008301856145d8565b61639b6020830184614471565b9392505050565b6000815190506163b18161449b565b92915050565b6000602082840312156163cd576163cc6143a2565b5b60006163db848285016163a2565b91505092915050565b6000819050919050565b60006164096164046163ff846163e4565b6156f5565b614467565b9050919050565b616419816163ee565b82525050565b60006020820190506164346000830184616410565b92915050565b600061645561645061644b846155b5565b6156f5565b614467565b9050919050565b6164658161643a565b82525050565b6000604082019050616480600083018561645c565b61648d602083018461645c565b9392505050565b600061649f82614467565b91506164aa83614467565b92508282026164b881614467565b915082820484148315176164cf576164ce6159d8565b5b5092915050565b7f4e487b7100000000000000000000000000000000000000000000000000000000600052601260045260246000fd5b600061651082614467565b915061651b83614467565b92508261652b5761652a6164d6565b5b828204905092915050565b6000819050919050565b600061655b61655661655184616536565b6156f5565b614ca0565b9050919050565b61656b81616540565b82525050565b60006040820190506165866000830185616562565b6165936020830184614471565b9392505050565b60006040820190506165af6000830185614b6d565b81810360208301526165c18184616096565b90509392505050565b6000815190506165d981614a86565b92915050565b6000602082840312156165f5576165f46143a2565b5b6000616603848285016165ca565b91505092915050565b6000819050919050565b600061663161662c6166278461660c565b6156f5565b614ca0565b9050919050565b61664181616616565b82525050565b600060408201905061665c6000830185616638565b6166696020830184614471565b9392505050565b600060a0820190506166856000830188614b6d565b6166926020830187614b6d565b61669f6040830186614b6d565b6166ac6060830185614471565b6166b960808301846145d8565b9695505050505050565b60006080820190506166d86000830187614b6d565b6166e5602083018661595a565b6166f26040830185614b6d565b6166ff6060830184614b6d565b9594505050505056fea26469706673582212205b8dc6809d80b967271c7e7ccc1cea518cad090feed8e3ea77c69d45e1e2436c64736f6c63430008160033",
  "linkReferences": {},
  "deployedLinkReferences": {}
}