{
  "_format": "hh-sol-artifact-1",
  "contractName": "GovernanceContract",
  "sourceName": "contracts/GovernanceContract.sol",
  "abi": [
    {
      "inputs": [
        {
          "internalType": "contract IVotes",
          "name": "_token",
          "type": "address"
        }
      ],
      "stateMutability": "nonpayable",
      "type": "constructor"
    },
    {
      "inputs": [],
      "name": "CheckpointUnorderedInsertion",
      "type": "error"
    },
    {
      "inputs": [],
      "name": "FailedInnerCall",
      "type": "error"
    },
    {
      "inputs": [
        {
          "internalType": "address",
          "name": "voter",
          "type": "address"
        }
      ],
      "name": "GovernorAlreadyCastVote",
      "type": "error"
    },
    {
      "inputs": [
        {
          "internalType": "uint256",
          "name": "proposalId",
          "type": "uint256"
        }
      ],
      "name": "GovernorAlreadyQueuedProposal",
      "type": "error"
    },
    {
      "inputs": [],
      "name": "GovernorDisabledDeposit",
      "type": "error"
    },
    {
      "inputs": [
        {
          "internalType": "address",
          "name": "proposer",
          "type": "address"
        },
        {
          "internalType": "uint256",
          "name": "votes",
          "type": "uint256"
        },
        {
          "internalType": "uint256",
          "name": "threshold",
          "type": "uint256"
        }
      ],
      "name": "GovernorInsufficientProposerVotes",
      "type": "error"
    },
    {
      "inputs": [
        {
          "internalType": "uint256",
          "name": "targets",
          "type": "uint256"
        },
        {
          "internalType": "uint256",
          "name": "calldatas",
          "type": "uint256"
        },
        {
          "internalType": "uint256",
          "name": "values",
          "type": "uint256"
        }
      ],
      "name": "GovernorInvalidProposalLength",
      "type": "error"
    },
    {
      "inputs": [
        {
          "internalType": "uint256",
          "name": "quorumNumerator",
          "type": "uint256"
        },
        {
          "internalType": "uint256",
          "name": "quorumDenominator",
          "type": "uint256"
        }
      ],
      "name": "GovernorInvalidQuorumFraction",
      "type": "error"
    },
    {
      "inputs": [
        {
          "internalType": "address",
          "name": "voter",
          "type": "address"
        }
      ],
      "name": "GovernorInvalidSignature",
      "type": "error"
    },
    {
      "inputs": [],
      "name": "GovernorInvalidVoteType",
      "type": "error"
    },
    {
      "inputs": [
        {
          "internalType": "uint256",
          "name": "votingPeriod",
          "type": "uint256"
        }
      ],
      "name": "GovernorInvalidVotingPeriod",
      "type": "error"
    },
    {
      "inputs": [
        {
          "internalType": "uint256",
          "name": "proposalId",
          "type": "uint256"
        }
      ],
      "name": "GovernorNonexistentProposal",
      "type": "error"
    },
    {
      "inputs": [
        {
          "internalType": "uint256",
          "name": "proposalId",
          "type": "uint256"
        }
      ],
      "name": "GovernorNotQueuedProposal",
      "type": "error"
    },
    {
      "inputs": [
        {
          "internalType": "address",
          "name": "account",
          "type": "address"
        }
      ],
      "name": "GovernorOnlyExecutor",
      "type": "error"
    },
    {
      "inputs": [
        {
          "internalType": "address",
          "name": "account",
          "type": "address"
        }
      ],
      "name": "GovernorOnlyProposer",
      "type": "error"
    },
    {
      "inputs": [],
      "name": "GovernorQueueNotImplemented",
      "type": "error"
    },
    {
      "inputs": [
        {
          "internalType": "address",
          "name": "proposer",
          "type": "address"
        }
      ],
      "name": "GovernorRestrictedProposer",
      "type": "error"
    },
    {
      "inputs": [
        {
          "internalType": "uint256",
          "name": "proposalId",
          "type": "uint256"
        },
        {
          "internalType": "enum IGovernor.ProposalState",
          "name": "current",
          "type": "uint8"
        },
        {
          "internalType": "bytes32",
          "name": "expectedStates",
          "type": "bytes32"
        }
      ],
      "name": "GovernorUnexpectedProposalState",
      "type": "error"
    },
    {
      "inputs": [
        {
          "internalType": "address",
          "name": "account",
          "type": "address"
        },
        {
          "internalType": "uint256",
          "name": "currentNonce",
          "type": "uint256"
        }
      ],
      "name": "InvalidAccountNonce",
      "type": "error"
    },
    {
      "inputs": [],
      "name": "InvalidShortString",
      "type": "error"
    },
    {
      "inputs": [],
      "name": "QueueEmpty",
      "type": "error"
    },
    {
      "inputs": [],
      "name": "QueueFull",
      "type": "error"
    },
    {
      "inputs": [
        {
          "internalType": "uint8",
          "name": "bits",
          "type": "uint8"
        },
        {
          "internalType": "uint256",
          "name": "value",
          "type": "uint256"
        }
      ],
      "name": "SafeCastOverflowedUintDowncast",
      "type": "error"
    },
    {
      "inputs": [
        {
          "internalType": "string",
          "name": "str",
          "type": "string"
        }
      ],
      "name": "StringTooLong",
      "type": "error"
    },
    {
      "anonymous": false,
      "inputs": [],
      "name": "EIP712DomainChanged",
      "type": "event"
    },
    {
      "anonymous": false,
      "inputs": [
        {
          "indexed": false,
          "internalType": "uint256",
          "name": "proposalId",
          "type": "uint256"
        }
      ],
      "name": "ProposalCanceled",
      "type": "event"
    },
    {
      "anonymous": false,
      "inputs": [
        {
          "indexed": false,
          "internalType": "uint256",
          "name": "proposalId",
          "type": "uint256"
        },
        {
          "indexed": false,
          "internalType": "address",
          "name": "proposer",
          "type": "address"
        },
        {
          "indexed": false,
          "internalType": "address[]",
          "name": "targets",
          "type": "address[]"
        },
        {
          "indexed": false,
          "internalType": "uint256[]",
          "name": "values",
          "type": "uint256[]"
        },
        {
          "indexed": false,
          "internalType": "string[]",
          "name": "signatures",
          "type": "string[]"
        },
        {
          "indexed": false,
          "internalType": "bytes[]",
          "name": "calldatas",
          "type": "bytes[]"
        },
        {
          "indexed": false,
          "internalType": "uint256",
          "name": "voteStart",
          "type": "uint256"
        },
        {
          "indexed": false,
          "internalType": "uint256",
          "name": "voteEnd",
          "type": "uint256"
        },
        {
          "indexed": false,
          "internalType": "string",
          "name": "description",
          "type": "string"
        }
      ],
      "name": "ProposalCreated",
      "type": "event"
    },
    {
      "anonymous": false,
      "inputs": [
        {
          "indexed": false,
          "internalType": "uint256",
          "name": "proposalId",
          "type": "uint256"
        }
      ],
      "name": "ProposalExecuted",
      "type": "event"
    },
    {
      "anonymous": false,
      "inputs": [
        {
          "indexed": false,
          "internalType": "uint256",
          "name": "proposalId",
          "type": "uint256"
        },
        {
          "indexed": false,
          "internalType": "uint256",
          "name": "etaSeconds",
          "type": "uint256"
        }
      ],
      "name": "ProposalQueued",
      "type": "event"
    },
    {
      "anonymous": false,
      "inputs": [
        {
          "indexed": false,
          "internalType": "uint256",
          "name": "oldProposalThreshold",
          "type": "uint256"
        },
        {
          "indexed": false,
          "internalType": "uint256",
          "name": "newProposalThreshold",
          "type": "uint256"
        }
      ],
      "name": "ProposalThresholdSet",
      "type": "event"
    },
    {
      "anonymous": false,
      "inputs": [
        {
          "indexed": false,
          "internalType": "uint256",
          "name": "oldQuorumNumerator",
          "type": "uint256"
        },
        {
          "indexed": false,
          "internalType": "uint256",
          "name": "newQuorumNumerator",
          "type": "uint256"
        }
      ],
      "name": "QuorumNumeratorUpdated",
      "type": "event"
    },
    {
      "anonymous": false,
      "inputs": [
        {
          "indexed": true,
          "internalType": "address",
          "name": "voter",
          "type": "address"
        },
        {
          "indexed": false,
          "internalType": "uint256",
          "name": "proposalId",
          "type": "uint256"
        },
        {
          "indexed": false,
          "internalType": "uint8",
          "name": "support",
          "type": "uint8"
        },
        {
          "indexed": false,
          "internalType": "uint256",
          "name": "weight",
          "type": "uint256"
        },
        {
          "indexed": false,
          "internalType": "string",
          "name": "reason",
          "type": "string"
        }
      ],
      "name": "VoteCast",
      "type": "event"
    },
    {
      "anonymous": false,
      "inputs": [
        {
          "indexed": true,
          "internalType": "address",
          "name": "voter",
          "type": "address"
        },
        {
          "indexed": false,
          "internalType": "uint256",
          "name": "proposalId",
          "type": "uint256"
        },
        {
          "indexed": false,
          "internalType": "uint8",
          "name": "support",
          "type": "uint8"
        },
        {
          "indexed": false,
          "internalType": "uint256",
          "name": "weight",
          "type": "uint256"
        },
        {
          "indexed": false,
          "internalType": "string",
          "name": "reason",
          "type": "string"
        },
        {
          "indexed": false,
          "internalType": "bytes",
          "name": "params",
          "type": "bytes"
        }
      ],
      "name": "VoteCastWithParams",
      "type": "event"
    },
    {
      "anonymous": false,
      "inputs": [
        {
          "indexed": false,
          "internalType": "uint256",
          "name": "oldVotingDelay",
          "type": "uint256"
        },
        {
          "indexed": false,
          "internalType": "uint256",
          "name": "newVotingDelay",
          "type": "uint256"
        }
      ],
      "name": "VotingDelaySet",
      "type": "event"
    },
    {
      "anonymous": false,
      "inputs": [
        {
          "indexed": false,
          "internalType": "uint256",
          "name": "oldVotingPeriod",
          "type": "uint256"
        },
        {
          "indexed": false,
          "internalType": "uint256",
          "name": "newVotingPeriod",
          "type": "uint256"
        }
      ],
      "name": "VotingPeriodSet",
      "type": "event"
    },
    {
      "inputs": [],
      "name": "BALLOT_TYPEHASH",
      "outputs": [
        {
          "internalType": "bytes32",
          "name": "",
          "type": "bytes32"
        }
      ],
      "stateMutability": "view",
      "type": "function"
    },
    {
      "inputs": [],
      "name": "CLOCK_MODE",
      "outputs": [
        {
          "internalType": "string",
          "name": "",
          "type": "string"
        }
      ],
      "stateMutability": "view",
      "type": "function"
    },
    {
      "inputs": [],
      "name": "COUNTING_MODE",
      "outputs": [
        {
          "internalType": "string",
          "name": "",
          "type": "string"
        }
      ],
      "stateMutability": "pure",
      "type": "function"
    },
    {
      "inputs": [],
      "name": "EXTENDED_BALLOT_TYPEHASH",
      "outputs": [
        {
          "internalType": "bytes32",
          "name": "",
          "type": "bytes32"
        }
      ],
      "stateMutability": "view",
      "type": "function"
    },
    {
      "inputs": [
        {
          "internalType": "address[]",
          "name": "targets",
          "type": "address[]"
        },
        {
          "internalType": "uint256[]",
          "name": "values",
          "type": "uint256[]"
        },
        {
          "internalType": "bytes[]",
          "name": "calldatas",
          "type": "bytes[]"
        },
        {
          "internalType": "bytes32",
          "name": "descriptionHash",
          "type": "bytes32"
        }
      ],
      "name": "cancel",
      "outputs": [
        {
          "internalType": "uint256",
          "name": "",
          "type": "uint256"
        }
      ],
      "stateMutability": "nonpayable",
      "type": "function"
    },
    {
      "inputs": [
        {
          "internalType": "uint256",
          "name": "proposalId",
          "type": "uint256"
        },
        {
          "internalType": "uint8",
          "name": "support",
          "type": "uint8"
        }
      ],
      "name": "castVote",
      "outputs": [
        {
          "internalType": "uint256",
          "name": "",
          "type": "uint256"
        }
      ],
      "stateMutability": "nonpayable",
      "type": "function"
    },
    {
      "inputs": [
        {
          "internalType": "uint256",
          "name": "proposalId",
          "type": "uint256"
        },
        {
          "internalType": "uint8",
          "name": "support",
          "type": "uint8"
        },
        {
          "internalType": "address",
          "name": "voter",
          "type": "address"
        },
        {
          "internalType": "bytes",
          "name": "signature",
          "type": "bytes"
        }
      ],
      "name": "castVoteBySig",
      "outputs": [
        {
          "internalType": "uint256",
          "name": "",
          "type": "uint256"
        }
      ],
      "stateMutability": "nonpayable",
      "type": "function"
    },
    {
      "inputs": [
        {
          "internalType": "uint256",
          "name": "proposalId",
          "type": "uint256"
        },
        {
          "internalType": "uint8",
          "name": "support",
          "type": "uint8"
        },
        {
          "internalType": "string",
          "name": "reason",
          "type": "string"
        }
      ],
      "name": "castVoteWithReason",
      "outputs": [
        {
          "internalType": "uint256",
          "name": "",
          "type": "uint256"
        }
      ],
      "stateMutability": "nonpayable",
      "type": "function"
    },
    {
      "inputs": [
        {
          "internalType": "uint256",
          "name": "proposalId",
          "type": "uint256"
        },
        {
          "internalType": "uint8",
          "name": "support",
          "type": "uint8"
        },
        {
          "internalType": "string",
          "name": "reason",
          "type": "string"
        },
        {
          "internalType": "bytes",
          "name": "params",
          "type": "bytes"
        }
      ],
      "name": "castVoteWithReasonAndParams",
      "outputs": [
        {
          "internalType": "uint256",
          "name": "",
          "type": "uint256"
        }
      ],
      "stateMutability": "nonpayable",
      "type": "function"
    },
    {
      "inputs": [
        {
          "internalType": "uint256",
          "name": "proposalId",
          "type": "uint256"
        },
        {
          "internalType": "uint8",
          "name": "support",
          "type": "uint8"
        },
        {
          "internalType": "address",
          "name": "voter",
          "type": "address"
        },
        {
          "internalType": "string",
          "name": "reason",
          "type": "string"
        },
        {
          "internalType": "bytes",
          "name": "params",
          "type": "bytes"
        },
        {
          "internalType": "bytes",
          "name": "signature",
          "type": "bytes"
        }
      ],
      "name": "castVoteWithReasonAndParamsBySig",
      "outputs": [
        {
          "internalType": "uint256",
          "name": "",
          "type": "uint256"
        }
      ],
      "stateMutability": "nonpayable",
      "type": "function"
    },
    {
      "inputs": [],
      "name": "clock",
      "outputs": [
        {
          "internalType": "uint48",
          "name": "",
          "type": "uint48"
        }
      ],
      "stateMutability": "view",
      "type": "function"
    },
    {
      "inputs": [],
      "name": "eip712Domain",
      "outputs": [
        {
          "internalType": "bytes1",
          "name": "fields",
          "type": "bytes1"
        },
        {
          "internalType": "string",
          "name": "name",
          "type": "string"
        },
        {
          "internalType": "string",
          "name": "version",
          "type": "string"
        },
        {
          "internalType": "uint256",
          "name": "chainId",
          "type": "uint256"
        },
        {
          "internalType": "address",
          "name": "verifyingContract",
          "type": "address"
        },
        {
          "internalType": "bytes32",
          "name": "salt",
          "type": "bytes32"
        },
        {
          "internalType": "uint256[]",
          "name": "extensions",
          "type": "uint256[]"
        }
      ],
      "stateMutability": "view",
      "type": "function"
    },
    {
      "inputs": [
        {
          "internalType": "address[]",
          "name": "targets",
          "type": "address[]"
        },
        {
          "internalType": "uint256[]",
          "name": "values",
          "type": "uint256[]"
        },
        {
          "internalType": "bytes[]",
          "name": "calldatas",
          "type": "bytes[]"
        },
        {
          "internalType": "bytes32",
          "name": "descriptionHash",
          "type": "bytes32"
        }
      ],
      "name": "execute",
      "outputs": [
        {
          "internalType": "uint256",
          "name": "",
          "type": "uint256"
        }
      ],
      "stateMutability": "payable",
      "type": "function"
    },
    {
      "inputs": [
        {
          "internalType": "address",
          "name": "account",
          "type": "address"
        },
        {
          "internalType": "uint256",
          "name": "timepoint",
          "type": "uint256"
        }
      ],
      "name": "getVotes",
      "outputs": [
        {
          "internalType": "uint256",
          "name": "",
          "type": "uint256"
        }
      ],
      "stateMutability": "view",
      "type": "function"
    },
    {
      "inputs": [
        {
          "internalType": "address",
          "name": "account",
          "type": "address"
        },
        {
          "internalType": "uint256",
          "name": "timepoint",
          "type": "uint256"
        },
        {
          "internalType": "bytes",
          "name": "params",
          "type": "bytes"
        }
      ],
      "name": "getVotesWithParams",
      "outputs": [
        {
          "internalType": "uint256",
          "name": "",
          "type": "uint256"
        }
      ],
      "stateMutability": "view",
      "type": "function"
    },
    {
      "inputs": [
        {
          "internalType": "uint256",
          "name": "proposalId",
          "type": "uint256"
        },
        {
          "internalType": "address",
          "name": "account",
          "type": "address"
        }
      ],
      "name": "hasVoted",
      "outputs": [
        {
          "internalType": "bool",
          "name": "",
          "type": "bool"
        }
      ],
      "stateMutability": "view",
      "type": "function"
    },
    {
      "inputs": [
        {
          "internalType": "address[]",
          "name": "targets",
          "type": "address[]"
        },
        {
          "internalType": "uint256[]",
          "name": "values",
          "type": "uint256[]"
        },
        {
          "internalType": "bytes[]",
          "name": "calldatas",
          "type": "bytes[]"
        },
        {
          "internalType": "bytes32",
          "name": "descriptionHash",
          "type": "bytes32"
        }
      ],
      "name": "hashProposal",
      "outputs": [
        {
          "internalType": "uint256",
          "name": "",
          "type": "uint256"
        }
      ],
      "stateMutability": "pure",
      "type": "function"
    },
    {
      "inputs": [],
      "name": "name",
      "outputs": [
        {
          "internalType": "string",
          "name": "",
          "type": "string"
        }
      ],
      "stateMutability": "view",
      "type": "function"
    },
    {
      "inputs": [
        {
          "internalType": "address",
          "name": "owner",
          "type": "address"
        }
      ],
      "name": "nonces",
      "outputs": [
        {
          "internalType": "uint256",
          "name": "",
          "type": "uint256"
        }
      ],
      "stateMutability": "view",
      "type": "function"
    },
    {
      "inputs": [
        {
          "internalType": "address",
          "name": "",
          "type": "address"
        },
        {
          "internalType": "address",
          "name": "",
          "type": "address"
        },
        {
          "internalType": "uint256[]",
          "name": "",
          "type": "uint256[]"
        },
        {
          "internalType": "uint256[]",
          "name": "",
          "type": "uint256[]"
        },
        {
          "internalType": "bytes",
          "name": "",
          "type": "bytes"
        }
      ],
      "name": "onERC1155BatchReceived",
      "outputs": [
        {
          "internalType": "bytes4",
          "name": "",
          "type": "bytes4"
        }
      ],
      "stateMutability": "nonpayable",
      "type": "function"
    },
    {
      "inputs": [
        {
          "internalType": "address",
          "name": "",
          "type": "address"
        },
        {
          "internalType": "address",
          "name": "",
          "type": "address"
        },
        {
          "internalType": "uint256",
          "name": "",
          "type": "uint256"
        },
        {
          "internalType": "uint256",
          "name": "",
          "type": "uint256"
        },
        {
          "internalType": "bytes",
          "name": "",
          "type": "bytes"
        }
      ],
      "name": "onERC1155Received",
      "outputs": [
        {
          "internalType": "bytes4",
          "name": "",
          "type": "bytes4"
        }
      ],
      "stateMutability": "nonpayable",
      "type": "function"
    },
    {
      "inputs": [
        {
          "internalType": "address",
          "name": "",
          "type": "address"
        },
        {
          "internalType": "address",
          "name": "",
          "type": "address"
        },
        {
          "internalType": "uint256",
          "name": "",
          "type": "uint256"
        },
        {
          "internalType": "bytes",
          "name": "",
          "type": "bytes"
        }
      ],
      "name": "onERC721Received",
      "outputs": [
        {
          "internalType": "bytes4",
          "name": "",
          "type": "bytes4"
        }
      ],
      "stateMutability": "nonpayable",
      "type": "function"
    },
    {
      "inputs": [
        {
          "internalType": "uint256",
          "name": "proposalId",
          "type": "uint256"
        }
      ],
      "name": "proposalDeadline",
      "outputs": [
        {
          "internalType": "uint256",
          "name": "",
          "type": "uint256"
        }
      ],
      "stateMutability": "view",
      "type": "function"
    },
    {
      "inputs": [
        {
          "internalType": "uint256",
          "name": "proposalId",
          "type": "uint256"
        }
      ],
      "name": "proposalEta",
      "outputs": [
        {
          "internalType": "uint256",
          "name": "",
          "type": "uint256"
        }
      ],
      "stateMutability": "view",
      "type": "function"
    },
    {
      "inputs": [
        {
          "internalType": "uint256",
          "name": "",
          "type": "uint256"
        }
      ],
      "name": "proposalNeedsQueuing",
      "outputs": [
        {
          "internalType": "bool",
          "name": "",
          "type": "bool"
        }
      ],
      "stateMutability": "view",
      "type": "function"
    },
    {
      "inputs": [
        {
          "internalType": "uint256",
          "name": "proposalId",
          "type": "uint256"
        }
      ],
      "name": "proposalProposer",
      "outputs": [
        {
          "internalType": "address",
          "name": "",
          "type": "address"
        }
      ],
      "stateMutability": "view",
      "type": "function"
    },
    {
      "inputs": [
        {
          "internalType": "uint256",
          "name": "proposalId",
          "type": "uint256"
        }
      ],
      "name": "proposalSnapshot",
      "outputs": [
        {
          "internalType": "uint256",
          "name": "",
          "type": "uint256"
        }
      ],
      "stateMutability": "view",
      "type": "function"
    },
    {
      "inputs": [],
      "name": "proposalThreshold",
      "outputs": [
        {
          "internalType": "uint256",
          "name": "",
          "type": "uint256"
        }
      ],
      "stateMutability": "view",
      "type": "function"
    },
    {
      "inputs": [
        {
          "internalType": "uint256",
          "name": "proposalId",
          "type": "uint256"
        }
      ],
      "name": "proposalVotes",
      "outputs": [
        {
          "internalType": "uint256",
          "name": "againstVotes",
          "type": "uint256"
        },
        {
          "internalType": "uint256",
          "name": "forVotes",
          "type": "uint256"
        },
        {
          "internalType": "uint256",
          "name": "abstainVotes",
          "type": "uint256"
        }
      ],
      "stateMutability": "view",
      "type": "function"
    },
    {
      "inputs": [
        {
          "internalType": "address[]",
          "name": "targets",
          "type": "address[]"
        },
        {
          "internalType": "uint256[]",
          "name": "values",
          "type": "uint256[]"
        },
        {
          "internalType": "bytes[]",
          "name": "calldatas",
          "type": "bytes[]"
        },
        {
          "internalType": "string",
          "name": "description",
          "type": "string"
        }
      ],
      "name": "propose",
      "outputs": [
        {
          "internalType": "uint256",
          "name": "",
          "type": "uint256"
        }
      ],
      "stateMutability": "nonpayable",
      "type": "function"
    },
    {
      "inputs": [
        {
          "internalType": "address[]",
          "name": "targets",
          "type": "address[]"
        },
        {
          "internalType": "uint256[]",
          "name": "values",
          "type": "uint256[]"
        },
        {
          "internalType": "bytes[]",
          "name": "calldatas",
          "type": "bytes[]"
        },
        {
          "internalType": "bytes32",
          "name": "descriptionHash",
          "type": "bytes32"
        }
      ],
      "name": "queue",
      "outputs": [
        {
          "internalType": "uint256",
          "name": "",
          "type": "uint256"
        }
      ],
      "stateMutability": "nonpayable",
      "type": "function"
    },
    {
      "inputs": [
        {
          "internalType": "uint256",
          "name": "blockNumber",
          "type": "uint256"
        }
      ],
      "name": "quorum",
      "outputs": [
        {
          "internalType": "uint256",
          "name": "",
          "type": "uint256"
        }
      ],
      "stateMutability": "view",
      "type": "function"
    },
    {
      "inputs": [],
      "name": "quorumDenominator",
      "outputs": [
        {
          "internalType": "uint256",
          "name": "",
          "type": "uint256"
        }
      ],
      "stateMutability": "view",
      "type": "function"
    },
    {
      "inputs": [
        {
          "internalType": "uint256",
          "name": "timepoint",
          "type": "uint256"
        }
      ],
      "name": "quorumNumerator",
      "outputs": [
        {
          "internalType": "uint256",
          "name": "",
          "type": "uint256"
        }
      ],
      "stateMutability": "view",
      "type": "function"
    },
    {
      "inputs": [],
      "name": "quorumNumerator",
      "outputs": [
        {
          "internalType": "uint256",
          "name": "",
          "type": "uint256"
        }
      ],
      "stateMutability": "view",
      "type": "function"
    },
    {
      "inputs": [
        {
          "internalType": "address",
          "name": "target",
          "type": "address"
        },
        {
          "internalType": "uint256",
          "name": "value",
          "type": "uint256"
        },
        {
          "internalType": "bytes",
          "name": "data",
          "type": "bytes"
        }
      ],
      "name": "relay",
      "outputs": [],
      "stateMutability": "payable",
      "type": "function"
    },
    {
      "inputs": [
        {
          "internalType": "uint256",
          "name": "newProposalThreshold",
          "type": "uint256"
        }
      ],
      "name": "setProposalThreshold",
      "outputs": [],
      "stateMutability": "nonpayable",
      "type": "function"
    },
    {
      "inputs": [
        {
          "internalType": "uint48",
          "name": "newVotingDelay",
          "type": "uint48"
        }
      ],
      "name": "setVotingDelay",
      "outputs": [],
      "stateMutability": "nonpayable",
      "type": "function"
    },
    {
      "inputs": [
        {
          "internalType": "uint32",
          "name": "newVotingPeriod",
          "type": "uint32"
        }
      ],
      "name": "setVotingPeriod",
      "outputs": [],
      "stateMutability": "nonpayable",
      "type": "function"
    },
    {
      "inputs": [
        {
          "internalType": "uint256",
          "name": "proposalId",
          "type": "uint256"
        }
      ],
      "name": "state",
      "outputs": [
        {
          "internalType": "enum IGovernor.ProposalState",
          "name": "",
          "type": "uint8"
        }
      ],
      "stateMutability": "view",
      "type": "function"
    },
    {
      "inputs": [
        {
          "internalType": "bytes4",
          "name": "interfaceId",
          "type": "bytes4"
        }
      ],
      "name": "supportsInterface",
      "outputs": [
        {
          "internalType": "bool",
          "name": "",
          "type": "bool"
        }
      ],
      "stateMutability": "view",
      "type": "function"
    },
    {
      "inputs": [],
      "name": "token",
      "outputs": [
        {
          "internalType": "contract IERC5805",
          "name": "",
          "type": "address"
        }
      ],
      "stateMutability": "view",
      "type": "function"
    },
    {
      "inputs": [
        {
          "internalType": "uint256",
          "name": "newQuorumNumerator",
          "type": "uint256"
        }
      ],
      "name": "updateQuorumNumerator",
      "outputs": [],
      "stateMutability": "nonpayable",
      "type": "function"
    },
    {
      "inputs": [],
      "name": "version",
      "outputs": [
        {
          "internalType": "string",
          "name": "",
          "type": "string"
        }
      ],
      "stateMutability": "view",
      "type": "function"
    },
    {
      "inputs": [],
      "name": "votingDelay",
      "outputs": [
        {
          "internalType": "uint256",
          "name": "",
          "type": "uint256"
        }
      ],
      "stateMutability": "view",
      "type": "function"
    },
    {
      "inputs": [],
      "name": "votingPeriod",
      "outputs": [
        {
          "internalType": "uint256",
          "name": "",
          "type": "uint256"
        }
      ],
      "stateMutability": "view",
      "type": "function"
    },
    {
      "stateMutability": "payable",
      "type": "receive"
    }
  ],
  "bytecode": "0x6101806040523480156200001257600080fd5b5060405162007ced38038062007ced833981810160405281019062000038919062000c38565b6001816001603260006040518060400160405280601281526020017f476f7665726e616e6365436f6e747261637400000000000000000000000000008152508062000088620001d060201b60201c565b6200009e6000836200020d60201b90919060201c565b6101208181525050620000bc6001826200020d60201b90919060201c565b6101408181525050818051906020012060e08181525050808051906020012061010081815250504660a08181525050620000fb6200026560201b60201c565b608081815250503073ffffffffffffffffffffffffffffffffffffffff1660c08173ffffffffffffffffffffffffffffffffffffffff16815250505050806003908162000149919062000ee4565b50506200015c83620002c260201b60201c565b6200016d826200033960201b60201c565b6200017e81620003f960201b60201c565b5050508073ffffffffffffffffffffffffffffffffffffffff166101608173ffffffffffffffffffffffffffffffffffffffff168152505050620001c8816200044060201b60201c565b5050620014ef565b60606040518060400160405280600181526020017f3100000000000000000000000000000000000000000000000000000000000000815250905090565b600060208351101562000233576200022b836200052b60201b60201c565b90506200025f565b8262000245836200059860201b60201c565b600001908162000256919062000ee4565b5060ff60001b90505b92915050565b60007f8b73c3c69bb8fe3d512ecc4cf759cc79239f7b179b0ffacaa9a75d522b39400f60e051610100514630604051602001620002a795949392919062001008565b60405160208183030381529060405280519060200120905090565b7fc565b045403dc03c2eea82b81a0465edad9e2e7fc4d97e11421c209da93d7a93600860009054906101000a900465ffffffffffff168260405162000309929190620010b0565b60405180910390a180600860006101000a81548165ffffffffffff021916908365ffffffffffff16021790555050565b60008163ffffffff1603620003885760006040517ff1cfbf050000000000000000000000000000000000000000000000000000000081526004016200037f919062001120565b60405180910390fd5b7f7e3f7f0708a84de9203036abaa450dccc85ad5ff52f78c170f3edb55cf5e8828600860069054906101000a900463ffffffff1682604051620003cd92919062001186565b60405180910390a180600860066101000a81548163ffffffff021916908363ffffffff16021790555050565b7fccb45da8d5717e6c4544694297c4ba5cf151d455c9bb0ed4fc7a38411bc05461600754826040516200042e929190620011b3565b60405180910390a18060078190555050565b600062000452620005a260201b60201c565b9050808211156200049e5781816040517f243e544500000000000000000000000000000000000000000000000000000000815260040162000495929190620011b3565b60405180910390fd5b6000620004b0620005ab60201b60201c565b9050620004e9620004c6620005e060201b60201c565b620004d7856200068160201b60201c565b600a620006f260201b9092919060201c565b50507f0553476bf02ef2726e8ce5ced78d63e26e602e4a2257b1f559418e24b463399781846040516200051e929190620011b3565b60405180910390a1505050565b600080829050601f815111156200057b57826040517f305a27a90000000000000000000000000000000000000000000000000000000081526004016200057291906200126f565b60405180910390fd5b8051816200058990620012c5565b60001c1760001b915050919050565b6000819050919050565b60006064905090565b6000620005bf600a6200071760201b60201c565b79ffffffffffffffffffffffffffffffffffffffffffffffffffff16905090565b6000620005f26200078b60201b60201c565b73ffffffffffffffffffffffffffffffffffffffff166391ddadf46040518163ffffffff1660e01b8152600401602060405180830381865afa9250505080156200065c57506040513d601f19601f8201168201806040525081019062000659919062001366565b60015b6200067957620006716200079660201b60201c565b90506200067e565b809150505b90565b600079ffffffffffffffffffffffffffffffffffffffffffffffffffff8016821115620006ea5760d0826040517f6dfcc650000000000000000000000000000000000000000000000000000000008152600401620006e1929190620013e8565b60405180910390fd5b819050919050565b6000806200070b856000018585620007ae60201b60201c565b91509150935093915050565b60008082600001805490509050600081146200078057620007508360000160018362000744919062001444565b62000b4860201b60201c565b60000160069054906101000a900479ffffffffffffffffffffffffffffffffffffffffffffffffffff1662000783565b60005b915050919050565b600061016051905090565b6000620007a94362000b5d60201b60201c565b905090565b600080600085805490509050600081111562000a58576000620007e687600184620007da919062001444565b62000b4860201b60201c565b6040518060400160405290816000820160009054906101000a900465ffffffffffff1665ffffffffffff1665ffffffffffff1681526020016000820160069054906101000a900479ffffffffffffffffffffffffffffffffffffffffffffffffffff1679ffffffffffffffffffffffffffffffffffffffffffffffffffff1679ffffffffffffffffffffffffffffffffffffffffffffffffffff168152505090508565ffffffffffff16816000015165ffffffffffff161115620008d6576040517f2520601d00000000000000000000000000000000000000000000000000000000815260040160405180910390fd5b8565ffffffffffff16816000015165ffffffffffff1603620009665784620009138860018562000907919062001444565b62000b4860201b60201c565b60000160066101000a81548179ffffffffffffffffffffffffffffffffffffffffffffffffffff021916908379ffffffffffffffffffffffffffffffffffffffffffffffffffff16021790555062000a46565b8660405180604001604052808865ffffffffffff1681526020018779ffffffffffffffffffffffffffffffffffffffffffffffffffff168152509080600181540180825580915050600190039060005260206000200160009091909190915060008201518160000160006101000a81548165ffffffffffff021916908365ffffffffffff16021790555060208201518160000160066101000a81548179ffffffffffffffffffffffffffffffffffffffffffffffffffff021916908379ffffffffffffffffffffffffffffffffffffffffffffffffffff16021790555050505b80602001518593509350505062000b40565b8560405180604001604052808765ffffffffffff1681526020018679ffffffffffffffffffffffffffffffffffffffffffffffffffff168152509080600181540180825580915050600190039060005260206000200160009091909190915060008201518160000160006101000a81548165ffffffffffff021916908365ffffffffffff16021790555060208201518160000160066101000a81548179ffffffffffffffffffffffffffffffffffffffffffffffffffff021916908379ffffffffffffffffffffffffffffffffffffffffffffffffffff160217905550505060008492509250505b935093915050565b60008260005281602060002001905092915050565b600065ffffffffffff801682111562000bb2576030826040517f6dfcc65000000000000000000000000000000000000000000000000000000000815260040162000ba9929190620014c2565b60405180910390fd5b819050919050565b600080fd5b600073ffffffffffffffffffffffffffffffffffffffff82169050919050565b600062000bec8262000bbf565b9050919050565b600062000c008262000bdf565b9050919050565b62000c128162000bf3565b811462000c1e57600080fd5b50565b60008151905062000c328162000c07565b92915050565b60006020828403121562000c515762000c5062000bba565b5b600062000c618482850162000c21565b91505092915050565b600081519050919050565b7f4e487b7100000000000000000000000000000000000000000000000000000000600052604160045260246000fd5b7f4e487b7100000000000000000000000000000000000000000000000000000000600052602260045260246000fd5b6000600282049050600182168062000cec57607f821691505b60208210810362000d025762000d0162000ca4565b5b50919050565b60008190508160005260206000209050919050565b60006020601f8301049050919050565b600082821b905092915050565b60006008830262000d6c7fffffffffffffffffffffffffffffffffffffffffffffffffffffffffffffffff8262000d2d565b62000d78868362000d2d565b95508019841693508086168417925050509392505050565b6000819050919050565b6000819050919050565b600062000dc562000dbf62000db98462000d90565b62000d9a565b62000d90565b9050919050565b6000819050919050565b62000de18362000da4565b62000df962000df08262000dcc565b84845462000d3a565b825550505050565b600090565b62000e1062000e01565b62000e1d81848462000dd6565b505050565b5b8181101562000e455762000e3960008262000e06565b60018101905062000e23565b5050565b601f82111562000e945762000e5e8162000d08565b62000e698462000d1d565b8101602085101562000e79578190505b62000e9162000e888562000d1d565b83018262000e22565b50505b505050565b600082821c905092915050565b600062000eb96000198460080262000e99565b1980831691505092915050565b600062000ed4838362000ea6565b9150826002028217905092915050565b62000eef8262000c6a565b67ffffffffffffffff81111562000f0b5762000f0a62000c75565b5b62000f17825462000cd3565b62000f2482828562000e49565b600060209050601f83116001811462000f5c576000841562000f47578287015190505b62000f53858262000ec6565b86555062000fc3565b601f19841662000f6c8662000d08565b60005b8281101562000f965784890151825560018201915060208501945060208101905062000f6f565b8683101562000fb6578489015162000fb2601f89168262000ea6565b8355505b6001600288020188555050505b505050505050565b6000819050919050565b62000fe08162000fcb565b82525050565b62000ff18162000d90565b82525050565b620010028162000bdf565b82525050565b600060a0820190506200101f600083018862000fd5565b6200102e602083018762000fd5565b6200103d604083018662000fd5565b6200104c606083018562000fe6565b6200105b608083018462000ff7565b9695505050505050565b600065ffffffffffff82169050919050565b600062001098620010926200108c8462001065565b62000d9a565b62000d90565b9050919050565b620010aa8162001077565b82525050565b6000604082019050620010c760008301856200109f565b620010d660208301846200109f565b9392505050565b6000819050919050565b60006200110862001102620010fc84620010dd565b62000d9a565b62000d90565b9050919050565b6200111a81620010e7565b82525050565b60006020820190506200113760008301846200110f565b92915050565b600063ffffffff82169050919050565b60006200116e6200116862001162846200113d565b62000d9a565b62000d90565b9050919050565b62001180816200114d565b82525050565b60006040820190506200119d600083018562001175565b620011ac602083018462001175565b9392505050565b6000604082019050620011ca600083018562000fe6565b620011d9602083018462000fe6565b9392505050565b600082825260208201905092915050565b60005b8381101562001211578082015181840152602081019050620011f4565b60008484015250505050565b6000601f19601f8301169050919050565b60006200123b8262000c6a565b620012478185620011e0565b935062001259818560208601620011f1565b62001264816200121d565b840191505092915050565b600060208201905081810360008301526200128b81846200122e565b905092915050565b600081519050919050565b6000819050602082019050919050565b6000620012bc825162000fcb565b80915050919050565b6000620012d28262001293565b82620012de846200129e565b9050620012eb81620012ae565b925060208210156200132e57620013297fffffffffffffffffffffffffffffffffffffffffffffffffffffffffffffffff8360200360080262000d2d565b831692505b5050919050565b620013408162001065565b81146200134c57600080fd5b50565b600081519050620013608162001335565b92915050565b6000602082840312156200137f576200137e62000bba565b5b60006200138f848285016200134f565b91505092915050565b6000819050919050565b600060ff82169050919050565b6000620013d0620013ca620013c48462001398565b62000d9a565b620013a2565b9050919050565b620013e281620013af565b82525050565b6000604082019050620013ff6000830185620013d7565b6200140e602083018462000fe6565b9392505050565b7f4e487b7100000000000000000000000000000000000000000000000000000000600052601160045260246000fd5b6000620014518262000d90565b91506200145e8362000d90565b925082820390508181111562001479576200147862001415565b5b92915050565b6000819050919050565b6000620014aa620014a46200149e846200147f565b62000d9a565b620013a2565b9050919050565b620014bc8162001489565b82525050565b6000604082019050620014d96000830185620014b1565b620014e8602083018462000fe6565b9392505050565b60805160a05160c05160e0516101005161012051610140516101605161679862001555600039600061201301526000612fb401526000612f790152600061408201526000614061015260006134dc015260006135320152600061355b01526167986000f3fe6080604052600436106102815760003560e01c80637d5e81e21161014f578063bc197c81116100c1578063e540d01d1161007a578063e540d01d14610b49578063eb9019d414610b72578063ece40cc114610baf578063f23a6e6114610bd8578063f8ce560a14610c15578063fc0c546a14610c52576102f4565b8063bc197c8114610a20578063c01f9e3714610a5d578063c28bc2fa14610a9a578063c59057e414610ab6578063dd4e2ba514610af3578063deaaa7cc14610b1e576102f4565b806397c3d3341161011357806397c3d334146108e85780639a802a6d14610913578063a7713a7014610950578063a9a952941461097b578063ab58fb8e146109b8578063b58131b0146109f5576102f4565b80637d5e81e2146107d55780637ecebe001461081257806384b0196e1461084f5780638ff262e31461088057806391ddadf4146108bd576102f4565b80633e4f49e6116101f357806356781388116101ac578063567813881461067b5780635b8d0e0d146106b85780635f398a14146106f557806360c4247f14610732578063790518871461076f5780637b3c71d314610798576102f4565b80633e4f49e61461052f578063438596321461056c578063452115d6146105a95780634bf5d7e9146105e6578063544ffc9c1461061157806354fd4d5014610650576102f4565b8063150b7a0211610245578063150b7a02146103f2578063160cbed71461042f5780632656227d1461046c5780632d63f6931461049c5780632fe3e261146104d95780633932abb114610504576102f4565b806301ffc9a7146102f957806302a251a31461033657806306f3f9e61461036157806306fdde031461038a578063143489d0146103b5576102f4565b366102f4573073ffffffffffffffffffffffffffffffffffffffff166102a5610c7d565b73ffffffffffffffffffffffffffffffffffffffff16146102f2576040517fe90a651e00000000000000000000000000000000000000000000000000000000815260040160405180910390fd5b005b600080fd5b34801561030557600080fd5b50610320600480360381019061031b9190614416565b610c85565b60405161032d919061445e565b60405180910390f35b34801561034257600080fd5b5061034b610d67565b6040516103589190614492565b60405180910390f35b34801561036d57600080fd5b50610388600480360381019061038391906144d9565b610d76565b005b34801561039657600080fd5b5061039f610d8a565b6040516103ac9190614596565b60405180910390f35b3480156103c157600080fd5b506103dc60048036038101906103d791906144d9565b610e1c565b6040516103e991906145f9565b60405180910390f35b3480156103fe57600080fd5b5061041960048036038101906104149190614775565b610e5c565b6040516104269190614807565b60405180910390f35b34801561043b57600080fd5b5061045660048036038101906104519190614ac4565b610edc565b6040516104639190614492565b60405180910390f35b61048660048036038101906104819190614ac4565b610fd8565b6040516104939190614492565b60405180910390f35b3480156104a857600080fd5b506104c360048036038101906104be91906144d9565b6111bd565b6040516104d09190614492565b60405180910390f35b3480156104e557600080fd5b506104ee6111f7565b6040516104fb9190614b8e565b60405180910390f35b34801561051057600080fd5b5061051961121b565b6040516105269190614492565b60405180910390f35b34801561053b57600080fd5b50610556600480360381019061055191906144d9565b61122a565b6040516105639190614c20565b60405180910390f35b34801561057857600080fd5b50610593600480360381019061058e9190614c3b565b61138e565b6040516105a0919061445e565b60405180910390f35b3480156105b557600080fd5b506105d060048036038101906105cb9190614ac4565b6113f9565b6040516105dd9190614492565b60405180910390f35b3480156105f257600080fd5b506105fb6114bb565b6040516106089190614596565b60405180910390f35b34801561061d57600080fd5b50610638600480360381019061063391906144d9565b61157a565b60405161064793929190614c7b565b60405180910390f35b34801561065c57600080fd5b506106656115b2565b6040516106729190614596565b60405180910390f35b34801561068757600080fd5b506106a2600480360381019061069d9190614ceb565b6115ef565b6040516106af9190614492565b60405180910390f35b3480156106c457600080fd5b506106df60048036038101906106da9190614d86565b611620565b6040516106ec9190614492565b60405180910390f35b34801561070157600080fd5b5061071c60048036038101906107179190614e6d565b611751565b6040516107299190614492565b60405180910390f35b34801561073e57600080fd5b50610759600480360381019061075491906144d9565b6117bb565b6040516107669190614492565b60405180910390f35b34801561077b57600080fd5b5061079660048036038101906107919190614f4f565b6118bf565b005b3480156107a457600080fd5b506107bf60048036038101906107ba9190614f7c565b6118d3565b6040516107cc9190614492565b60405180910390f35b3480156107e157600080fd5b506107fc60048036038101906107f79190615091565b61193b565b6040516108099190614492565b60405180910390f35b34801561081e57600080fd5b5061083960048036038101906108349190615168565b611a2b565b6040516108469190614492565b60405180910390f35b34801561085b57600080fd5b50610864611a74565b604051610877979695949392919061528e565b60405180910390f35b34801561088c57600080fd5b506108a760048036038101906108a29190615312565b611b1e565b6040516108b49190614492565b60405180910390f35b3480156108c957600080fd5b506108d2611bf4565b6040516108df91906153a4565b60405180910390f35b3480156108f457600080fd5b506108fd611c80565b60405161090a9190614492565b60405180910390f35b34801561091f57600080fd5b5061093a600480360381019061093591906153bf565b611c89565b6040516109479190614492565b60405180910390f35b34801561095c57600080fd5b50610965611c9f565b6040516109729190614492565b60405180910390f35b34801561098757600080fd5b506109a2600480360381019061099d91906144d9565b611ccc565b6040516109af919061445e565b60405180910390f35b3480156109c457600080fd5b506109df60048036038101906109da91906144d9565b611cd3565b6040516109ec9190614492565b60405180910390f35b348015610a0157600080fd5b50610a0a611d0d565b604051610a179190614492565b60405180910390f35b348015610a2c57600080fd5b50610a476004803603810190610a42919061542e565b611d1c565b604051610a549190614807565b60405180910390f35b348015610a6957600080fd5b50610a846004803603810190610a7f91906144d9565b611d9d565b604051610a919190614492565b60405180910390f35b610ab46004803603810190610aaf9190615553565b611e0e565b005b348015610ac257600080fd5b50610add6004803603810190610ad89190614ac4565b611e9b565b604051610aea9190614492565b60405180910390f35b348015610aff57600080fd5b50610b08611ed7565b604051610b159190614596565b60405180910390f35b348015610b2a57600080fd5b50610b33611f14565b604051610b409190614b8e565b60405180910390f35b348015610b5557600080fd5b50610b706004803603810190610b6b9190615603565b611f38565b005b348015610b7e57600080fd5b50610b996004803603810190610b949190615630565b611f4c565b604051610ba69190614492565b60405180910390f35b348015610bbb57600080fd5b50610bd66004803603810190610bd191906144d9565b611f68565b005b348015610be457600080fd5b50610bff6004803603810190610bfa9190615670565b611f7c565b604051610c0c9190614807565b60405180910390f35b348015610c2157600080fd5b50610c3c6004803603810190610c3791906144d9565b611ffd565b604051610c499190614492565b60405180910390f35b348015610c5e57600080fd5b50610c6761200f565b604051610c749190615766565b60405180910390f35b600030905090565b60007f65455a86000000000000000000000000000000000000000000000000000000007bffffffffffffffffffffffffffffffffffffffffffffffffffffffff1916827bffffffffffffffffffffffffffffffffffffffffffffffffffffffff19161480610d5057507f4e2312e0000000000000000000000000000000000000000000000000000000007bffffffffffffffffffffffffffffffffffffffffffffffffffffffff1916827bffffffffffffffffffffffffffffffffffffffffffffffffffffffff1916145b80610d605750610d5f82612037565b5b9050919050565b6000610d716120a1565b905090565b610d7e6120c1565b610d87816121b7565b50565b606060038054610d99906157b0565b80601f0160208091040260200160405190810160405280929190818152602001828054610dc5906157b0565b8015610e125780601f10610de757610100808354040283529160200191610e12565b820191906000526020600020905b815481529060010190602001808311610df557829003601f168201915b5050505050905090565b60006004600083815260200190815260200160002060000160009054906101000a900473ffffffffffffffffffffffffffffffffffffffff169050919050565b60003073ffffffffffffffffffffffffffffffffffffffff16610e7d610c7d565b73ffffffffffffffffffffffffffffffffffffffff1614610eca576040517fe90a651e00000000000000000000000000000000000000000000000000000000815260040160405180910390fd5b63150b7a0260e01b9050949350505050565b600080610eeb86868686611e9b565b9050610f0081610efb600461227b565b6122a1565b506000610f10828888888861230e565b905060008165ffffffffffff1614610f9957806004600084815260200190815260200160002060010160006101000a81548165ffffffffffff021916908365ffffffffffff1602179055507f9a2e42fd6722813d69113e7d0079d3d940171428df7373df9c7f7617cfda28928282604051610f8c929190615812565b60405180910390a1610fcb565b6040517f90884a4600000000000000000000000000000000000000000000000000000000815260040160405180910390fd5b8192505050949350505050565b600080610fe786868686611e9b565b905061100781610ff7600561227b565b611001600461227b565b176122a1565b50600160046000838152602001908152602001600020600001601e6101000a81548160ff0219169083151502179055503073ffffffffffffffffffffffffffffffffffffffff16611056610c7d565b73ffffffffffffffffffffffffffffffffffffffff16146111135760005b8651811015611111573073ffffffffffffffffffffffffffffffffffffffff168782815181106110a7576110a661583b565b5b602002602001015173ffffffffffffffffffffffffffffffffffffffff1603611100576110ff8582815181106110e0576110df61583b565b5b602002602001015180519060200120600561231990919063ffffffff16565b5b8061110a90615899565b9050611074565b505b611120818787878761243f565b3073ffffffffffffffffffffffffffffffffffffffff1661113f610c7d565b73ffffffffffffffffffffffffffffffffffffffff161415801561116a5750611168600561252f565b155b1561117a57611179600561259f565b5b7f712ae1383f79ac853f8d882153778e0260ef8f03b504e2866e0593e04d2b291f816040516111a99190614492565b60405180910390a180915050949350505050565b60006004600083815260200190815260200160002060000160149054906101000a900465ffffffffffff1665ffffffffffff169050919050565b7f3e83946653575f9a39005e1545185629e92736b7528ab20ca3816f315424a81181565b600061122561261a565b905090565b600080600460008481526020019081526020016000209050600081600001601e9054906101000a900460ff169050600082600001601f9054906101000a900460ff16905081156112805760079350505050611389565b80156112925760029350505050611389565b600061129d866111bd565b9050600081036112e457856040517f6ad060750000000000000000000000000000000000000000000000000000000081526004016112db9190614492565b60405180910390fd5b60006112ee611bf4565b65ffffffffffff16905080821061130d57600095505050505050611389565b600061131888611d9d565b90508181106113305760019650505050505050611389565b6113398861263e565b158061134b575061134988612685565b155b1561135f5760039650505050505050611389565b600061136a89611cd3565b0361137e5760049650505050505050611389565b600596505050505050505b919050565b60006009600084815260200190815260200160002060030160008373ffffffffffffffffffffffffffffffffffffffff1673ffffffffffffffffffffffffffffffffffffffff16815260200190815260200160002060009054906101000a900460ff16905092915050565b60008061140886868686611e9b565b905061141d81611418600061227b565b6122a1565b5061142781610e1c565b73ffffffffffffffffffffffffffffffffffffffff166114456126b0565b73ffffffffffffffffffffffffffffffffffffffff16146114a4576114686126b0565b6040517f233d98e300000000000000000000000000000000000000000000000000000000815260040161149b91906145f9565b60405180910390fd5b6114b0868686866126b8565b915050949350505050565b60606114c561200f565b73ffffffffffffffffffffffffffffffffffffffff16634bf5d7e96040518163ffffffff1660e01b8152600401600060405180830381865afa92505050801561153157506040513d6000823e3d601f19601f8201168201806040525081019061152e9190615951565b60015b611572576040518060400160405280601d81526020017f6d6f64653d626c6f636b6e756d6265722666726f6d3d64656661756c740000008152509050611577565b809150505b90565b600080600080600960008681526020019081526020016000209050806000015481600101548260020154935093509350509193909250565b60606040518060400160405280600181526020017f3100000000000000000000000000000000000000000000000000000000000000815250905090565b6000806115fa6126b0565b90506116178482856040518060200160405280600081525061279f565b91505092915050565b6000806116ae876116a87f3e83946653575f9a39005e1545185629e92736b7528ab20ca3816f315424a8118c8c8c6116578e6127bf565b8d8d6040516116679291906159ca565b60405180910390208c8051906020012060405160200161168d97969594939291906159f2565b60405160208183030381529060405280519060200120612816565b85612830565b9050806116f257866040517f94ab6c070000000000000000000000000000000000000000000000000000000081526004016116e991906145f9565b60405180910390fd5b61174389888a89898080601f016020809104026020016040519081016040528093929190818152602001838380828437600081840152601f19601f82011690508083019250505050505050886128c0565b915050979650505050505050565b60008061175c6126b0565b90506117af87828888888080601f016020809104026020016040519081016040528093929190818152602001838380828437600081840152601f19601f82011690508083019250505050505050876128c0565b91505095945050505050565b600080600a6000018054905090506000600a6000016001836117dd9190615a61565b815481106117ee576117ed61583b565b5b90600052602060002001905060008160000160009054906101000a900465ffffffffffff16905060008260000160069054906101000a900479ffffffffffffffffffffffffffffffffffffffffffffffffffff169050858265ffffffffffff161161187b578079ffffffffffffffffffffffffffffffffffffffffffffffffffff169450505050506118ba565b611897611887876129c0565b600a612a1a90919063ffffffff16565b79ffffffffffffffffffffffffffffffffffffffffffffffffffff169450505050505b919050565b6118c76120c1565b6118d081612b14565b50565b6000806118de6126b0565b905061193086828787878080601f016020809104026020016040519081016040528093929190818152602001838380828437600081840152601f19601f8201169050808301925050505050505061279f565b915050949350505050565b6000806119466126b0565b90506119528184612b89565b61199357806040517fd9b3955700000000000000000000000000000000000000000000000000000000815260040161198a91906145f9565b60405180910390fd5b60006119ba8260016119a3611bf4565b6119ad9190615a95565b65ffffffffffff16611f4c565b905060006119c6611d0d565b905080821015611a11578282826040517fc242ee16000000000000000000000000000000000000000000000000000000008152600401611a0893929190615acf565b60405180910390fd5b611a1e8888888887612cdb565b9350505050949350505050565b6000600260008373ffffffffffffffffffffffffffffffffffffffff1673ffffffffffffffffffffffffffffffffffffffff168152602001908152602001600020549050919050565b600060608060008060006060611a88612f70565b611a90612fab565b46306000801b600067ffffffffffffffff811115611ab157611ab061464a565b5b604051908082528060200260200182016040528015611adf5781602001602082028036833780820191505090505b507f0f00000000000000000000000000000000000000000000000000000000000000959493929190965096509650965096509650965090919293949596565b600080611b8a84611b847ff2aad550cf55f045cb27e9c559f9889fdfb6e6cdaa032301d6ea397784ae51d7898989611b558b6127bf565b604051602001611b69959493929190615b06565b60405160208183030381529060405280519060200120612816565b85612830565b905080611bce57836040517f94ab6c07000000000000000000000000000000000000000000000000000000008152600401611bc591906145f9565b60405180910390fd5b611be98685876040518060200160405280600081525061279f565b915050949350505050565b6000611bfe61200f565b73ffffffffffffffffffffffffffffffffffffffff166391ddadf46040518163ffffffff1660e01b8152600401602060405180830381865afa925050508015611c6557506040513d601f19601f82011682018060405250810190611c629190615b6e565b60015b611c7857611c71612fe6565b9050611c7d565b809150505b90565b60006064905090565b6000611c96848484612ff6565b90509392505050565b6000611cab600a613084565b79ffffffffffffffffffffffffffffffffffffffffffffffffffff16905090565b6000919050565b60006004600083815260200190815260200160002060010160009054906101000a900465ffffffffffff1665ffffffffffff169050919050565b6000611d176130ec565b905090565b60003073ffffffffffffffffffffffffffffffffffffffff16611d3d610c7d565b73ffffffffffffffffffffffffffffffffffffffff1614611d8a576040517fe90a651e00000000000000000000000000000000000000000000000000000000815260040160405180910390fd5b63bc197c8160e01b905095945050505050565b600060046000838152602001908152602001600020600001601a9054906101000a900463ffffffff1663ffffffff166004600084815260200190815260200160002060000160149054906101000a900465ffffffffffff16611dff9190615b9b565b65ffffffffffff169050919050565b611e166120c1565b6000808573ffffffffffffffffffffffffffffffffffffffff16858585604051611e419291906159ca565b60006040518083038185875af1925050503d8060008114611e7e576040519150601f19603f3d011682016040523d82523d6000602084013e611e83565b606091505b5091509150611e9282826130f6565b50505050505050565b600084848484604051602001611eb49493929190615daa565b6040516020818303038152906040528051906020012060001c9050949350505050565b60606040518060400160405280602081526020017f737570706f72743d627261766f2671756f72756d3d666f722c6162737461696e815250905090565b7ff2aad550cf55f045cb27e9c559f9889fdfb6e6cdaa032301d6ea397784ae51d781565b611f406120c1565b611f498161311a565b50565b6000611f608383611f5b6131d5565b612ff6565b905092915050565b611f706120c1565b611f79816131ec565b50565b60003073ffffffffffffffffffffffffffffffffffffffff16611f9d610c7d565b73ffffffffffffffffffffffffffffffffffffffff1614611fea576040517fe90a651e00000000000000000000000000000000000000000000000000000000815260040160405180910390fd5b63f23a6e6160e01b905095945050505050565b600061200882613231565b9050919050565b60007f0000000000000000000000000000000000000000000000000000000000000000905090565b60007f01ffc9a7000000000000000000000000000000000000000000000000000000007bffffffffffffffffffffffffffffffffffffffffffffffffffffffff1916827bffffffffffffffffffffffffffffffffffffffffffffffffffffffff1916149050919050565b6000600860069054906101000a900463ffffffff1663ffffffff16905090565b6120c96126b0565b73ffffffffffffffffffffffffffffffffffffffff166120e7610c7d565b73ffffffffffffffffffffffffffffffffffffffff16146121465761210a6126b0565b6040517f47096e4700000000000000000000000000000000000000000000000000000000815260040161213d91906145f9565b60405180910390fd5b3073ffffffffffffffffffffffffffffffffffffffff16612165610c7d565b73ffffffffffffffffffffffffffffffffffffffff16146121b557600061218a6132e0565b6040516121989291906159ca565b604051809103902090505b806121ae60056132ed565b036121a357505b565b60006121c1611c80565b90508082111561220a5781816040517f243e5445000000000000000000000000000000000000000000000000000000008152600401612201929190615e04565b60405180910390fd5b6000612214611c9f565b905061223b612221611bf4565b61222a8561344d565b600a6134bb9092919063ffffffff16565b50507f0553476bf02ef2726e8ce5ced78d63e26e602e4a2257b1f559418e24b4633997818460405161226e929190615e04565b60405180910390a1505050565b60008160078111156122905761228f614ba9565b5b60ff166001901b60001b9050919050565b6000806122ad8461122a565b90506000801b836122bd8361227b565b1603612304578381846040517f31b75e4d0000000000000000000000000000000000000000000000000000000081526004016122fb93929190615e2d565b60405180910390fd5b8091505092915050565b600095945050505050565b60008260000160109054906101000a90046fffffffffffffffffffffffffffffffff1690508260000160009054906101000a90046fffffffffffffffffffffffffffffffff166fffffffffffffffffffffffffffffffff16600182016fffffffffffffffffffffffffffffffff16036123be576040517f8acb5f2700000000000000000000000000000000000000000000000000000000815260040160405180910390fd5b81836001016000836fffffffffffffffffffffffffffffffff166fffffffffffffffffffffffffffffffff16815260200190815260200160002081905550600181018360000160106101000a8154816fffffffffffffffffffffffffffffffff02191690836fffffffffffffffffffffffffffffffff160217905550505050565b60005b8451811015612527576000808683815181106124615761246061583b565b5b602002602001015173ffffffffffffffffffffffffffffffffffffffff168684815181106124925761249161583b565b5b60200260200101518685815181106124ad576124ac61583b565b5b60200260200101516040516124c29190615e95565b60006040518083038185875af1925050503d80600081146124ff576040519150601f19603f3d011682016040523d82523d6000602084013e612504565b606091505b509150915061251382826130f6565b5050508061252090615899565b9050612442565b505050505050565b60008160000160009054906101000a90046fffffffffffffffffffffffffffffffff166fffffffffffffffffffffffffffffffff168260000160109054906101000a90046fffffffffffffffffffffffffffffffff166fffffffffffffffffffffffffffffffff16149050919050565b60008160000160006101000a8154816fffffffffffffffffffffffffffffffff02191690836fffffffffffffffffffffffffffffffff16021790555060008160000160106101000a8154816fffffffffffffffffffffffffffffffff02191690836fffffffffffffffffffffffffffffffff16021790555050565b6000600860009054906101000a900465ffffffffffff1665ffffffffffff16905090565b6000806009600084815260200190815260200160002090508060020154816001015461266a9190615eac565b61267b612676856111bd565b611ffd565b1115915050919050565b6000806009600084815260200190815260200160002090508060000154816001015411915050919050565b600033905090565b6000806126c786868686611e9b565b905061272c816126d7600761227b565b6126e1600661227b565b6126eb600261227b565b60018060078081111561270157612700614ba9565b5b61270b9190615ee0565b60026127179190616048565b6127219190615a61565b60001b1818186122a1565b50600160046000838152602001908152602001600020600001601f6101000a81548160ff0219169083151502179055507f789cf55be980739dad1d0699b93b58e806b51c9d96619bfa8fe0a28abaa7b30c8160405161278b9190614492565b60405180910390a180915050949350505050565b60006127b5858585856127b06131d5565b6128c0565b9050949350505050565b6000600260008373ffffffffffffffffffffffffffffffffffffffff1673ffffffffffffffffffffffffffffffffffffffff1681526020019081526020016000206000815480929190600101919050559050919050565b60006128296128236134d8565b8361358f565b9050919050565b600080600061283f85856135d0565b50915091506000600381111561285857612857614ba9565b5b81600381111561286b5761286a614ba9565b5b1480156128a357508573ffffffffffffffffffffffffffffffffffffffff168273ffffffffffffffffffffffffffffffffffffffff16145b806128b557506128b486868661362c565b5b925050509392505050565b60006128d5866128d0600161227b565b6122a1565b5060006128eb866128e5896111bd565b85612ff6565b90506128fa8787878487613750565b600083510361295c578573ffffffffffffffffffffffffffffffffffffffff167fb8e138887d0aa13bab447e82de9d5c1777041ecd21ca36ba824ff1e6c07ddda48887848860405161294f9493929190616093565b60405180910390a26129b3565b8573ffffffffffffffffffffffffffffffffffffffff167fe2babfbac5889a709b63bb7f598b324e08bc5a4fb9ec647fb3cbc9ec07eb871288878488886040516129aa959493929190616129565b60405180910390a25b8091505095945050505050565b600065ffffffffffff8016821115612a12576030826040517f6dfcc650000000000000000000000000000000000000000000000000000000008152600401612a099291906161c5565b60405180910390fd5b819050919050565b600080836000018054905090506000808290506005831115612aa2576000612a418461394d565b84612a4c9190615a61565b9050612a5b8760000182613a46565b60000160009054906101000a900465ffffffffffff1665ffffffffffff168665ffffffffffff161015612a9057809150612aa0565b600181612a9d9190615eac565b92505b505b6000612ab387600001878585613a5b565b905060008114612b0557612ad687600001600183612ad19190615a61565b613a46565b60000160069054906101000a900479ffffffffffffffffffffffffffffffffffffffffffffffffffff16612b08565b60005b94505050505092915050565b7fc565b045403dc03c2eea82b81a0465edad9e2e7fc4d97e11421c209da93d7a93600860009054906101000a900465ffffffffffff1682604051612b599291906161ee565b60405180910390a180600860006101000a81548165ffffffffffff021916908365ffffffffffff16021790555050565b600080825190506034811015612ba3576001915050612cd5565b60006014820384015190507f2370726f706f7365723d3078000000000000000000000000000000000000000073ffffffffffffffffffffffffffffffffffffffff19168173ffffffffffffffffffffffffffffffffffffffff191614612c0e57600192505050612cd5565b600080602884612c1e9190615a61565b90505b83811015612c9f57600080612c52888481518110612c4257612c4161583b565b5b602001015160f81c60f81b613ad4565b9150915081612c6a5760019650505050505050612cd5565b8060ff1660048573ffffffffffffffffffffffffffffffffffffffff16901b179350505080612c9890615899565b9050612c21565b508573ffffffffffffffffffffffffffffffffffffffff168173ffffffffffffffffffffffffffffffffffffffff161493505050505b92915050565b6000612cf08686868680519060200120611e9b565b905084518651141580612d0557508351865114155b80612d11575060008651145b15612d5a578551845186516040517f447b05d0000000000000000000000000000000000000000000000000000000008152600401612d5193929190614c7b565b60405180910390fd5b60006004600083815260200190815260200160002060000160149054906101000a900465ffffffffffff1665ffffffffffff1614612dde5780612d9c8261122a565b6000801b6040517f31b75e4d000000000000000000000000000000000000000000000000000000008152600401612dd593929190615e2d565b60405180910390fd5b6000612de861121b565b612df0611bf4565b65ffffffffffff16612e029190615eac565b90506000612e0e610d67565b90506000600460008581526020019081526020016000209050848160000160006101000a81548173ffffffffffffffffffffffffffffffffffffffff021916908373ffffffffffffffffffffffffffffffffffffffff160217905550612e73836129c0565b8160000160146101000a81548165ffffffffffff021916908365ffffffffffff160217905550612ea282613b6e565b81600001601a6101000a81548163ffffffff021916908363ffffffff1602179055507f7d84a6263ae0d98d3329bd7b46bb4e8d6f98cd35a7adb45c274c8b7fd5ebd5e084868b8b8d5167ffffffffffffffff811115612f0457612f0361464a565b5b604051908082528060200260200182016040528015612f3757816020015b6060815260200190600190039081612f225790505b508c89898b612f469190615eac565b8e604051612f5c99989796959493929190616323565b60405180910390a150505095945050505050565b6060612fa660007f0000000000000000000000000000000000000000000000000000000000000000613bc690919063ffffffff16565b905090565b6060612fe160017f0000000000000000000000000000000000000000000000000000000000000000613bc690919063ffffffff16565b905090565b6000612ff1436129c0565b905090565b600061300061200f565b73ffffffffffffffffffffffffffffffffffffffff16633a46b1a885856040518363ffffffff1660e01b815260040161303a9291906163d3565b602060405180830381865afa158015613057573d6000803e3d6000fd5b505050506040513d601f19601f8201168201806040525081019061307b9190616411565b90509392505050565b60008082600001805490509050600081146130e1576130b2836000016001836130ad9190615a61565b613a46565b60000160069054906101000a900479ffffffffffffffffffffffffffffffffffffffffffffffffffff166130e4565b60005b915050919050565b6000600754905090565b60608261310b5761310682613c76565b613113565b819050613114565b5b92915050565b60008163ffffffff16036131665760006040517ff1cfbf0500000000000000000000000000000000000000000000000000000000815260040161315d9190616479565b60405180910390fd5b7f7e3f7f0708a84de9203036abaa450dccc85ad5ff52f78c170f3edb55cf5e8828600860069054906101000a900463ffffffff16826040516131a99291906164c5565b60405180910390a180600860066101000a81548163ffffffff021916908363ffffffff16021790555050565b606060405180602001604052806000815250905090565b7fccb45da8d5717e6c4544694297c4ba5cf151d455c9bb0ed4fc7a38411bc054616007548260405161321f929190615e04565b60405180910390a18060078190555050565b600061323b611c80565b613244836117bb565b61324c61200f565b73ffffffffffffffffffffffffffffffffffffffff16638e539e8c856040518263ffffffff1660e01b81526004016132849190614492565b602060405180830381865afa1580156132a1573d6000803e3d6000fd5b505050506040513d601f19601f820116820180604052508101906132c59190616411565b6132cf91906164ee565b6132d9919061655f565b9050919050565b3660008036915091509091565b6000808260000160009054906101000a90046fffffffffffffffffffffffffffffffff1690508260000160109054906101000a90046fffffffffffffffffffffffffffffffff166fffffffffffffffffffffffffffffffff16816fffffffffffffffffffffffffffffffff1603613390576040517f75e52f4f00000000000000000000000000000000000000000000000000000000815260040160405180910390fd5b826001016000826fffffffffffffffffffffffffffffffff166fffffffffffffffffffffffffffffffff168152602001908152602001600020549150826001016000826fffffffffffffffffffffffffffffffff166fffffffffffffffffffffffffffffffff16815260200190815260200160002060009055600181018360000160006101000a8154816fffffffffffffffffffffffffffffffff02191690836fffffffffffffffffffffffffffffffff16021790555050919050565b600079ffffffffffffffffffffffffffffffffffffffffffffffffffff80168211156134b35760d0826040517f6dfcc6500000000000000000000000000000000000000000000000000000000081526004016134aa9291906165cb565b60405180910390fd5b819050919050565b6000806134cc856000018585613cbb565b91509150935093915050565b60007f000000000000000000000000000000000000000000000000000000000000000073ffffffffffffffffffffffffffffffffffffffff163073ffffffffffffffffffffffffffffffffffffffff1614801561355457507f000000000000000000000000000000000000000000000000000000000000000046145b15613581577f0000000000000000000000000000000000000000000000000000000000000000905061358c565b61358961403c565b90505b90565b60006040517f190100000000000000000000000000000000000000000000000000000000000081528360028201528260228201526042812091505092915050565b600080600060418451036136155760008060006020870151925060408701519150606087015160001a9050613607888285856140d2565b955095509550505050613625565b60006002855160001b9250925092505b9250925092565b60008060008573ffffffffffffffffffffffffffffffffffffffff16858560405160240161365b9291906165f4565b604051602081830303815290604052631626ba7e60e01b6020820180517bffffffffffffffffffffffffffffffffffffffffffffffffffffffff83818316178352505050506040516136ad9190615e95565b600060405180830381855afa9150503d80600081146136e8576040519150601f19603f3d011682016040523d82523d6000602084013e6136ed565b606091505b509150915081801561370157506020815110155b80156137455750631626ba7e60e01b7bffffffffffffffffffffffffffffffffffffffffffffffffffffffff1916818060200190518101906137439190616639565b145b925050509392505050565b60006009600087815260200190815260200160002090508060030160008673ffffffffffffffffffffffffffffffffffffffff1673ffffffffffffffffffffffffffffffffffffffff16815260200190815260200160002060009054906101000a900460ff16156137f857846040517f71c6af490000000000000000000000000000000000000000000000000000000081526004016137ef91906145f9565b60405180910390fd5b60018160030160008773ffffffffffffffffffffffffffffffffffffffff1673ffffffffffffffffffffffffffffffffffffffff16815260200190815260200160002060006101000a81548160ff0219169083151502179055506000600281111561386657613865614ba9565b5b60ff168460ff160361389257828160000160008282546138869190615eac565b92505081905550613945565b600160028111156138a6576138a5614ba9565b5b60ff168460ff16036138d257828160010160008282546138c69190615eac565b92505081905550613944565b6002808111156138e5576138e4614ba9565b5b60ff168460ff160361391157828160020160008282546139059190615eac565b92505081905550613943565b6040517f06b337c200000000000000000000000000000000000000000000000000000000815260040160405180910390fd5b5b5b505050505050565b600080820361395f5760009050613a41565b6000600161396c846141c6565b901c6001901b9050600181848161398657613985616530565b5b048201901c9050600181848161399f5761399e616530565b5b048201901c905060018184816139b8576139b7616530565b5b048201901c905060018184816139d1576139d0616530565b5b048201901c905060018184816139ea576139e9616530565b5b048201901c90506001818481613a0357613a02616530565b5b048201901c90506001818481613a1c57613a1b616530565b5b048201901c9050613a3d81828581613a3757613a36616530565b5b046142a7565b9150505b919050565b60008260005281602060002001905092915050565b60005b81831015613ac9576000613a7284846142c0565b90508465ffffffffffff16613a878783613a46565b60000160009054906101000a900465ffffffffffff1665ffffffffffff161115613ab357809250613ac3565b600181613ac09190615eac565b93505b50613a5e565b819050949350505050565b60008060008360f81c90508060ff16602f108015613af55750603a8160ff16105b15613b0a576001603082039250925050613b69565b8060ff166040108015613b20575060478160ff16105b15613b35576001603782039250925050613b69565b8060ff166060108015613b4b575060678160ff16105b15613b60576001605782039250925050613b69565b60008092509250505b915091565b600063ffffffff8016821115613bbe576020826040517f6dfcc650000000000000000000000000000000000000000000000000000000008152600401613bb59291906166a1565b60405180910390fd5b819050919050565b606060ff60001b8314613be357613bdc836142e6565b9050613c70565b818054613bef906157b0565b80601f0160208091040260200160405190810160405280929190818152602001828054613c1b906157b0565b8015613c685780601f10613c3d57610100808354040283529160200191613c68565b820191906000526020600020905b815481529060010190602001808311613c4b57829003601f168201915b505050505090505b92915050565b600081511115613c895780518082602001fd5b6040517f1425ea4200000000000000000000000000000000000000000000000000000000815260040160405180910390fd5b6000806000858054905090506000811115613f4c576000613ce887600184613ce39190615a61565b613a46565b6040518060400160405290816000820160009054906101000a900465ffffffffffff1665ffffffffffff1665ffffffffffff1681526020016000820160069054906101000a900479ffffffffffffffffffffffffffffffffffffffffffffffffffff1679ffffffffffffffffffffffffffffffffffffffffffffffffffff1679ffffffffffffffffffffffffffffffffffffffffffffffffffff168152505090508565ffffffffffff16816000015165ffffffffffff161115613dd7576040517f2520601d00000000000000000000000000000000000000000000000000000000815260040160405180910390fd5b8565ffffffffffff16816000015165ffffffffffff1603613e5b5784613e0988600185613e049190615a61565b613a46565b60000160066101000a81548179ffffffffffffffffffffffffffffffffffffffffffffffffffff021916908379ffffffffffffffffffffffffffffffffffffffffffffffffffff160217905550613f3b565b8660405180604001604052808865ffffffffffff1681526020018779ffffffffffffffffffffffffffffffffffffffffffffffffffff168152509080600181540180825580915050600190039060005260206000200160009091909190915060008201518160000160006101000a81548165ffffffffffff021916908365ffffffffffff16021790555060208201518160000160066101000a81548179ffffffffffffffffffffffffffffffffffffffffffffffffffff021916908379ffffffffffffffffffffffffffffffffffffffffffffffffffff16021790555050505b806020015185935093505050614034565b8560405180604001604052808765ffffffffffff1681526020018679ffffffffffffffffffffffffffffffffffffffffffffffffffff168152509080600181540180825580915050600190039060005260206000200160009091909190915060008201518160000160006101000a81548165ffffffffffff021916908365ffffffffffff16021790555060208201518160000160066101000a81548179ffffffffffffffffffffffffffffffffffffffffffffffffffff021916908379ffffffffffffffffffffffffffffffffffffffffffffffffffff160217905550505060008492509250505b935093915050565b60007f8b73c3c69bb8fe3d512ecc4cf759cc79239f7b179b0ffacaa9a75d522b39400f7f00000000000000000000000000000000000000000000000000000000000000007f000000000000000000000000000000000000000000000000000000000000000046306040516020016140b79594939291906166ca565b60405160208183030381529060405280519060200120905090565b60008060007f7fffffffffffffffffffffffffffffff5d576e7357a4501ddfe92f46681b20a08460001c11156141125760006003859250925092506141bc565b600060018888888860405160008152602001604052604051614137949392919061671d565b6020604051602081039080840390855afa158015614159573d6000803e3d6000fd5b505050602060405103519050600073ffffffffffffffffffffffffffffffffffffffff168173ffffffffffffffffffffffffffffffffffffffff16036141ad57600060016000801b935093509350506141bc565b8060008060001b935093509350505b9450945094915050565b600080600090506000608084901c11156141e857608083901c92506080810190505b6000604084901c111561420357604083901c92506040810190505b6000602084901c111561421e57602083901c92506020810190505b6000601084901c111561423957601083901c92506010810190505b6000600884901c111561425457600883901c92506008810190505b6000600484901c111561426f57600483901c92506004810190505b6000600284901c111561428a57600283901c92506002810190505b6000600184901c111561429e576001810190505b80915050919050565b60008183106142b657816142b8565b825b905092915050565b600060028284186142d1919061655f565b8284166142de9190615eac565b905092915050565b606060006142f38361435a565b90506000602067ffffffffffffffff8111156143125761431161464a565b5b6040519080825280601f01601f1916602001820160405280156143445781602001600182028036833780820191505090505b5090508181528360208201528092505050919050565b60008060ff8360001c169050601f8111156143a1576040517fb3512b0c00000000000000000000000000000000000000000000000000000000815260040160405180910390fd5b80915050919050565b6000604051905090565b600080fd5b600080fd5b60007fffffffff0000000000000000000000000000000000000000000000000000000082169050919050565b6143f3816143be565b81146143fe57600080fd5b50565b600081359050614410816143ea565b92915050565b60006020828403121561442c5761442b6143b4565b5b600061443a84828501614401565b91505092915050565b60008115159050919050565b61445881614443565b82525050565b6000602082019050614473600083018461444f565b92915050565b6000819050919050565b61448c81614479565b82525050565b60006020820190506144a76000830184614483565b92915050565b6144b681614479565b81146144c157600080fd5b50565b6000813590506144d3816144ad565b92915050565b6000602082840312156144ef576144ee6143b4565b5b60006144fd848285016144c4565b91505092915050565b600081519050919050565b600082825260208201905092915050565b60005b83811015614540578082015181840152602081019050614525565b60008484015250505050565b6000601f19601f8301169050919050565b600061456882614506565b6145728185614511565b9350614582818560208601614522565b61458b8161454c565b840191505092915050565b600060208201905081810360008301526145b0818461455d565b905092915050565b600073ffffffffffffffffffffffffffffffffffffffff82169050919050565b60006145e3826145b8565b9050919050565b6145f3816145d8565b82525050565b600060208201905061460e60008301846145ea565b92915050565b61461d816145d8565b811461462857600080fd5b50565b60008135905061463a81614614565b92915050565b600080fd5b600080fd5b7f4e487b7100000000000000000000000000000000000000000000000000000000600052604160045260246000fd5b6146828261454c565b810181811067ffffffffffffffff821117156146a1576146a061464a565b5b80604052505050565b60006146b46143aa565b90506146c08282614679565b919050565b600067ffffffffffffffff8211156146e0576146df61464a565b5b6146e98261454c565b9050602081019050919050565b82818337600083830152505050565b6000614718614713846146c5565b6146aa565b90508281526020810184848401111561473457614733614645565b5b61473f8482856146f6565b509392505050565b600082601f83011261475c5761475b614640565b5b813561476c848260208601614705565b91505092915050565b6000806000806080858703121561478f5761478e6143b4565b5b600061479d8782880161462b565b94505060206147ae8782880161462b565b93505060406147bf878288016144c4565b925050606085013567ffffffffffffffff8111156147e0576147df6143b9565b5b6147ec87828801614747565b91505092959194509250565b614801816143be565b82525050565b600060208201905061481c60008301846147f8565b92915050565b600067ffffffffffffffff82111561483d5761483c61464a565b5b602082029050602081019050919050565b600080fd5b600061486661486184614822565b6146aa565b905080838252602082019050602084028301858111156148895761488861484e565b5b835b818110156148b2578061489e888261462b565b84526020840193505060208101905061488b565b5050509392505050565b600082601f8301126148d1576148d0614640565b5b81356148e1848260208601614853565b91505092915050565b600067ffffffffffffffff8211156149055761490461464a565b5b602082029050602081019050919050565b6000614929614924846148ea565b6146aa565b9050808382526020820190506020840283018581111561494c5761494b61484e565b5b835b81811015614975578061496188826144c4565b84526020840193505060208101905061494e565b5050509392505050565b600082601f83011261499457614993614640565b5b81356149a4848260208601614916565b91505092915050565b600067ffffffffffffffff8211156149c8576149c761464a565b5b602082029050602081019050919050565b60006149ec6149e7846149ad565b6146aa565b90508083825260208201905060208402830185811115614a0f57614a0e61484e565b5b835b81811015614a5657803567ffffffffffffffff811115614a3457614a33614640565b5b808601614a418982614747565b85526020850194505050602081019050614a11565b5050509392505050565b600082601f830112614a7557614a74614640565b5b8135614a858482602086016149d9565b91505092915050565b6000819050919050565b614aa181614a8e565b8114614aac57600080fd5b50565b600081359050614abe81614a98565b92915050565b60008060008060808587031215614ade57614add6143b4565b5b600085013567ffffffffffffffff811115614afc57614afb6143b9565b5b614b08878288016148bc565b945050602085013567ffffffffffffffff811115614b2957614b286143b9565b5b614b358782880161497f565b935050604085013567ffffffffffffffff811115614b5657614b556143b9565b5b614b6287828801614a60565b9250506060614b7387828801614aaf565b91505092959194509250565b614b8881614a8e565b82525050565b6000602082019050614ba36000830184614b7f565b92915050565b7f4e487b7100000000000000000000000000000000000000000000000000000000600052602160045260246000fd5b60088110614be957614be8614ba9565b5b50565b6000819050614bfa82614bd8565b919050565b6000614c0a82614bec565b9050919050565b614c1a81614bff565b82525050565b6000602082019050614c356000830184614c11565b92915050565b60008060408385031215614c5257614c516143b4565b5b6000614c60858286016144c4565b9250506020614c718582860161462b565b9150509250929050565b6000606082019050614c906000830186614483565b614c9d6020830185614483565b614caa6040830184614483565b949350505050565b600060ff82169050919050565b614cc881614cb2565b8114614cd357600080fd5b50565b600081359050614ce581614cbf565b92915050565b60008060408385031215614d0257614d016143b4565b5b6000614d10858286016144c4565b9250506020614d2185828601614cd6565b9150509250929050565b600080fd5b60008083601f840112614d4657614d45614640565b5b8235905067ffffffffffffffff811115614d6357614d62614d2b565b5b602083019150836001820283011115614d7f57614d7e61484e565b5b9250929050565b600080600080600080600060c0888a031215614da557614da46143b4565b5b6000614db38a828b016144c4565b9750506020614dc48a828b01614cd6565b9650506040614dd58a828b0161462b565b955050606088013567ffffffffffffffff811115614df657614df56143b9565b5b614e028a828b01614d30565b9450945050608088013567ffffffffffffffff811115614e2557614e246143b9565b5b614e318a828b01614747565b92505060a088013567ffffffffffffffff811115614e5257614e516143b9565b5b614e5e8a828b01614747565b91505092959891949750929550565b600080600080600060808688031215614e8957614e886143b4565b5b6000614e97888289016144c4565b9550506020614ea888828901614cd6565b945050604086013567ffffffffffffffff811115614ec957614ec86143b9565b5b614ed588828901614d30565b9350935050606086013567ffffffffffffffff811115614ef857614ef76143b9565b5b614f0488828901614747565b9150509295509295909350565b600065ffffffffffff82169050919050565b614f2c81614f11565b8114614f3757600080fd5b50565b600081359050614f4981614f23565b92915050565b600060208284031215614f6557614f646143b4565b5b6000614f7384828501614f3a565b91505092915050565b60008060008060608587031215614f9657614f956143b4565b5b6000614fa4878288016144c4565b9450506020614fb587828801614cd6565b935050604085013567ffffffffffffffff811115614fd657614fd56143b9565b5b614fe287828801614d30565b925092505092959194509250565b600067ffffffffffffffff82111561500b5761500a61464a565b5b6150148261454c565b9050602081019050919050565b600061503461502f84614ff0565b6146aa565b9050828152602081018484840111156150505761504f614645565b5b61505b8482856146f6565b509392505050565b600082601f83011261507857615077614640565b5b8135615088848260208601615021565b91505092915050565b600080600080608085870312156150ab576150aa6143b4565b5b600085013567ffffffffffffffff8111156150c9576150c86143b9565b5b6150d5878288016148bc565b945050602085013567ffffffffffffffff8111156150f6576150f56143b9565b5b6151028782880161497f565b935050604085013567ffffffffffffffff811115615123576151226143b9565b5b61512f87828801614a60565b925050606085013567ffffffffffffffff8111156151505761514f6143b9565b5b61515c87828801615063565b91505092959194509250565b60006020828403121561517e5761517d6143b4565b5b600061518c8482850161462b565b91505092915050565b60007fff0000000000000000000000000000000000000000000000000000000000000082169050919050565b6151ca81615195565b82525050565b600081519050919050565b600082825260208201905092915050565b6000819050602082019050919050565b61520581614479565b82525050565b600061521783836151fc565b60208301905092915050565b6000602082019050919050565b600061523b826151d0565b61524581856151db565b9350615250836151ec565b8060005b83811015615281578151615268888261520b565b975061527383615223565b925050600181019050615254565b5085935050505092915050565b600060e0820190506152a3600083018a6151c1565b81810360208301526152b5818961455d565b905081810360408301526152c9818861455d565b90506152d86060830187614483565b6152e560808301866145ea565b6152f260a0830185614b7f565b81810360c08301526153048184615230565b905098975050505050505050565b6000806000806080858703121561532c5761532b6143b4565b5b600061533a878288016144c4565b945050602061534b87828801614cd6565b935050604061535c8782880161462b565b925050606085013567ffffffffffffffff81111561537d5761537c6143b9565b5b61538987828801614747565b91505092959194509250565b61539e81614f11565b82525050565b60006020820190506153b96000830184615395565b92915050565b6000806000606084860312156153d8576153d76143b4565b5b60006153e68682870161462b565b93505060206153f7868287016144c4565b925050604084013567ffffffffffffffff811115615418576154176143b9565b5b61542486828701614747565b9150509250925092565b600080600080600060a0868803121561544a576154496143b4565b5b60006154588882890161462b565b95505060206154698882890161462b565b945050604086013567ffffffffffffffff81111561548a576154896143b9565b5b6154968882890161497f565b935050606086013567ffffffffffffffff8111156154b7576154b66143b9565b5b6154c38882890161497f565b925050608086013567ffffffffffffffff8111156154e4576154e36143b9565b5b6154f088828901614747565b9150509295509295909350565b60008083601f84011261551357615512614640565b5b8235905067ffffffffffffffff8111156155305761552f614d2b565b5b60208301915083600182028301111561554c5761554b61484e565b5b9250929050565b6000806000806060858703121561556d5761556c6143b4565b5b600061557b8782880161462b565b945050602061558c878288016144c4565b935050604085013567ffffffffffffffff8111156155ad576155ac6143b9565b5b6155b9878288016154fd565b925092505092959194509250565b600063ffffffff82169050919050565b6155e0816155c7565b81146155eb57600080fd5b50565b6000813590506155fd816155d7565b92915050565b600060208284031215615619576156186143b4565b5b6000615627848285016155ee565b91505092915050565b60008060408385031215615647576156466143b4565b5b60006156558582860161462b565b9250506020615666858286016144c4565b9150509250929050565b600080600080600060a0868803121561568c5761568b6143b4565b5b600061569a8882890161462b565b95505060206156ab8882890161462b565b94505060406156bc888289016144c4565b93505060606156cd888289016144c4565b925050608086013567ffffffffffffffff8111156156ee576156ed6143b9565b5b6156fa88828901614747565b9150509295509295909350565b6000819050919050565b600061572c615727615722846145b8565b615707565b6145b8565b9050919050565b600061573e82615711565b9050919050565b600061575082615733565b9050919050565b61576081615745565b82525050565b600060208201905061577b6000830184615757565b92915050565b7f4e487b7100000000000000000000000000000000000000000000000000000000600052602260045260246000fd5b600060028204905060018216806157c857607f821691505b6020821081036157db576157da615781565b5b50919050565b60006157fc6157f76157f284614f11565b615707565b614479565b9050919050565b61580c816157e1565b82525050565b60006040820190506158276000830185614483565b6158346020830184615803565b9392505050565b7f4e487b7100000000000000000000000000000000000000000000000000000000600052603260045260246000fd5b7f4e487b7100000000000000000000000000000000000000000000000000000000600052601160045260246000fd5b60006158a482614479565b91507fffffffffffffffffffffffffffffffffffffffffffffffffffffffffffffffff82036158d6576158d561586a565b5b600182019050919050565b60006158f46158ef84614ff0565b6146aa565b9050828152602081018484840111156159105761590f614645565b5b61591b848285614522565b509392505050565b600082601f83011261593857615937614640565b5b81516159488482602086016158e1565b91505092915050565b600060208284031215615967576159666143b4565b5b600082015167ffffffffffffffff811115615985576159846143b9565b5b61599184828501615923565b91505092915050565b600081905092915050565b60006159b1838561599a565b93506159be8385846146f6565b82840190509392505050565b60006159d78284866159a5565b91508190509392505050565b6159ec81614cb2565b82525050565b600060e082019050615a07600083018a614b7f565b615a146020830189614483565b615a2160408301886159e3565b615a2e60608301876145ea565b615a3b6080830186614483565b615a4860a0830185614b7f565b615a5560c0830184614b7f565b98975050505050505050565b6000615a6c82614479565b9150615a7783614479565b9250828203905081811115615a8f57615a8e61586a565b5b92915050565b6000615aa082614f11565b9150615aab83614f11565b9250828203905065ffffffffffff811115615ac957615ac861586a565b5b92915050565b6000606082019050615ae460008301866145ea565b615af16020830185614483565b615afe6040830184614483565b949350505050565b600060a082019050615b1b6000830188614b7f565b615b286020830187614483565b615b3560408301866159e3565b615b4260608301856145ea565b615b4f6080830184614483565b9695505050505050565b600081519050615b6881614f23565b92915050565b600060208284031215615b8457615b836143b4565b5b6000615b9284828501615b59565b91505092915050565b6000615ba682614f11565b9150615bb183614f11565b9250828201905065ffffffffffff811115615bcf57615bce61586a565b5b92915050565b600081519050919050565b600082825260208201905092915050565b6000819050602082019050919050565b615c0a816145d8565b82525050565b6000615c1c8383615c01565b60208301905092915050565b6000602082019050919050565b6000615c4082615bd5565b615c4a8185615be0565b9350615c5583615bf1565b8060005b83811015615c86578151615c6d8882615c10565b9750615c7883615c28565b925050600181019050615c59565b5085935050505092915050565b600081519050919050565b600082825260208201905092915050565b6000819050602082019050919050565b600081519050919050565b600082825260208201905092915050565b6000615ce682615cbf565b615cf08185615cca565b9350615d00818560208601614522565b615d098161454c565b840191505092915050565b6000615d208383615cdb565b905092915050565b6000602082019050919050565b6000615d4082615c93565b615d4a8185615c9e565b935083602082028501615d5c85615caf565b8060005b85811015615d985784840389528151615d798582615d14565b9450615d8483615d28565b925060208a01995050600181019050615d60565b50829750879550505050505092915050565b60006080820190508181036000830152615dc48187615c35565b90508181036020830152615dd88186615230565b90508181036040830152615dec8185615d35565b9050615dfb6060830184614b7f565b95945050505050565b6000604082019050615e196000830185614483565b615e266020830184614483565b9392505050565b6000606082019050615e426000830186614483565b615e4f6020830185614c11565b615e5c6040830184614b7f565b949350505050565b6000615e6f82615cbf565b615e79818561599a565b9350615e89818560208601614522565b80840191505092915050565b6000615ea18284615e64565b915081905092915050565b6000615eb782614479565b9150615ec283614479565b9250828201905080821115615eda57615ed961586a565b5b92915050565b6000615eeb82614cb2565b9150615ef683614cb2565b9250828201905060ff811115615f0f57615f0e61586a565b5b92915050565b60008160011c9050919050565b6000808291508390505b6001851115615f6c57808604811115615f4857615f4761586a565b5b6001851615615f575780820291505b8081029050615f6585615f15565b9450615f2c565b94509492505050565b600082615f855760019050616041565b81615f935760009050616041565b8160018114615fa95760028114615fb357615fe2565b6001915050616041565b60ff841115615fc557615fc461586a565b5b8360020a915084821115615fdc57615fdb61586a565b5b50616041565b5060208310610133831016604e8410600b84101617156160175782820a9050838111156160125761601161586a565b5b616041565b6160248484846001615f22565b9250905081840481111561603b5761603a61586a565b5b81810290505b9392505050565b600061605382614479565b915061605e83614cb2565b925061608b7fffffffffffffffffffffffffffffffffffffffffffffffffffffffffffffffff8484615f75565b905092915050565b60006080820190506160a86000830187614483565b6160b560208301866159e3565b6160c26040830185614483565b81810360608301526160d4818461455d565b905095945050505050565b600082825260208201905092915050565b60006160fb82615cbf565b61610581856160df565b9350616115818560208601614522565b61611e8161454c565b840191505092915050565b600060a08201905061613e6000830188614483565b61614b60208301876159e3565b6161586040830186614483565b818103606083015261616a818561455d565b9050818103608083015261617e81846160f0565b90509695505050505050565b6000819050919050565b60006161af6161aa6161a58461618a565b615707565b614cb2565b9050919050565b6161bf81616194565b82525050565b60006040820190506161da60008301856161b6565b6161e76020830184614483565b9392505050565b60006040820190506162036000830185615803565b6162106020830184615803565b9392505050565b600081519050919050565b600082825260208201905092915050565b6000819050602082019050919050565b600082825260208201905092915050565b600061625f82614506565b6162698185616243565b9350616279818560208601614522565b6162828161454c565b840191505092915050565b60006162998383616254565b905092915050565b6000602082019050919050565b60006162b982616217565b6162c38185616222565b9350836020820285016162d585616233565b8060005b8581101561631157848403895281516162f2858261628d565b94506162fd836162a1565b925060208a019950506001810190506162d9565b50829750879550505050505092915050565b600061012082019050616339600083018c614483565b616346602083018b6145ea565b8181036040830152616358818a615c35565b9050818103606083015261636c8189615230565b9050818103608083015261638081886162ae565b905081810360a08301526163948187615d35565b90506163a360c0830186614483565b6163b060e0830185614483565b8181036101008301526163c3818461455d565b90509a9950505050505050505050565b60006040820190506163e860008301856145ea565b6163f56020830184614483565b9392505050565b60008151905061640b816144ad565b92915050565b600060208284031215616427576164266143b4565b5b6000616435848285016163fc565b91505092915050565b6000819050919050565b600061646361645e6164598461643e565b615707565b614479565b9050919050565b61647381616448565b82525050565b600060208201905061648e600083018461646a565b92915050565b60006164af6164aa6164a5846155c7565b615707565b614479565b9050919050565b6164bf81616494565b82525050565b60006040820190506164da60008301856164b6565b6164e760208301846164b6565b9392505050565b60006164f982614479565b915061650483614479565b925082820261651281614479565b915082820484148315176165295761652861586a565b5b5092915050565b7f4e487b7100000000000000000000000000000000000000000000000000000000600052601260045260246000fd5b600061656a82614479565b915061657583614479565b92508261658557616584616530565b5b828204905092915050565b6000819050919050565b60006165b56165b06165ab84616590565b615707565b614cb2565b9050919050565b6165c58161659a565b82525050565b60006040820190506165e060008301856165bc565b6165ed6020830184614483565b9392505050565b60006040820190506166096000830185614b7f565b818103602083015261661b81846160f0565b90509392505050565b60008151905061663381614a98565b92915050565b60006020828403121561664f5761664e6143b4565b5b600061665d84828501616624565b91505092915050565b6000819050919050565b600061668b61668661668184616666565b615707565b614cb2565b9050919050565b61669b81616670565b82525050565b60006040820190506166b66000830185616692565b6166c36020830184614483565b9392505050565b600060a0820190506166df6000830188614b7f565b6166ec6020830187614b7f565b6166f96040830186614b7f565b6167066060830185614483565b61671360808301846145ea565b9695505050505050565b60006080820190506167326000830187614b7f565b61673f60208301866159e3565b61674c6040830185614b7f565b6167596060830184614b7f565b9594505050505056fea2646970667358221220f1bd6f26b6bfe9f097131adf79cd2362a97bf35522f3f49f8385dc7352abb2a364736f6c63430008140033",
  "linkReferences": {},
  "deployedLinkReferences": {}
}