{
  "_format": "hh-sol-artifact-1",
  "contractName": "GovernanceToken",
  "sourceName": "contracts/GovernanceToken.sol",
  "abi": [
    {
      "inputs": [
        {
          "internalType": "address",
          "name": "initialOwner",
          "type": "address"
        }
      ],
      "stateMutability": "nonpayable",
      "type": "constructor"
    },
    {
      "inputs": [],
      "name": "CheckpointUnorderedInsertion",
      "type": "error"
    },
    {
      "inputs": [],
      "name": "ECDSAInvalidSignature",
      "type": "error"
    },
    {
      "inputs": [
        {
          "internalType": "uint256",
          "name": "length",
          "type": "uint256"
        }
      ],
      "name": "ECDSAInvalidSignatureLength",
      "type": "error"
    },
    {
      "inputs": [
        {
          "internalType": "bytes32",
          "name": "s",
          "type": "bytes32"
        }
      ],
      "name": "ECDSAInvalidSignatureS",
      "type": "error"
    },
    {
      "inputs": [
        {
          "internalType": "uint256",
          "name": "increasedSupply",
          "type": "uint256"
        },
        {
          "internalType": "uint256",
          "name": "cap",
          "type": "uint256"
        }
      ],
      "name": "ERC20ExceededSafeSupply",
      "type": "error"
    },
    {
      "inputs": [
        {
          "internalType": "address",
          "name": "spender",
          "type": "address"
        },
        {
          "internalType": "uint256",
          "name": "allowance",
          "type": "uint256"
        },
        {
          "internalType": "uint256",
          "name": "needed",
          "type": "uint256"
        }
      ],
      "name": "ERC20InsufficientAllowance",
      "type": "error"
    },
    {
      "inputs": [
        {
          "internalType": "address",
          "name": "sender",
          "type": "address"
        },
        {
          "internalType": "uint256",
          "name": "balance",
          "type": "uint256"
        },
        {
          "internalType": "uint256",
          "name": "needed",
          "type": "uint256"
        }
      ],
      "name": "ERC20InsufficientBalance",
      "type": "error"
    },
    {
      "inputs": [
        {
          "internalType": "address",
          "name": "approver",
          "type": "address"
        }
      ],
      "name": "ERC20InvalidApprover",
      "type": "error"
    },
    {
      "inputs": [
        {
          "internalType": "address",
          "name": "receiver",
          "type": "address"
        }
      ],
      "name": "ERC20InvalidReceiver",
      "type": "error"
    },
    {
      "inputs": [
        {
          "internalType": "address",
          "name": "sender",
          "type": "address"
        }
      ],
      "name": "ERC20InvalidSender",
      "type": "error"
    },
    {
      "inputs": [
        {
          "internalType": "address",
          "name": "spender",
          "type": "address"
        }
      ],
      "name": "ERC20InvalidSpender",
      "type": "error"
    },
    {
      "inputs": [
        {
          "internalType": "uint256",
          "name": "deadline",
          "type": "uint256"
        }
      ],
      "name": "ERC2612ExpiredSignature",
      "type": "error"
    },
    {
      "inputs": [
        {
          "internalType": "address",
          "name": "signer",
          "type": "address"
        },
        {
          "internalType": "address",
          "name": "owner",
          "type": "address"
        }
      ],
      "name": "ERC2612InvalidSigner",
      "type": "error"
    },
    {
      "inputs": [
        {
          "internalType": "uint256",
          "name": "timepoint",
          "type": "uint256"
        },
        {
          "internalType": "uint48",
          "name": "clock",
          "type": "uint48"
        }
      ],
      "name": "ERC5805FutureLookup",
      "type": "error"
    },
    {
      "inputs": [],
      "name": "ERC6372InconsistentClock",
      "type": "error"
    },
    {
      "inputs": [
        {
          "internalType": "address",
          "name": "account",
          "type": "address"
        },
        {
          "internalType": "uint256",
          "name": "currentNonce",
          "type": "uint256"
        }
      ],
      "name": "InvalidAccountNonce",
      "type": "error"
    },
    {
      "inputs": [],
      "name": "InvalidShortString",
      "type": "error"
    },
    {
      "inputs": [
        {
          "internalType": "address",
          "name": "owner",
          "type": "address"
        }
      ],
      "name": "OwnableInvalidOwner",
      "type": "error"
    },
    {
      "inputs": [
        {
          "internalType": "address",
          "name": "account",
          "type": "address"
        }
      ],
      "name": "OwnableUnauthorizedAccount",
      "type": "error"
    },
    {
      "inputs": [
        {
          "internalType": "uint8",
          "name": "bits",
          "type": "uint8"
        },
        {
          "internalType": "uint256",
          "name": "value",
          "type": "uint256"
        }
      ],
      "name": "SafeCastOverflowedUintDowncast",
      "type": "error"
    },
    {
      "inputs": [
        {
          "internalType": "string",
          "name": "str",
          "type": "string"
        }
      ],
      "name": "StringTooLong",
      "type": "error"
    },
    {
      "inputs": [
        {
          "internalType": "uint256",
          "name": "expiry",
          "type": "uint256"
        }
      ],
      "name": "VotesExpiredSignature",
      "type": "error"
    },
    {
      "anonymous": false,
      "inputs": [
        {
          "indexed": true,
          "internalType": "address",
          "name": "owner",
          "type": "address"
        },
        {
          "indexed": true,
          "internalType": "address",
          "name": "spender",
          "type": "address"
        },
        {
          "indexed": false,
          "internalType": "uint256",
          "name": "value",
          "type": "uint256"
        }
      ],
      "name": "Approval",
      "type": "event"
    },
    {
      "anonymous": false,
      "inputs": [
        {
          "indexed": true,
          "internalType": "address",
          "name": "delegator",
          "type": "address"
        },
        {
          "indexed": true,
          "internalType": "address",
          "name": "fromDelegate",
          "type": "address"
        },
        {
          "indexed": true,
          "internalType": "address",
          "name": "toDelegate",
          "type": "address"
        }
      ],
      "name": "DelegateChanged",
      "type": "event"
    },
    {
      "anonymous": false,
      "inputs": [
        {
          "indexed": true,
          "internalType": "address",
          "name": "delegate",
          "type": "address"
        },
        {
          "indexed": false,
          "internalType": "uint256",
          "name": "previousVotes",
          "type": "uint256"
        },
        {
          "indexed": false,
          "internalType": "uint256",
          "name": "newVotes",
          "type": "uint256"
        }
      ],
      "name": "DelegateVotesChanged",
      "type": "event"
    },
    {
      "anonymous": false,
      "inputs": [],
      "name": "EIP712DomainChanged",
      "type": "event"
    },
    {
      "anonymous": false,
      "inputs": [
        {
          "indexed": true,
          "internalType": "address",
          "name": "previousOwner",
          "type": "address"
        },
        {
          "indexed": true,
          "internalType": "address",
          "name": "newOwner",
          "type": "address"
        }
      ],
      "name": "OwnershipTransferred",
      "type": "event"
    },
    {
      "anonymous": false,
      "inputs": [
        {
          "indexed": true,
          "internalType": "address",
          "name": "from",
          "type": "address"
        },
        {
          "indexed": true,
          "internalType": "address",
          "name": "to",
          "type": "address"
        },
        {
          "indexed": false,
          "internalType": "uint256",
          "name": "value",
          "type": "uint256"
        }
      ],
      "name": "Transfer",
      "type": "event"
    },
    {
      "inputs": [],
      "name": "CLOCK_MODE",
      "outputs": [
        {
          "internalType": "string",
          "name": "",
          "type": "string"
        }
      ],
      "stateMutability": "view",
      "type": "function"
    },
    {
      "inputs": [],
      "name": "DOMAIN_SEPARATOR",
      "outputs": [
        {
          "internalType": "bytes32",
          "name": "",
          "type": "bytes32"
        }
      ],
      "stateMutability": "view",
      "type": "function"
    },
    {
      "inputs": [
        {
          "internalType": "address",
          "name": "owner",
          "type": "address"
        },
        {
          "internalType": "address",
          "name": "spender",
          "type": "address"
        }
      ],
      "name": "allowance",
      "outputs": [
        {
          "internalType": "uint256",
          "name": "",
          "type": "uint256"
        }
      ],
      "stateMutability": "view",
      "type": "function"
    },
    {
      "inputs": [
        {
          "internalType": "address",
          "name": "spender",
          "type": "address"
        },
        {
          "internalType": "uint256",
          "name": "value",
          "type": "uint256"
        }
      ],
      "name": "approve",
      "outputs": [
        {
          "internalType": "bool",
          "name": "",
          "type": "bool"
        }
      ],
      "stateMutability": "nonpayable",
      "type": "function"
    },
    {
      "inputs": [
        {
          "internalType": "address",
          "name": "account",
          "type": "address"
        }
      ],
      "name": "balanceOf",
      "outputs": [
        {
          "internalType": "uint256",
          "name": "",
          "type": "uint256"
        }
      ],
      "stateMutability": "view",
      "type": "function"
    },
    {
      "inputs": [
        {
          "internalType": "address",
          "name": "account",
          "type": "address"
        },
        {
          "internalType": "uint32",
          "name": "pos",
          "type": "uint32"
        }
      ],
      "name": "checkpoints",
      "outputs": [
        {
          "components": [
            {
              "internalType": "uint48",
              "name": "_key",
              "type": "uint48"
            },
            {
              "internalType": "uint208",
              "name": "_value",
              "type": "uint208"
            }
          ],
          "internalType": "struct Checkpoints.Checkpoint208",
          "name": "",
          "type": "tuple"
        }
      ],
      "stateMutability": "view",
      "type": "function"
    },
    {
      "inputs": [],
      "name": "clock",
      "outputs": [
        {
          "internalType": "uint48",
          "name": "",
          "type": "uint48"
        }
      ],
      "stateMutability": "view",
      "type": "function"
    },
    {
      "inputs": [],
      "name": "decimals",
      "outputs": [
        {
          "internalType": "uint8",
          "name": "",
          "type": "uint8"
        }
      ],
      "stateMutability": "view",
      "type": "function"
    },
    {
      "inputs": [
        {
          "internalType": "address",
          "name": "delegatee",
          "type": "address"
        }
      ],
      "name": "delegate",
      "outputs": [],
      "stateMutability": "nonpayable",
      "type": "function"
    },
    {
      "inputs": [
        {
          "internalType": "address",
          "name": "delegatee",
          "type": "address"
        },
        {
          "internalType": "uint256",
          "name": "nonce",
          "type": "uint256"
        },
        {
          "internalType": "uint256",
          "name": "expiry",
          "type": "uint256"
        },
        {
          "internalType": "uint8",
          "name": "v",
          "type": "uint8"
        },
        {
          "internalType": "bytes32",
          "name": "r",
          "type": "bytes32"
        },
        {
          "internalType": "bytes32",
          "name": "s",
          "type": "bytes32"
        }
      ],
      "name": "delegateBySig",
      "outputs": [],
      "stateMutability": "nonpayable",
      "type": "function"
    },
    {
      "inputs": [
        {
          "internalType": "address",
          "name": "account",
          "type": "address"
        }
      ],
      "name": "delegates",
      "outputs": [
        {
          "internalType": "address",
          "name": "",
          "type": "address"
        }
      ],
      "stateMutability": "view",
      "type": "function"
    },
    {
      "inputs": [],
      "name": "eip712Domain",
      "outputs": [
        {
          "internalType": "bytes1",
          "name": "fields",
          "type": "bytes1"
        },
        {
          "internalType": "string",
          "name": "name",
          "type": "string"
        },
        {
          "internalType": "string",
          "name": "version",
          "type": "string"
        },
        {
          "internalType": "uint256",
          "name": "chainId",
          "type": "uint256"
        },
        {
          "internalType": "address",
          "name": "verifyingContract",
          "type": "address"
        },
        {
          "internalType": "bytes32",
          "name": "salt",
          "type": "bytes32"
        },
        {
          "internalType": "uint256[]",
          "name": "extensions",
          "type": "uint256[]"
        }
      ],
      "stateMutability": "view",
      "type": "function"
    },
    {
      "inputs": [
        {
          "internalType": "uint256",
          "name": "timepoint",
          "type": "uint256"
        }
      ],
      "name": "getPastTotalSupply",
      "outputs": [
        {
          "internalType": "uint256",
          "name": "",
          "type": "uint256"
        }
      ],
      "stateMutability": "view",
      "type": "function"
    },
    {
      "inputs": [
        {
          "internalType": "address",
          "name": "account",
          "type": "address"
        },
        {
          "internalType": "uint256",
          "name": "timepoint",
          "type": "uint256"
        }
      ],
      "name": "getPastVotes",
      "outputs": [
        {
          "internalType": "uint256",
          "name": "",
          "type": "uint256"
        }
      ],
      "stateMutability": "view",
      "type": "function"
    },
    {
      "inputs": [
        {
          "internalType": "address",
          "name": "account",
          "type": "address"
        }
      ],
      "name": "getVotes",
      "outputs": [
        {
          "internalType": "uint256",
          "name": "",
          "type": "uint256"
        }
      ],
      "stateMutability": "view",
      "type": "function"
    },
    {
      "inputs": [
        {
          "internalType": "address",
          "name": "to",
          "type": "address"
        },
        {
          "internalType": "uint256",
          "name": "amount",
          "type": "uint256"
        }
      ],
      "name": "mint",
      "outputs": [],
      "stateMutability": "nonpayable",
      "type": "function"
    },
    {
      "inputs": [],
      "name": "name",
      "outputs": [
        {
          "internalType": "string",
          "name": "",
          "type": "string"
        }
      ],
      "stateMutability": "view",
      "type": "function"
    },
    {
      "inputs": [
        {
          "internalType": "address",
          "name": "owner",
          "type": "address"
        }
      ],
      "name": "nonces",
      "outputs": [
        {
          "internalType": "uint256",
          "name": "",
          "type": "uint256"
        }
      ],
      "stateMutability": "view",
      "type": "function"
    },
    {
      "inputs": [
        {
          "internalType": "address",
          "name": "account",
          "type": "address"
        }
      ],
      "name": "numCheckpoints",
      "outputs": [
        {
          "internalType": "uint32",
          "name": "",
          "type": "uint32"
        }
      ],
      "stateMutability": "view",
      "type": "function"
    },
    {
      "inputs": [],
      "name": "owner",
      "outputs": [
        {
          "internalType": "address",
          "name": "",
          "type": "address"
        }
      ],
      "stateMutability": "view",
      "type": "function"
    },
    {
      "inputs": [
        {
          "internalType": "address",
          "name": "owner",
          "type": "address"
        },
        {
          "internalType": "address",
          "name": "spender",
          "type": "address"
        },
        {
          "internalType": "uint256",
          "name": "value",
          "type": "uint256"
        },
        {
          "internalType": "uint256",
          "name": "deadline",
          "type": "uint256"
        },
        {
          "internalType": "uint8",
          "name": "v",
          "type": "uint8"
        },
        {
          "internalType": "bytes32",
          "name": "r",
          "type": "bytes32"
        },
        {
          "internalType": "bytes32",
          "name": "s",
          "type": "bytes32"
        }
      ],
      "name": "permit",
      "outputs": [],
      "stateMutability": "nonpayable",
      "type": "function"
    },
    {
      "inputs": [],
      "name": "renounceOwnership",
      "outputs": [],
      "stateMutability": "nonpayable",
      "type": "function"
    },
    {
      "inputs": [],
      "name": "symbol",
      "outputs": [
        {
          "internalType": "string",
          "name": "",
          "type": "string"
        }
      ],
      "stateMutability": "view",
      "type": "function"
    },
    {
      "inputs": [],
      "name": "totalSupply",
      "outputs": [
        {
          "internalType": "uint256",
          "name": "",
          "type": "uint256"
        }
      ],
      "stateMutability": "view",
      "type": "function"
    },
    {
      "inputs": [
        {
          "internalType": "address",
          "name": "to",
          "type": "address"
        },
        {
          "internalType": "uint256",
          "name": "value",
          "type": "uint256"
        }
      ],
      "name": "transfer",
      "outputs": [
        {
          "internalType": "bool",
          "name": "",
          "type": "bool"
        }
      ],
      "stateMutability": "nonpayable",
      "type": "function"
    },
    {
      "inputs": [
        {
          "internalType": "address",
          "name": "from",
          "type": "address"
        },
        {
          "internalType": "address",
          "name": "to",
          "type": "address"
        },
        {
          "internalType": "uint256",
          "name": "value",
          "type": "uint256"
        }
      ],
      "name": "transferFrom",
      "outputs": [
        {
          "internalType": "bool",
          "name": "",
          "type": "bool"
        }
      ],
      "stateMutability": "nonpayable",
      "type": "function"
    },
    {
      "inputs": [
        {
          "internalType": "address",
          "name": "newOwner",
          "type": "address"
        }
      ],
      "name": "transferOwnership",
      "outputs": [],
      "stateMutability": "nonpayable",
      "type": "function"
    }
  ],
  "bytecode": "0x6101606040523480156200001257600080fd5b5060405162005979380380620059798339818101604052810190620000389190620012d9565b6040518060400160405280600f81526020017f476f7665726e616e6365546f6b656e0000000000000000000000000000000000815250806040518060400160405280600181526020017f3100000000000000000000000000000000000000000000000000000000000000815250836040518060400160405280600f81526020017f476f7665726e616e6365546f6b656e00000000000000000000000000000000008152506040518060400160405280600281526020017f4754000000000000000000000000000000000000000000000000000000000000815250816003908162000123919062001585565b50806004908162000135919062001585565b505050600073ffffffffffffffffffffffffffffffffffffffff168173ffffffffffffffffffffffffffffffffffffffff1603620001ad5760006040517f1e4fbdf7000000000000000000000000000000000000000000000000000000008152600401620001a491906200167d565b60405180910390fd5b620001be81620002b560201b60201c565b50620001d56006836200037b60201b90919060201c565b6101208181525050620001f36007826200037b60201b90919060201c565b6101408181525050818051906020012060e08181525050808051906020012061010081815250504660a0818152505062000232620003d360201b60201c565b608081815250503073ffffffffffffffffffffffffffffffffffffffff1660c08173ffffffffffffffffffffffffffffffffffffffff1681525050505050620002ae33620002856200043060201b60201c565b600a6200029391906200182a565b612710620002a291906200187b565b6200043960201b60201c565b5062001d51565b6000600560009054906101000a900473ffffffffffffffffffffffffffffffffffffffff16905081600560006101000a81548173ffffffffffffffffffffffffffffffffffffffff021916908373ffffffffffffffffffffffffffffffffffffffff1602179055508173ffffffffffffffffffffffffffffffffffffffff168173ffffffffffffffffffffffffffffffffffffffff167f8be0079c531659141344cd1fd0a4f28419497f9722a3daafe3b4186f6b6457e060405160405180910390a35050565b6000602083511015620003a1576200039983620004c660201b60201c565b9050620003cd565b82620003b3836200053360201b60201c565b6000019081620003c4919062001585565b5060ff60001b90505b92915050565b60007f8b73c3c69bb8fe3d512ecc4cf759cc79239f7b179b0ffacaa9a75d522b39400f60e05161010051463060405160200162000415959493929190620018f2565b60405160208183030381529060405280519060200120905090565b60006012905090565b600073ffffffffffffffffffffffffffffffffffffffff168273ffffffffffffffffffffffffffffffffffffffff1603620004ae5760006040517fec442f05000000000000000000000000000000000000000000000000000000008152600401620004a591906200167d565b60405180910390fd5b620004c2600083836200053d60201b60201c565b5050565b600080829050601f815111156200051657826040517f305a27a90000000000000000000000000000000000000000000000000000000081526004016200050d9190620019de565b60405180910390fd5b805181620005249062001a34565b60001c1760001b915050919050565b6000819050919050565b620005508383836200055560201b60201c565b505050565b620005688383836200062a60201b60201c565b600073ffffffffffffffffffffffffffffffffffffffff168373ffffffffffffffffffffffffffffffffffffffff160362000612576000620005af6200085a60201b60201c565b90506000620005c36200086460201b60201c565b9050808211156200060f5781816040517f1cb15d260000000000000000000000000000000000000000000000000000000081526004016200060692919062001aa4565b60405180910390fd5b50505b620006258383836200088860201b60201c565b505050565b600073ffffffffffffffffffffffffffffffffffffffff168373ffffffffffffffffffffffffffffffffffffffff16036200068057806002600082825462000673919062001ad1565b9250508190555062000756565b60008060008573ffffffffffffffffffffffffffffffffffffffff1673ffffffffffffffffffffffffffffffffffffffff168152602001908152602001600020549050818110156200070f578381836040517fe450d38c000000000000000000000000000000000000000000000000000000008152600401620007069392919062001b0c565b60405180910390fd5b8181036000808673ffffffffffffffffffffffffffffffffffffffff1673ffffffffffffffffffffffffffffffffffffffff16815260200190815260200160002081905550505b600073ffffffffffffffffffffffffffffffffffffffff168273ffffffffffffffffffffffffffffffffffffffff1603620007a15780600260008282540392505081905550620007ee565b806000808473ffffffffffffffffffffffffffffffffffffffff1673ffffffffffffffffffffffffffffffffffffffff168152602001908152602001600020600082825401925050819055505b8173ffffffffffffffffffffffffffffffffffffffff168373ffffffffffffffffffffffffffffffffffffffff167fddf252ad1be2c89b69c2b068fc378daa952ba7f163c4a11628f55a4df523b3ef836040516200084d919062001b49565b60405180910390a3505050565b6000600254905090565b600079ffffffffffffffffffffffffffffffffffffffffffffffffffff8016905090565b600073ffffffffffffffffffffffffffffffffffffffff168373ffffffffffffffffffffffffffffffffffffffff1603620008ef57620008ec600b6200098e60201b62000ef817620008e084620009a660201b60201c565b62000a1760201b60201c565b50505b600073ffffffffffffffffffffffffffffffffffffffff168273ffffffffffffffffffffffffffffffffffffffff1603620009565762000953600b62000a6760201b62000f0e176200094784620009a660201b60201c565b62000a1760201b60201c565b50505b620009896200096b8462000a7f60201b60201c565b6200097c8462000a7f60201b60201c565b8362000ae860201b60201c565b505050565b600081836200099e919062001b8c565b905092915050565b600079ffffffffffffffffffffffffffffffffffffffffffffffffffff801682111562000a0f5760d0826040517f6dfcc65000000000000000000000000000000000000000000000000000000000815260040162000a0692919062001c24565b60405180910390fd5b819050919050565b60008062000a5b62000a2e62000d9b60201b60201c565b62000a4a62000a438862000db260201b60201c565b868860201c565b8762000e2660201b9092919060201c565b91509150935093915050565b6000818362000a77919062001c51565b905092915050565b6000600960008373ffffffffffffffffffffffffffffffffffffffff1673ffffffffffffffffffffffffffffffffffffffff16815260200190815260200160002060009054906101000a900473ffffffffffffffffffffffffffffffffffffffff169050919050565b8173ffffffffffffffffffffffffffffffffffffffff168373ffffffffffffffffffffffffffffffffffffffff161415801562000b255750600081115b1562000d9657600073ffffffffffffffffffffffffffffffffffffffff168373ffffffffffffffffffffffffffffffffffffffff161462000c605760008062000bcf600a60008773ffffffffffffffffffffffffffffffffffffffff1673ffffffffffffffffffffffffffffffffffffffff16815260200190815260200160002062000a6760201b62000f0e1762000bc386620009a660201b60201c565b62000a1760201b60201c565b79ffffffffffffffffffffffffffffffffffffffffffffffffffff16915079ffffffffffffffffffffffffffffffffffffffffffffffffffff1691508473ffffffffffffffffffffffffffffffffffffffff167fdec2bacdd2f05b59de34da9b523dff8be42e5e38e818c82fdb0bae774387a724838360405162000c5592919062001aa4565b60405180910390a250505b600073ffffffffffffffffffffffffffffffffffffffff168273ffffffffffffffffffffffffffffffffffffffff161462000d955760008062000d04600a60008673ffffffffffffffffffffffffffffffffffffffff1673ffffffffffffffffffffffffffffffffffffffff1681526020019081526020016000206200098e60201b62000ef81762000cf886620009a660201b60201c565b62000a1760201b60201c565b79ffffffffffffffffffffffffffffffffffffffffffffffffffff16915079ffffffffffffffffffffffffffffffffffffffffffffffffffff1691508373ffffffffffffffffffffffffffffffffffffffff167fdec2bacdd2f05b59de34da9b523dff8be42e5e38e818c82fdb0bae774387a724838360405162000d8a92919062001aa4565b60405180910390a250505b5b505050565b600062000dad62000e4b60201b60201c565b905090565b600080826000018054905090506000811462000e1b5762000deb8360000160018362000ddf919062001ca6565b62000e6360201b60201c565b60000160069054906101000a900479ffffffffffffffffffffffffffffffffffffffffffffffffffff1662000e1e565b60005b915050919050565b60008062000e3f85600001858562000e7860201b60201c565b91509150935093915050565b600062000e5e436200121260201b60201c565b905090565b60008260005281602060002001905092915050565b60008060008580549050905060008111156200112257600062000eb08760018462000ea4919062001ca6565b62000e6360201b60201c565b6040518060400160405290816000820160009054906101000a900465ffffffffffff1665ffffffffffff1665ffffffffffff1681526020016000820160069054906101000a900479ffffffffffffffffffffffffffffffffffffffffffffffffffff1679ffffffffffffffffffffffffffffffffffffffffffffffffffff1679ffffffffffffffffffffffffffffffffffffffffffffffffffff168152505090508565ffffffffffff16816000015165ffffffffffff16111562000fa0576040517f2520601d00000000000000000000000000000000000000000000000000000000815260040160405180910390fd5b8565ffffffffffff16816000015165ffffffffffff160362001030578462000fdd8860018562000fd1919062001ca6565b62000e6360201b60201c565b60000160066101000a81548179ffffffffffffffffffffffffffffffffffffffffffffffffffff021916908379ffffffffffffffffffffffffffffffffffffffffffffffffffff16021790555062001110565b8660405180604001604052808865ffffffffffff1681526020018779ffffffffffffffffffffffffffffffffffffffffffffffffffff168152509080600181540180825580915050600190039060005260206000200160009091909190915060008201518160000160006101000a81548165ffffffffffff021916908365ffffffffffff16021790555060208201518160000160066101000a81548179ffffffffffffffffffffffffffffffffffffffffffffffffffff021916908379ffffffffffffffffffffffffffffffffffffffffffffffffffff16021790555050505b8060200151859350935050506200120a565b8560405180604001604052808765ffffffffffff1681526020018679ffffffffffffffffffffffffffffffffffffffffffffffffffff168152509080600181540180825580915050600190039060005260206000200160009091909190915060008201518160000160006101000a81548165ffffffffffff021916908365ffffffffffff16021790555060208201518160000160066101000a81548179ffffffffffffffffffffffffffffffffffffffffffffffffffff021916908379ffffffffffffffffffffffffffffffffffffffffffffffffffff160217905550505060008492509250505b935093915050565b600065ffffffffffff801682111562001267576030826040517f6dfcc6500000000000000000000000000000000000000000000000000000000081526004016200125e92919062001d24565b60405180910390fd5b819050919050565b600080fd5b600073ffffffffffffffffffffffffffffffffffffffff82169050919050565b6000620012a18262001274565b9050919050565b620012b38162001294565b8114620012bf57600080fd5b50565b600081519050620012d381620012a8565b92915050565b600060208284031215620012f257620012f16200126f565b5b60006200130284828501620012c2565b91505092915050565b600081519050919050565b7f4e487b7100000000000000000000000000000000000000000000000000000000600052604160045260246000fd5b7f4e487b7100000000000000000000000000000000000000000000000000000000600052602260045260246000fd5b600060028204905060018216806200138d57607f821691505b602082108103620013a357620013a262001345565b5b50919050565b60008190508160005260206000209050919050565b60006020601f8301049050919050565b600082821b905092915050565b6000600883026200140d7fffffffffffffffffffffffffffffffffffffffffffffffffffffffffffffffff82620013ce565b620014198683620013ce565b95508019841693508086168417925050509392505050565b6000819050919050565b6000819050919050565b600062001466620014606200145a8462001431565b6200143b565b62001431565b9050919050565b6000819050919050565b620014828362001445565b6200149a62001491826200146d565b848454620013db565b825550505050565b600090565b620014b1620014a2565b620014be81848462001477565b505050565b5b81811015620014e657620014da600082620014a7565b600181019050620014c4565b5050565b601f8211156200153557620014ff81620013a9565b6200150a84620013be565b810160208510156200151a578190505b620015326200152985620013be565b830182620014c3565b50505b505050565b600082821c905092915050565b60006200155a600019846008026200153a565b1980831691505092915050565b600062001575838362001547565b9150826002028217905092915050565b62001590826200130b565b67ffffffffffffffff811115620015ac57620015ab62001316565b5b620015b8825462001374565b620015c5828285620014ea565b600060209050601f831160018114620015fd5760008415620015e8578287015190505b620015f4858262001567565b86555062001664565b601f1984166200160d86620013a9565b60005b82811015620016375784890151825560018201915060208501945060208101905062001610565b8683101562001657578489015162001653601f89168262001547565b8355505b6001600288020188555050505b505050505050565b620016778162001294565b82525050565b60006020820190506200169460008301846200166c565b92915050565b7f4e487b7100000000000000000000000000000000000000000000000000000000600052601160045260246000fd5b60008160011c9050919050565b6000808291508390505b600185111562001728578086048111156200170057620016ff6200169a565b5b6001851615620017105780820291505b80810290506200172085620016c9565b9450620016e0565b94509492505050565b60008262001743576001905062001816565b8162001753576000905062001816565b81600181146200176c57600281146200177757620017ad565b600191505062001816565b60ff8411156200178c576200178b6200169a565b5b8360020a915084821115620017a657620017a56200169a565b5b5062001816565b5060208310610133831016604e8410600b8410161715620017e75782820a905083811115620017e157620017e06200169a565b5b62001816565b620017f68484846001620016d6565b9250905081840481111562001810576200180f6200169a565b5b81810290505b9392505050565b600060ff82169050919050565b6000620018378262001431565b915062001844836200181d565b9250620018737fffffffffffffffffffffffffffffffffffffffffffffffffffffffffffffffff848462001731565b905092915050565b6000620018888262001431565b9150620018958362001431565b9250828202620018a58162001431565b91508282048414831517620018bf57620018be6200169a565b5b5092915050565b6000819050919050565b620018db81620018c6565b82525050565b620018ec8162001431565b82525050565b600060a082019050620019096000830188620018d0565b620019186020830187620018d0565b620019276040830186620018d0565b620019366060830185620018e1565b6200194560808301846200166c565b9695505050505050565b600082825260208201905092915050565b60005b838110156200198057808201518184015260208101905062001963565b60008484015250505050565b6000601f19601f8301169050919050565b6000620019aa826200130b565b620019b681856200194f565b9350620019c881856020860162001960565b620019d3816200198c565b840191505092915050565b60006020820190508181036000830152620019fa81846200199d565b905092915050565b600081519050919050565b6000819050602082019050919050565b600062001a2b8251620018c6565b80915050919050565b600062001a418262001a02565b8262001a4d8462001a0d565b905062001a5a8162001a1d565b9250602082101562001a9d5762001a987fffffffffffffffffffffffffffffffffffffffffffffffffffffffffffffffff83602003600802620013ce565b831692505b5050919050565b600060408201905062001abb6000830185620018e1565b62001aca6020830184620018e1565b9392505050565b600062001ade8262001431565b915062001aeb8362001431565b925082820190508082111562001b065762001b056200169a565b5b92915050565b600060608201905062001b2360008301866200166c565b62001b326020830185620018e1565b62001b416040830184620018e1565b949350505050565b600060208201905062001b606000830184620018e1565b92915050565b600079ffffffffffffffffffffffffffffffffffffffffffffffffffff82169050919050565b600062001b998262001b66565b915062001ba68362001b66565b9250828201905079ffffffffffffffffffffffffffffffffffffffffffffffffffff81111562001bdb5762001bda6200169a565b5b92915050565b6000819050919050565b600062001c0c62001c0662001c008462001be1565b6200143b565b6200181d565b9050919050565b62001c1e8162001beb565b82525050565b600060408201905062001c3b600083018562001c13565b62001c4a6020830184620018e1565b9392505050565b600062001c5e8262001b66565b915062001c6b8362001b66565b9250828203905079ffffffffffffffffffffffffffffffffffffffffffffffffffff81111562001ca05762001c9f6200169a565b5b92915050565b600062001cb38262001431565b915062001cc08362001431565b925082820390508181111562001cdb5762001cda6200169a565b5b92915050565b6000819050919050565b600062001d0c62001d0662001d008462001ce1565b6200143b565b6200181d565b9050919050565b62001d1e8162001ceb565b82525050565b600060408201905062001d3b600083018562001d13565b62001d4a6020830184620018e1565b9392505050565b60805160a05160c05160e051610100516101205161014051613bcd62001dac60003960006116720152600061163701526000611a9301526000611a72015260006110ca01526000611120015260006111490152613bcd6000f3fe608060405234801561001057600080fd5b50600436106101a95760003560e01c8063715018a6116100f95780639ab24eb011610097578063d505accf11610071578063d505accf14610500578063dd62ed3e1461051c578063f1127ed81461054c578063f2fde38b1461057c576101a9565b80639ab24eb014610484578063a9059cbb146104b4578063c3cda520146104e4576101a9565b80638da5cb5b116100d35780638da5cb5b146103fa5780638e539e8c1461041857806391ddadf41461044857806395d89b4114610466576101a9565b8063715018a61461039c5780637ecebe00146103a657806384b0196e146103d6576101a9565b80633a46b1a811610166578063587cde1e11610140578063587cde1e146102f05780635c19a95c146103205780636fcfff451461033c57806370a082311461036c576101a9565b80633a46b1a81461028657806340c10f19146102b65780634bf5d7e9146102d2576101a9565b806306fdde03146101ae578063095ea7b3146101cc57806318160ddd146101fc57806323b872dd1461021a578063313ce5671461024a5780633644e51514610268575b600080fd5b6101b6610598565b6040516101c39190612e77565b60405180910390f35b6101e660048036038101906101e19190612f32565b61062a565b6040516101f39190612f8d565b60405180910390f35b61020461064d565b6040516102119190612fb7565b60405180910390f35b610234600480360381019061022f9190612fd2565b610657565b6040516102419190612f8d565b60405180910390f35b610252610686565b60405161025f9190613041565b60405180910390f35b61027061068f565b60405161027d9190613075565b60405180910390f35b6102a0600480360381019061029b9190612f32565b61069e565b6040516102ad9190612fb7565b60405180910390f35b6102d060048036038101906102cb9190612f32565b610777565b005b6102da61078d565b6040516102e79190612e77565b60405180910390f35b61030a60048036038101906103059190613090565b610821565b60405161031791906130cc565b60405180910390f35b61033a60048036038101906103359190613090565b61088a565b005b61035660048036038101906103519190613090565b6108a4565b6040516103639190613106565b60405180910390f35b61038660048036038101906103819190613090565b6108b6565b6040516103939190612fb7565b60405180910390f35b6103a46108fe565b005b6103c060048036038101906103bb9190613090565b610912565b6040516103cd9190612fb7565b60405180910390f35b6103de610924565b6040516103f1979695949392919061321a565b60405180910390f35b6104026109ce565b60405161040f91906130cc565b60405180910390f35b610432600480360381019061042d919061329e565b6109f8565b60405161043f9190612fb7565b60405180910390f35b610450610a93565b60405161045d91906132ec565b60405180910390f35b61046e610aa2565b60405161047b9190612e77565b60405180910390f35b61049e60048036038101906104999190613090565b610b34565b6040516104ab9190612fb7565b60405180910390f35b6104ce60048036038101906104c99190612f32565b610ba0565b6040516104db9190612f8d565b60405180910390f35b6104fe60048036038101906104f9919061335f565b610bc3565b005b61051a600480360381019061051591906133ec565b610c89565b005b6105366004803603810190610531919061348e565b610dd1565b6040516105439190612fb7565b60405180910390f35b610566600480360381019061056191906134fa565b610e58565b60405161057391906135ad565b60405180910390f35b61059660048036038101906105919190613090565b610e72565b005b6060600380546105a7906135f7565b80601f01602080910402602001604051908101604052809291908181526020018280546105d3906135f7565b80156106205780601f106105f557610100808354040283529160200191610620565b820191906000526020600020905b81548152906001019060200180831161060357829003601f168201915b5050505050905090565b600080610635610f24565b9050610642818585610f2c565b600191505092915050565b6000600254905090565b600080610662610f24565b905061066f858285610f3e565b61067a858585610fd2565b60019150509392505050565b60006012905090565b60006106996110c6565b905090565b6000806106a9610a93565b90508065ffffffffffff1683106106f95782816040517fecd3f81e0000000000000000000000000000000000000000000000000000000081526004016106f0929190613628565b60405180910390fd5b6107526107058461117d565b600a60008773ffffffffffffffffffffffffffffffffffffffff1673ffffffffffffffffffffffffffffffffffffffff1681526020019081526020016000206111d790919063ffffffff16565b79ffffffffffffffffffffffffffffffffffffffffffffffffffff1691505092915050565b61077f6112d1565b6107898282611358565b5050565b60606107976113da565b65ffffffffffff166107a7610a93565b65ffffffffffff16146107e6576040517f6ff0714000000000000000000000000000000000000000000000000000000000815260040160405180910390fd5b6040518060400160405280601d81526020017f6d6f64653d626c6f636b6e756d6265722666726f6d3d64656661756c74000000815250905090565b6000600960008373ffffffffffffffffffffffffffffffffffffffff1673ffffffffffffffffffffffffffffffffffffffff16815260200190815260200160002060009054906101000a900473ffffffffffffffffffffffffffffffffffffffff169050919050565b6000610894610f24565b90506108a081836113ea565b5050565b60006108af826114fe565b9050919050565b60008060008373ffffffffffffffffffffffffffffffffffffffff1673ffffffffffffffffffffffffffffffffffffffff168152602001908152602001600020549050919050565b6109066112d1565b6109106000611556565b565b600061091d8261161c565b9050919050565b60006060806000806000606061093861162e565b610940611669565b46306000801b600067ffffffffffffffff81111561096157610960613651565b5b60405190808252806020026020018201604052801561098f5781602001602082028036833780820191505090505b507f0f00000000000000000000000000000000000000000000000000000000000000959493929190965096509650965096509650965090919293949596565b6000600560009054906101000a900473ffffffffffffffffffffffffffffffffffffffff16905090565b600080610a03610a93565b90508065ffffffffffff168310610a535782816040517fecd3f81e000000000000000000000000000000000000000000000000000000008152600401610a4a929190613628565b60405180910390fd5b610a6f610a5f8461117d565b600b6111d790919063ffffffff16565b79ffffffffffffffffffffffffffffffffffffffffffffffffffff16915050919050565b6000610a9d6113da565b905090565b606060048054610ab1906135f7565b80601f0160208091040260200160405190810160405280929190818152602001828054610add906135f7565b8015610b2a5780601f10610aff57610100808354040283529160200191610b2a565b820191906000526020600020905b815481529060010190602001808311610b0d57829003601f168201915b5050505050905090565b6000610b7d600a60008473ffffffffffffffffffffffffffffffffffffffff1673ffffffffffffffffffffffffffffffffffffffff1681526020019081526020016000206116a4565b79ffffffffffffffffffffffffffffffffffffffffffffffffffff169050919050565b600080610bab610f24565b9050610bb8818585610fd2565b600191505092915050565b83421115610c0857836040517f4683af0e000000000000000000000000000000000000000000000000000000008152600401610bff9190612fb7565b60405180910390fd5b6000610c6a610c627fe48329057bfd03d55e49b547132e39cffd9c1820ad7b9d4c5307691425d15adf898989604051602001610c479493929190613680565b6040516020818303038152906040528051906020012061170c565b858585611726565b9050610c768187611756565b610c8081886113ea565b50505050505050565b83421115610cce57836040517f62791302000000000000000000000000000000000000000000000000000000008152600401610cc59190612fb7565b60405180910390fd5b60007f6e71edae12b1b97f4d1f60370fef10105fa2faae0126114a169c64845d6126c9888888610cfd8c6117ae565b89604051602001610d13969594939291906136c5565b6040516020818303038152906040528051906020012090506000610d368261170c565b90506000610d4682878787611726565b90508973ffffffffffffffffffffffffffffffffffffffff168173ffffffffffffffffffffffffffffffffffffffff1614610dba57808a6040517f4b800e46000000000000000000000000000000000000000000000000000000008152600401610db1929190613726565b60405180910390fd5b610dc58a8a8a610f2c565b50505050505050505050565b6000600160008473ffffffffffffffffffffffffffffffffffffffff1673ffffffffffffffffffffffffffffffffffffffff16815260200190815260200160002060008373ffffffffffffffffffffffffffffffffffffffff1673ffffffffffffffffffffffffffffffffffffffff16815260200190815260200160002054905092915050565b610e60612da9565b610e6a8383611805565b905092915050565b610e7a6112d1565b600073ffffffffffffffffffffffffffffffffffffffff168173ffffffffffffffffffffffffffffffffffffffff1603610eec5760006040517f1e4fbdf7000000000000000000000000000000000000000000000000000000008152600401610ee391906130cc565b60405180910390fd5b610ef581611556565b50565b60008183610f06919061377e565b905092915050565b60008183610f1c91906137cc565b905092915050565b600033905090565b610f398383836001611866565b505050565b6000610f4a8484610dd1565b90507fffffffffffffffffffffffffffffffffffffffffffffffffffffffffffffffff8114610fcc5781811015610fbc578281836040517ffb8f41b2000000000000000000000000000000000000000000000000000000008152600401610fb39392919061381a565b60405180910390fd5b610fcb84848484036000611866565b5b50505050565b600073ffffffffffffffffffffffffffffffffffffffff168373ffffffffffffffffffffffffffffffffffffffff16036110445760006040517f96c6fd1e00000000000000000000000000000000000000000000000000000000815260040161103b91906130cc565b60405180910390fd5b600073ffffffffffffffffffffffffffffffffffffffff168273ffffffffffffffffffffffffffffffffffffffff16036110b65760006040517fec442f050000000000000000000000000000000000000000000000000000000081526004016110ad91906130cc565b60405180910390fd5b6110c1838383611a3d565b505050565b60007f000000000000000000000000000000000000000000000000000000000000000073ffffffffffffffffffffffffffffffffffffffff163073ffffffffffffffffffffffffffffffffffffffff1614801561114257507f000000000000000000000000000000000000000000000000000000000000000046145b1561116f577f0000000000000000000000000000000000000000000000000000000000000000905061117a565b611177611a4d565b90505b90565b600065ffffffffffff80168211156111cf576030826040517f6dfcc6500000000000000000000000000000000000000000000000000000000081526004016111c6929190613896565b60405180910390fd5b819050919050565b60008083600001805490509050600080829050600583111561125f5760006111fe84611ae3565b8461120991906138bf565b90506112188760000182611bdc565b60000160009054906101000a900465ffffffffffff1665ffffffffffff168665ffffffffffff16101561124d5780915061125d565b60018161125a91906138f3565b92505b505b600061127087600001878585611bf1565b9050600081146112c2576112938760000160018361128e91906138bf565b611bdc565b60000160069054906101000a900479ffffffffffffffffffffffffffffffffffffffffffffffffffff166112c5565b60005b94505050505092915050565b6112d9610f24565b73ffffffffffffffffffffffffffffffffffffffff166112f76109ce565b73ffffffffffffffffffffffffffffffffffffffff16146113565761131a610f24565b6040517f118cdaa700000000000000000000000000000000000000000000000000000000815260040161134d91906130cc565b60405180910390fd5b565b600073ffffffffffffffffffffffffffffffffffffffff168273ffffffffffffffffffffffffffffffffffffffff16036113ca5760006040517fec442f050000000000000000000000000000000000000000000000000000000081526004016113c191906130cc565b60405180910390fd5b6113d660008383611a3d565b5050565b60006113e54361117d565b905090565b60006113f583610821565b905081600960008573ffffffffffffffffffffffffffffffffffffffff1673ffffffffffffffffffffffffffffffffffffffff16815260200190815260200160002060006101000a81548173ffffffffffffffffffffffffffffffffffffffff021916908373ffffffffffffffffffffffffffffffffffffffff1602179055508173ffffffffffffffffffffffffffffffffffffffff168173ffffffffffffffffffffffffffffffffffffffff168473ffffffffffffffffffffffffffffffffffffffff167f3134e8a2e6d97e929a7e54011ea5485d7d196dd5f0ba4d4ef95803e8e3fc257f60405160405180910390a46114f981836114f486611c6a565b611c7c565b505050565b600061154f61154a600a60008573ffffffffffffffffffffffffffffffffffffffff1673ffffffffffffffffffffffffffffffffffffffff168152602001908152602001600020611ef5565b611f06565b9050919050565b6000600560009054906101000a900473ffffffffffffffffffffffffffffffffffffffff16905081600560006101000a81548173ffffffffffffffffffffffffffffffffffffffff021916908373ffffffffffffffffffffffffffffffffffffffff1602179055508173ffffffffffffffffffffffffffffffffffffffff168173ffffffffffffffffffffffffffffffffffffffff167f8be0079c531659141344cd1fd0a4f28419497f9722a3daafe3b4186f6b6457e060405160405180910390a35050565b600061162782611f5e565b9050919050565b606061166460067f0000000000000000000000000000000000000000000000000000000000000000611fa790919063ffffffff16565b905090565b606061169f60077f0000000000000000000000000000000000000000000000000000000000000000611fa790919063ffffffff16565b905090565b6000808260000180549050905060008114611701576116d2836000016001836116cd91906138bf565b611bdc565b60000160069054906101000a900479ffffffffffffffffffffffffffffffffffffffffffffffffffff16611704565b60005b915050919050565b600061171f6117196110c6565b83612057565b9050919050565b60008060008061173888888888612098565b925092509250611748828261218c565b829350505050949350505050565b6000611761836117ae565b90508082146117a95782816040517f752d88c00000000000000000000000000000000000000000000000000000000081526004016117a0929190613927565b60405180910390fd5b505050565b6000600860008373ffffffffffffffffffffffffffffffffffffffff1673ffffffffffffffffffffffffffffffffffffffff1681526020019081526020016000206000815480929190600101919050559050919050565b61180d612da9565b61185e82600a60008673ffffffffffffffffffffffffffffffffffffffff1673ffffffffffffffffffffffffffffffffffffffff1681526020019081526020016000206122f090919063ffffffff16565b905092915050565b600073ffffffffffffffffffffffffffffffffffffffff168473ffffffffffffffffffffffffffffffffffffffff16036118d85760006040517fe602df050000000000000000000000000000000000000000000000000000000081526004016118cf91906130cc565b60405180910390fd5b600073ffffffffffffffffffffffffffffffffffffffff168373ffffffffffffffffffffffffffffffffffffffff160361194a5760006040517f94280d6200000000000000000000000000000000000000000000000000000000815260040161194191906130cc565b60405180910390fd5b81600160008673ffffffffffffffffffffffffffffffffffffffff1673ffffffffffffffffffffffffffffffffffffffff16815260200190815260200160002060008573ffffffffffffffffffffffffffffffffffffffff1673ffffffffffffffffffffffffffffffffffffffff168152602001908152602001600020819055508015611a37578273ffffffffffffffffffffffffffffffffffffffff168473ffffffffffffffffffffffffffffffffffffffff167f8c5be1e5ebec7d5bd14f71427d1e84f3dd0314c0f7b2291e5b200ac8c7c3b92584604051611a2e9190612fb7565b60405180910390a35b50505050565b611a488383836123c5565b505050565b60007f8b73c3c69bb8fe3d512ecc4cf759cc79239f7b179b0ffacaa9a75d522b39400f7f00000000000000000000000000000000000000000000000000000000000000007f00000000000000000000000000000000000000000000000000000000000000004630604051602001611ac8959493929190613950565b60405160208183030381529060405280519060200120905090565b6000808203611af55760009050611bd7565b60006001611b0284612476565b901c6001901b90506001818481611b1c57611b1b6139a3565b5b048201901c90506001818481611b3557611b346139a3565b5b048201901c90506001818481611b4e57611b4d6139a3565b5b048201901c90506001818481611b6757611b666139a3565b5b048201901c90506001818481611b8057611b7f6139a3565b5b048201901c90506001818481611b9957611b986139a3565b5b048201901c90506001818481611bb257611bb16139a3565b5b048201901c9050611bd381828581611bcd57611bcc6139a3565b5b04612557565b9150505b919050565b60008260005281602060002001905092915050565b60005b81831015611c5f576000611c088484612570565b90508465ffffffffffff16611c1d8783611bdc565b60000160009054906101000a900465ffffffffffff1665ffffffffffff161115611c4957809250611c59565b600181611c5691906138f3565b93505b50611bf4565b819050949350505050565b6000611c75826108b6565b9050919050565b8173ffffffffffffffffffffffffffffffffffffffff168373ffffffffffffffffffffffffffffffffffffffff1614158015611cb85750600081115b15611ef057600073ffffffffffffffffffffffffffffffffffffffff168373ffffffffffffffffffffffffffffffffffffffff1614611dd657600080611d47600a60008773ffffffffffffffffffffffffffffffffffffffff1673ffffffffffffffffffffffffffffffffffffffff168152602001908152602001600020610f0e611d4286612596565b612604565b79ffffffffffffffffffffffffffffffffffffffffffffffffffff16915079ffffffffffffffffffffffffffffffffffffffffffffffffffff1691508473ffffffffffffffffffffffffffffffffffffffff167fdec2bacdd2f05b59de34da9b523dff8be42e5e38e818c82fdb0bae774387a7248383604051611dcb9291906139d2565b60405180910390a250505b600073ffffffffffffffffffffffffffffffffffffffff168273ffffffffffffffffffffffffffffffffffffffff1614611eef57600080611e60600a60008673ffffffffffffffffffffffffffffffffffffffff1673ffffffffffffffffffffffffffffffffffffffff168152602001908152602001600020610ef8611e5b86612596565b612604565b79ffffffffffffffffffffffffffffffffffffffffffffffffffff16915079ffffffffffffffffffffffffffffffffffffffffffffffffffff1691508373ffffffffffffffffffffffffffffffffffffffff167fdec2bacdd2f05b59de34da9b523dff8be42e5e38e818c82fdb0bae774387a7248383604051611ee49291906139d2565b60405180910390a250505b5b505050565b600081600001805490509050919050565b600063ffffffff8016821115611f56576020826040517f6dfcc650000000000000000000000000000000000000000000000000000000008152600401611f4d929190613a36565b60405180910390fd5b819050919050565b6000600860008373ffffffffffffffffffffffffffffffffffffffff1673ffffffffffffffffffffffffffffffffffffffff168152602001908152602001600020549050919050565b606060ff60001b8314611fc457611fbd83612644565b9050612051565b818054611fd0906135f7565b80601f0160208091040260200160405190810160405280929190818152602001828054611ffc906135f7565b80156120495780601f1061201e57610100808354040283529160200191612049565b820191906000526020600020905b81548152906001019060200180831161202c57829003601f168201915b505050505090505b92915050565b60006040517f190100000000000000000000000000000000000000000000000000000000000081528360028201528260228201526042812091505092915050565b60008060007f7fffffffffffffffffffffffffffffff5d576e7357a4501ddfe92f46681b20a08460001c11156120d8576000600385925092509250612182565b6000600188888888604051600081526020016040526040516120fd9493929190613a5f565b6020604051602081039080840390855afa15801561211f573d6000803e3d6000fd5b505050602060405103519050600073ffffffffffffffffffffffffffffffffffffffff168173ffffffffffffffffffffffffffffffffffffffff160361217357600060016000801b93509350935050612182565b8060008060001b935093509350505b9450945094915050565b600060038111156121a05761219f613aa4565b5b8260038111156121b3576121b2613aa4565b5b03156122ec57600160038111156121cd576121cc613aa4565b5b8260038111156121e0576121df613aa4565b5b03612217576040517ff645eedf00000000000000000000000000000000000000000000000000000000815260040160405180910390fd5b6002600381111561222b5761222a613aa4565b5b82600381111561223e5761223d613aa4565b5b03612283578060001c6040517ffce698f700000000000000000000000000000000000000000000000000000000815260040161227a9190612fb7565b60405180910390fd5b60038081111561229657612295613aa4565b5b8260038111156122a9576122a8613aa4565b5b036122eb57806040517fd78bce0c0000000000000000000000000000000000000000000000000000000081526004016122e29190613075565b60405180910390fd5b5b5050565b6122f8612da9565b826000018263ffffffff168154811061231457612313613ad3565b5b906000526020600020016040518060400160405290816000820160009054906101000a900465ffffffffffff1665ffffffffffff1665ffffffffffff1681526020016000820160069054906101000a900479ffffffffffffffffffffffffffffffffffffffffffffffffffff1679ffffffffffffffffffffffffffffffffffffffffffffffffffff1679ffffffffffffffffffffffffffffffffffffffffffffffffffff1681525050905092915050565b6123d08383836126b8565b600073ffffffffffffffffffffffffffffffffffffffff168373ffffffffffffffffffffffffffffffffffffffff160361246657600061240e61064d565b9050600061241a6128dd565b9050808211156124635781816040517f1cb15d2600000000000000000000000000000000000000000000000000000000815260040161245a9291906139d2565b60405180910390fd5b50505b612471838383612901565b505050565b600080600090506000608084901c111561249857608083901c92506080810190505b6000604084901c11156124b357604083901c92506040810190505b6000602084901c11156124ce57602083901c92506020810190505b6000601084901c11156124e957601083901c92506010810190505b6000600884901c111561250457600883901c92506008810190505b6000600484901c111561251f57600483901c92506004810190505b6000600284901c111561253a57600283901c92506002810190505b6000600184901c111561254e576001810190505b80915050919050565b60008183106125665781612568565b825b905092915050565b600060028284186125819190613b02565b82841661258e91906138f3565b905092915050565b600079ffffffffffffffffffffffffffffffffffffffffffffffffffff80168211156125fc5760d0826040517f6dfcc6500000000000000000000000000000000000000000000000000000000081526004016125f3929190613b6e565b60405180910390fd5b819050919050565b600080612638612612610a93565b61262861261e886116a4565b868863ffffffff16565b876129bb9092919063ffffffff16565b91509150935093915050565b60606000612651836129d8565b90506000602067ffffffffffffffff8111156126705761266f613651565b5b6040519080825280601f01601f1916602001820160405280156126a25781602001600182028036833780820191505090505b5090508181528360208201528092505050919050565b600073ffffffffffffffffffffffffffffffffffffffff168373ffffffffffffffffffffffffffffffffffffffff160361270a5780600260008282546126fe91906138f3565b925050819055506127dd565b60008060008573ffffffffffffffffffffffffffffffffffffffff1673ffffffffffffffffffffffffffffffffffffffff16815260200190815260200160002054905081811015612796578381836040517fe450d38c00000000000000000000000000000000000000000000000000000000815260040161278d9392919061381a565b60405180910390fd5b8181036000808673ffffffffffffffffffffffffffffffffffffffff1673ffffffffffffffffffffffffffffffffffffffff16815260200190815260200160002081905550505b600073ffffffffffffffffffffffffffffffffffffffff168273ffffffffffffffffffffffffffffffffffffffff16036128265780600260008282540392505081905550612873565b806000808473ffffffffffffffffffffffffffffffffffffffff1673ffffffffffffffffffffffffffffffffffffffff168152602001908152602001600020600082825401925050819055505b8173ffffffffffffffffffffffffffffffffffffffff168373ffffffffffffffffffffffffffffffffffffffff167fddf252ad1be2c89b69c2b068fc378daa952ba7f163c4a11628f55a4df523b3ef836040516128d09190612fb7565b60405180910390a3505050565b600079ffffffffffffffffffffffffffffffffffffffffffffffffffff8016905090565b600073ffffffffffffffffffffffffffffffffffffffff168373ffffffffffffffffffffffffffffffffffffffff160361294e5761294b600b610ef861294684612596565b612604565b50505b600073ffffffffffffffffffffffffffffffffffffffff168273ffffffffffffffffffffffffffffffffffffffff160361299b57612998600b610f0e61299384612596565b612604565b50505b6129b66129a784610821565b6129b084610821565b83611c7c565b505050565b6000806129cc856000018585612a28565b91509150935093915050565b60008060ff8360001c169050601f811115612a1f576040517fb3512b0c00000000000000000000000000000000000000000000000000000000815260040160405180910390fd5b80915050919050565b6000806000858054905090506000811115612cb9576000612a5587600184612a5091906138bf565b611bdc565b6040518060400160405290816000820160009054906101000a900465ffffffffffff1665ffffffffffff1665ffffffffffff1681526020016000820160069054906101000a900479ffffffffffffffffffffffffffffffffffffffffffffffffffff1679ffffffffffffffffffffffffffffffffffffffffffffffffffff1679ffffffffffffffffffffffffffffffffffffffffffffffffffff168152505090508565ffffffffffff16816000015165ffffffffffff161115612b44576040517f2520601d00000000000000000000000000000000000000000000000000000000815260040160405180910390fd5b8565ffffffffffff16816000015165ffffffffffff1603612bc85784612b7688600185612b7191906138bf565b611bdc565b60000160066101000a81548179ffffffffffffffffffffffffffffffffffffffffffffffffffff021916908379ffffffffffffffffffffffffffffffffffffffffffffffffffff160217905550612ca8565b8660405180604001604052808865ffffffffffff1681526020018779ffffffffffffffffffffffffffffffffffffffffffffffffffff168152509080600181540180825580915050600190039060005260206000200160009091909190915060008201518160000160006101000a81548165ffffffffffff021916908365ffffffffffff16021790555060208201518160000160066101000a81548179ffffffffffffffffffffffffffffffffffffffffffffffffffff021916908379ffffffffffffffffffffffffffffffffffffffffffffffffffff16021790555050505b806020015185935093505050612da1565b8560405180604001604052808765ffffffffffff1681526020018679ffffffffffffffffffffffffffffffffffffffffffffffffffff168152509080600181540180825580915050600190039060005260206000200160009091909190915060008201518160000160006101000a81548165ffffffffffff021916908365ffffffffffff16021790555060208201518160000160066101000a81548179ffffffffffffffffffffffffffffffffffffffffffffffffffff021916908379ffffffffffffffffffffffffffffffffffffffffffffffffffff160217905550505060008492509250505b935093915050565b6040518060400160405280600065ffffffffffff168152602001600079ffffffffffffffffffffffffffffffffffffffffffffffffffff1681525090565b600081519050919050565b600082825260208201905092915050565b60005b83811015612e21578082015181840152602081019050612e06565b60008484015250505050565b6000601f19601f8301169050919050565b6000612e4982612de7565b612e538185612df2565b9350612e63818560208601612e03565b612e6c81612e2d565b840191505092915050565b60006020820190508181036000830152612e918184612e3e565b905092915050565b600080fd5b600073ffffffffffffffffffffffffffffffffffffffff82169050919050565b6000612ec982612e9e565b9050919050565b612ed981612ebe565b8114612ee457600080fd5b50565b600081359050612ef681612ed0565b92915050565b6000819050919050565b612f0f81612efc565b8114612f1a57600080fd5b50565b600081359050612f2c81612f06565b92915050565b60008060408385031215612f4957612f48612e99565b5b6000612f5785828601612ee7565b9250506020612f6885828601612f1d565b9150509250929050565b60008115159050919050565b612f8781612f72565b82525050565b6000602082019050612fa26000830184612f7e565b92915050565b612fb181612efc565b82525050565b6000602082019050612fcc6000830184612fa8565b92915050565b600080600060608486031215612feb57612fea612e99565b5b6000612ff986828701612ee7565b935050602061300a86828701612ee7565b925050604061301b86828701612f1d565b9150509250925092565b600060ff82169050919050565b61303b81613025565b82525050565b60006020820190506130566000830184613032565b92915050565b6000819050919050565b61306f8161305c565b82525050565b600060208201905061308a6000830184613066565b92915050565b6000602082840312156130a6576130a5612e99565b5b60006130b484828501612ee7565b91505092915050565b6130c681612ebe565b82525050565b60006020820190506130e160008301846130bd565b92915050565b600063ffffffff82169050919050565b613100816130e7565b82525050565b600060208201905061311b60008301846130f7565b92915050565b60007fff0000000000000000000000000000000000000000000000000000000000000082169050919050565b61315681613121565b82525050565b600081519050919050565b600082825260208201905092915050565b6000819050602082019050919050565b61319181612efc565b82525050565b60006131a38383613188565b60208301905092915050565b6000602082019050919050565b60006131c78261315c565b6131d18185613167565b93506131dc83613178565b8060005b8381101561320d5781516131f48882613197565b97506131ff836131af565b9250506001810190506131e0565b5085935050505092915050565b600060e08201905061322f600083018a61314d565b81810360208301526132418189612e3e565b905081810360408301526132558188612e3e565b90506132646060830187612fa8565b61327160808301866130bd565b61327e60a0830185613066565b81810360c083015261329081846131bc565b905098975050505050505050565b6000602082840312156132b4576132b3612e99565b5b60006132c284828501612f1d565b91505092915050565b600065ffffffffffff82169050919050565b6132e6816132cb565b82525050565b600060208201905061330160008301846132dd565b92915050565b61331081613025565b811461331b57600080fd5b50565b60008135905061332d81613307565b92915050565b61333c8161305c565b811461334757600080fd5b50565b60008135905061335981613333565b92915050565b60008060008060008060c0878903121561337c5761337b612e99565b5b600061338a89828a01612ee7565b965050602061339b89828a01612f1d565b95505060406133ac89828a01612f1d565b94505060606133bd89828a0161331e565b93505060806133ce89828a0161334a565b92505060a06133df89828a0161334a565b9150509295509295509295565b600080600080600080600060e0888a03121561340b5761340a612e99565b5b60006134198a828b01612ee7565b975050602061342a8a828b01612ee7565b965050604061343b8a828b01612f1d565b955050606061344c8a828b01612f1d565b945050608061345d8a828b0161331e565b93505060a061346e8a828b0161334a565b92505060c061347f8a828b0161334a565b91505092959891949750929550565b600080604083850312156134a5576134a4612e99565b5b60006134b385828601612ee7565b92505060206134c485828601612ee7565b9150509250929050565b6134d7816130e7565b81146134e257600080fd5b50565b6000813590506134f4816134ce565b92915050565b6000806040838503121561351157613510612e99565b5b600061351f85828601612ee7565b9250506020613530858286016134e5565b9150509250929050565b613543816132cb565b82525050565b600079ffffffffffffffffffffffffffffffffffffffffffffffffffff82169050919050565b61357881613549565b82525050565b604082016000820151613594600085018261353a565b5060208201516135a7602085018261356f565b50505050565b60006040820190506135c2600083018461357e565b92915050565b7f4e487b7100000000000000000000000000000000000000000000000000000000600052602260045260246000fd5b6000600282049050600182168061360f57607f821691505b602082108103613622576136216135c8565b5b50919050565b600060408201905061363d6000830185612fa8565b61364a60208301846132dd565b9392505050565b7f4e487b7100000000000000000000000000000000000000000000000000000000600052604160045260246000fd5b60006080820190506136956000830187613066565b6136a260208301866130bd565b6136af6040830185612fa8565b6136bc6060830184612fa8565b95945050505050565b600060c0820190506136da6000830189613066565b6136e760208301886130bd565b6136f460408301876130bd565b6137016060830186612fa8565b61370e6080830185612fa8565b61371b60a0830184612fa8565b979650505050505050565b600060408201905061373b60008301856130bd565b61374860208301846130bd565b9392505050565b7f4e487b7100000000000000000000000000000000000000000000000000000000600052601160045260246000fd5b600061378982613549565b915061379483613549565b9250828201905079ffffffffffffffffffffffffffffffffffffffffffffffffffff8111156137c6576137c561374f565b5b92915050565b60006137d782613549565b91506137e283613549565b9250828203905079ffffffffffffffffffffffffffffffffffffffffffffffffffff8111156138145761381361374f565b5b92915050565b600060608201905061382f60008301866130bd565b61383c6020830185612fa8565b6138496040830184612fa8565b949350505050565b6000819050919050565b6000819050919050565b600061388061387b61387684613851565b61385b565b613025565b9050919050565b61389081613865565b82525050565b60006040820190506138ab6000830185613887565b6138b86020830184612fa8565b9392505050565b60006138ca82612efc565b91506138d583612efc565b92508282039050818111156138ed576138ec61374f565b5b92915050565b60006138fe82612efc565b915061390983612efc565b92508282019050808211156139215761392061374f565b5b92915050565b600060408201905061393c60008301856130bd565b6139496020830184612fa8565b9392505050565b600060a0820190506139656000830188613066565b6139726020830187613066565b61397f6040830186613066565b61398c6060830185612fa8565b61399960808301846130bd565b9695505050505050565b7f4e487b7100000000000000000000000000000000000000000000000000000000600052601260045260246000fd5b60006040820190506139e76000830185612fa8565b6139f46020830184612fa8565b9392505050565b6000819050919050565b6000613a20613a1b613a16846139fb565b61385b565b613025565b9050919050565b613a3081613a05565b82525050565b6000604082019050613a4b6000830185613a27565b613a586020830184612fa8565b9392505050565b6000608082019050613a746000830187613066565b613a816020830186613032565b613a8e6040830185613066565b613a9b6060830184613066565b95945050505050565b7f4e487b7100000000000000000000000000000000000000000000000000000000600052602160045260246000fd5b7f4e487b7100000000000000000000000000000000000000000000000000000000600052603260045260246000fd5b6000613b0d82612efc565b9150613b1883612efc565b925082613b2857613b276139a3565b5b828204905092915050565b6000819050919050565b6000613b58613b53613b4e84613b33565b61385b565b613025565b9050919050565b613b6881613b3d565b82525050565b6000604082019050613b836000830185613b5f565b613b906020830184612fa8565b939250505056fea2646970667358221220e8fd0f3202a256d5d09f16e1d52b58726ca8084fae31d2a8cc77e0df4b72976864736f6c63430008140033",
  "linkReferences": {},
  "deployedLinkReferences": {}
}